{
  "_format": "hh-sol-artifact-1",
  "contractName": "SimpleScholarDAO",
  "sourceName": "contracts/scholar.sol",
  "abi": [
    {
      "inputs": [],
      "stateMutability": "nonpayable",
      "type": "constructor"
    },
    {
      "anonymous": false,
      "inputs": [
        {
          "indexed": false,
          "internalType": "uint256",
          "name": "paperId",
          "type": "uint256"
        },
        {
          "indexed": false,
          "internalType": "address",
          "name": "buyer",
          "type": "address"
        }
      ],
      "name": "AccessPurchased",
      "type": "event"
    },
    {
      "anonymous": false,
      "inputs": [
        {
          "indexed": false,
          "internalType": "address",
          "name": "member",
          "type": "address"
        }
      ],
      "name": "MemberAdded",
      "type": "event"
    },
    {
      "anonymous": false,
      "inputs": [
        {
          "indexed": false,
          "internalType": "uint256",
          "name": "paperId",
          "type": "uint256"
        },
        {
          "indexed": false,
          "internalType": "address",
          "name": "author",
          "type": "address"
        },
        {
          "indexed": false,
          "internalType": "string",
          "name": "researchField",
          "type": "string"
        }
      ],
      "name": "PaperSubmitted",
      "type": "event"
    },
    {
      "anonymous": false,
      "inputs": [
        {
          "indexed": false,
          "internalType": "uint256",
          "name": "paperId",
          "type": "uint256"
        },
        {
          "indexed": false,
          "internalType": "bool",
          "name": "approved",
          "type": "bool"
        }
      ],
      "name": "PaperVerified",
      "type": "event"
    },
    {
      "anonymous": false,
      "inputs": [
        {
          "indexed": false,
          "internalType": "uint256",
          "name": "paperId",
          "type": "uint256"
        },
        {
          "indexed": false,
          "internalType": "address",
          "name": "member",
          "type": "address"
        },
        {
          "indexed": false,
          "internalType": "bool",
          "name": "approved",
          "type": "bool"
        }
      ],
      "name": "VerificationVote",
      "type": "event"
    },
    {
      "inputs": [],
      "name": "REQUIRED_VOTES",
      "outputs": [
        {
          "internalType": "uint8",
          "name": "",
          "type": "uint8"
        }
      ],
      "stateMutability": "view",
      "type": "function"
    },
    {
      "inputs": [
        {
          "internalType": "address",
          "name": "_member",
          "type": "address"
        }
      ],
      "name": "addMember",
      "outputs": [],
      "stateMutability": "nonpayable",
      "type": "function"
    },
    {
      "inputs": [],
      "name": "admin",
      "outputs": [
        {
          "internalType": "address",
          "name": "",
          "type": "address"
        }
      ],
      "stateMutability": "view",
      "type": "function"
    },
    {
      "inputs": [
        {
          "internalType": "uint256",
          "name": "_paperId",
          "type": "uint256"
        }
      ],
      "name": "getPaperDetails",
      "outputs": [
        {
          "internalType": "address",
          "name": "author",
          "type": "address"
        },
        {
          "internalType": "string",
          "name": "title",
          "type": "string"
        },
        {
          "internalType": "uint256",
          "name": "price",
          "type": "uint256"
        },
        {
          "internalType": "string",
          "name": "teamMembers",
          "type": "string"
        },
        {
          "internalType": "string",
          "name": "researchField",
          "type": "string"
        },
        {
          "internalType": "bool",
          "name": "isVerified",
          "type": "bool"
        }
      ],
      "stateMutability": "view",
      "type": "function"
    },
    {
      "inputs": [
        {
          "internalType": "uint256",
          "name": "_paperId",
          "type": "uint256"
        }
      ],
      "name": "getPaperStatus",
      "outputs": [
        {
          "internalType": "bool",
          "name": "isVerified",
          "type": "bool"
        },
        {
          "internalType": "uint8",
          "name": "approvals",
          "type": "uint8"
        },
        {
          "internalType": "uint8",
          "name": "rejections",
          "type": "uint8"
        }
      ],
      "stateMutability": "view",
      "type": "function"
    },
    {
      "inputs": [
        {
          "internalType": "address",
          "name": "",
          "type": "address"
        }
      ],
      "name": "members",
      "outputs": [
        {
          "internalType": "bool",
          "name": "",
          "type": "bool"
        }
      ],
      "stateMutability": "view",
      "type": "function"
    },
    {
      "inputs": [],
      "name": "paperCount",
      "outputs": [
        {
          "internalType": "uint256",
          "name": "",
          "type": "uint256"
        }
      ],
      "stateMutability": "view",
      "type": "function"
    },
    {
      "inputs": [
        {
          "internalType": "uint256",
          "name": "",
          "type": "uint256"
        }
      ],
      "name": "papers",
      "outputs": [
        {
          "internalType": "address",
          "name": "author",
          "type": "address"
        },
        {
          "internalType": "string",
          "name": "title",
          "type": "string"
        },
        {
          "internalType": "string",
          "name": "contentHash",
          "type": "string"
        },
        {
          "internalType": "uint256",
          "name": "accessPrice",
          "type": "uint256"
        },
        {
          "internalType": "bool",
          "name": "verified",
          "type": "bool"
        },
        {
          "internalType": "uint8",
          "name": "approvalCount",
          "type": "uint8"
        },
        {
          "internalType": "uint8",
          "name": "rejectionCount",
          "type": "uint8"
        },
        {
          "internalType": "string",
          "name": "teamMembers",
          "type": "string"
        },
        {
          "internalType": "string",
          "name": "researchField",
          "type": "string"
        }
      ],
      "stateMutability": "view",
      "type": "function"
    },
    {
      "inputs": [
        {
          "internalType": "uint256",
          "name": "_paperId",
          "type": "uint256"
        }
      ],
      "name": "purchaseAccess",
      "outputs": [],
      "stateMutability": "payable",
      "type": "function"
    },
    {
      "inputs": [
        {
          "internalType": "string",
          "name": "_title",
          "type": "string"
        },
        {
          "internalType": "string",
          "name": "_contentHash",
          "type": "string"
        },
        {
          "internalType": "uint256",
          "name": "_price",
          "type": "uint256"
        },
        {
          "internalType": "string",
          "name": "_teamMembers",
          "type": "string"
        },
        {
          "internalType": "string",
          "name": "_researchField",
          "type": "string"
        }
      ],
      "name": "submitPaper",
      "outputs": [],
      "stateMutability": "nonpayable",
      "type": "function"
    },
    {
      "inputs": [
        {
          "internalType": "uint256",
          "name": "_paperId",
          "type": "uint256"
        },
        {
          "internalType": "bool",
          "name": "_approve",
          "type": "bool"
        }
      ],
      "name": "voteOnPaper",
      "outputs": [],
      "stateMutability": "nonpayable",
      "type": "function"
    }
  ],
  "bytecode": "0x608060405234801561001057600080fd5b5033600160006101000a81548173ffffffffffffffffffffffffffffffffffffffff021916908373ffffffffffffffffffffffffffffffffffffffff16021790555060016000803373ffffffffffffffffffffffffffffffffffffffff1673ffffffffffffffffffffffffffffffffffffffff16815260200190815260200160002060006101000a81548160ff021916908315150217905550611e2f806100b86000396000f3fe60806040526004361061009c5760003560e01c80638bf7526e116100645780638bf7526e146101b4578063a56c2cb9146101f6578063b91d0a2f14610221578063ca6d56dc1461023d578063f851a44014610266578063fdd7e7f9146102915761009c565b806308ae4b0c146100a157806325c2b237146100de5780635e775a271461011d5780636b45ae9a1461016257806383d2076a1461018b575b600080fd5b3480156100ad57600080fd5b506100c860048036038101906100c391906110da565b6102bc565b6040516100d59190611122565b60405180910390f35b3480156100ea57600080fd5b5061010560048036038101906101009190611173565b6102dc565b604051610114939291906111bc565b60405180910390f35b34801561012957600080fd5b50610144600480360381019061013f9190611173565b61033b565b604051610159999897969594939291906112a1565b60405180910390f35b34801561016e57600080fd5b5061018960048036038101906101849190611376565b6105f0565b005b34801561019757600080fd5b506101b260048036038101906101ad919061141b565b610a12565b005b3480156101c057600080fd5b506101db60048036038101906101d69190611173565b610b4b565b6040516101ed96959493929190611517565b60405180910390f35b34801561020257600080fd5b5061020b610d6e565b604051610218919061158d565b60405180910390f35b61023b60048036038101906102369190611173565b610d74565b005b34801561024957600080fd5b50610264600480360381019061025f91906110da565b610f26565b005b34801561027257600080fd5b5061027b611047565b60405161028891906115a8565b60405180910390f35b34801561029d57600080fd5b506102a661106d565b6040516102b391906115c3565b60405180910390f35b60006020528060005260406000206000915054906101000a900460ff1681565b6000806000806002600086815260200190815260200160002090508060040160009054906101000a900460ff168160040160019054906101000a900460ff168260040160029054906101000a900460ff16935093509350509193909250565b60026020528060005260406000206000915090508060000160009054906101000a900473ffffffffffffffffffffffffffffffffffffffff16908060010180546103849061160d565b80601f01602080910402602001604051908101604052809291908181526020018280546103b09061160d565b80156103fd5780601f106103d2576101008083540402835291602001916103fd565b820191906000526020600020905b8154815290600101906020018083116103e057829003601f168201915b5050505050908060020180546104129061160d565b80601f016020809104026020016040519081016040528092919081815260200182805461043e9061160d565b801561048b5780601f106104605761010080835404028352916020019161048b565b820191906000526020600020905b81548152906001019060200180831161046e57829003601f168201915b5050505050908060030154908060040160009054906101000a900460ff16908060040160019054906101000a900460ff16908060040160029054906101000a900460ff16908060050180546104df9061160d565b80601f016020809104026020016040519081016040528092919081815260200182805461050b9061160d565b80156105585780601f1061052d57610100808354040283529160200191610558565b820191906000526020600020905b81548152906001019060200180831161053b57829003601f168201915b50505050509080600601805461056d9061160d565b80601f01602080910402602001604051908101604052809291908181526020018280546105999061160d565b80156105e65780601f106105bb576101008083540402835291602001916105e6565b820191906000526020600020905b8154815290600101906020018083116105c957829003601f168201915b5050505050905089565b6000803373ffffffffffffffffffffffffffffffffffffffff1673ffffffffffffffffffffffffffffffffffffffff16815260200190815260200160002060009054906101000a900460ff1661067b576040517f08c379a00000000000000000000000000000000000000000000000000000000081526004016106729061168a565b60405180910390fd5b60006002600084815260200190815260200160002090508060040160009054906101000a900460ff16156106e4576040517f08c379a00000000000000000000000000000000000000000000000000000000081526004016106db906116f6565b60405180910390fd5b8060070160003373ffffffffffffffffffffffffffffffffffffffff1673ffffffffffffffffffffffffffffffffffffffff16815260200190815260200160002060009054906101000a900460ff1615610773576040517f08c379a000000000000000000000000000000000000000000000000000000000815260040161076a90611762565b60405180910390fd5b3373ffffffffffffffffffffffffffffffffffffffff168160000160009054906101000a900473ffffffffffffffffffffffffffffffffffffffff1673ffffffffffffffffffffffffffffffffffffffff1603610805576040517f08c379a00000000000000000000000000000000000000000000000000000000081526004016107fc906117ce565b60405180910390fd5b60018160070160003373ffffffffffffffffffffffffffffffffffffffff1673ffffffffffffffffffffffffffffffffffffffff16815260200190815260200160002060006101000a81548160ff02191690831515021790555081156108a45780600401600181819054906101000a900460ff16809291906108869061181d565b91906101000a81548160ff021916908360ff160217905550506108df565b80600401600281819054906101000a900460ff16809291906108c59061181d565b91906101000a81548160ff021916908360ff160217905550505b7f3718917f25ba08f882bec3f1b29e583bf7d953e069bd09538aa37631587e7ce483338460405161091293929190611846565b60405180910390a1600360ff168160040160019054906101000a900460ff1660ff16106109955760018160040160006101000a81548160ff0219169083151502179055507fd70144180122a22001d1f367c5ca7d741d86d2130b26b4c5828419e8a457640083600160405161098892919061187d565b60405180910390a1610a0d565b600360ff168160040160029054906101000a900460ff1660ff1610610a0c5760018160040160006101000a81548160ff0219169083151502179055507fd70144180122a22001d1f367c5ca7d741d86d2130b26b4c5828419e8a4576400836000604051610a0392919061187d565b60405180910390a15b5b505050565b600060035490506000600260008381526020019081526020016000209050338160000160006101000a81548173ffffffffffffffffffffffffffffffffffffffff021916908373ffffffffffffffffffffffffffffffffffffffff1602179055508a8a826001019182610a86929190611a8c565b508888826002019182610a9a929190611a8c565b5086816003018190555060008160040160006101000a81548160ff0219169083151502179055508585826005019182610ad4929190611a8c565b508383826006019182610ae8929190611a8c565b507fb3ea4b5389ebdfde0fd6521ba6b05a830220cc72bedebcd0d0d44b1d916c21c482338686604051610b1e9493929190611b98565b60405180910390a160036000815480929190610b3990611bd8565b91905055505050505050505050505050565b6000606060006060806000806002600089815260200190815260200160002090508060000160009054906101000a900473ffffffffffffffffffffffffffffffffffffffff1681600101826003015483600501846006018560040160009054906101000a900460ff16848054610bc09061160d565b80601f0160208091040260200160405190810160405280929190818152602001828054610bec9061160d565b8015610c395780601f10610c0e57610100808354040283529160200191610c39565b820191906000526020600020905b815481529060010190602001808311610c1c57829003601f168201915b50505050509450828054610c4c9061160d565b80601f0160208091040260200160405190810160405280929190818152602001828054610c789061160d565b8015610cc55780601f10610c9a57610100808354040283529160200191610cc5565b820191906000526020600020905b815481529060010190602001808311610ca857829003601f168201915b50505050509250818054610cd89061160d565b80601f0160208091040260200160405190810160405280929190818152602001828054610d049061160d565b8015610d515780601f10610d2657610100808354040283529160200191610d51565b820191906000526020600020905b815481529060010190602001808311610d3457829003601f168201915b505050505091509650965096509650965096505091939550919395565b60035481565b60006002600083815260200190815260200160002090508060040160009054906101000a900460ff16610ddc576040517f08c379a0000000000000000000000000000000000000000000000000000000008152600401610dd390611c6c565b60405180910390fd5b600360ff168160040160019054906101000a900460ff1660ff161015610e37576040517f08c379a0000000000000000000000000000000000000000000000000000000008152600401610e2e90611cd8565b60405180910390fd5b8060030154341015610e7e576040517f08c379a0000000000000000000000000000000000000000000000000000000008152600401610e7590611d44565b60405180910390fd5b8060000160009054906101000a900473ffffffffffffffffffffffffffffffffffffffff1673ffffffffffffffffffffffffffffffffffffffff166108fc349081150290604051600060405180830381858888f19350505050158015610ee8573d6000803e3d6000fd5b507f9d3165becc99baec301813b1612049d03855703556b2fc11d56004c5cf09f5f38233604051610f1a929190611d64565b60405180910390a15050565b600160009054906101000a900473ffffffffffffffffffffffffffffffffffffffff1673ffffffffffffffffffffffffffffffffffffffff163373ffffffffffffffffffffffffffffffffffffffff1614610fb6576040517f08c379a0000000000000000000000000000000000000000000000000000000008152600401610fad90611dd9565b60405180910390fd5b60016000808373ffffffffffffffffffffffffffffffffffffffff1673ffffffffffffffffffffffffffffffffffffffff16815260200190815260200160002060006101000a81548160ff0219169083151502179055507fb251eb052afc73ffd02ffe85ad79990a8b3fed60d76dbc2fa2fdd7123dffd9148160405161103c91906115a8565b60405180910390a150565b600160009054906101000a900473ffffffffffffffffffffffffffffffffffffffff1681565b600381565b600080fd5b600080fd5b600073ffffffffffffffffffffffffffffffffffffffff82169050919050565b60006110a78261107c565b9050919050565b6110b78161109c565b81146110c257600080fd5b50565b6000813590506110d4816110ae565b92915050565b6000602082840312156110f0576110ef611072565b5b60006110fe848285016110c5565b91505092915050565b60008115159050919050565b61111c81611107565b82525050565b60006020820190506111376000830184611113565b92915050565b6000819050919050565b6111508161113d565b811461115b57600080fd5b50565b60008135905061116d81611147565b92915050565b60006020828403121561118957611188611072565b5b60006111978482850161115e565b91505092915050565b600060ff82169050919050565b6111b6816111a0565b82525050565b60006060820190506111d16000830186611113565b6111de60208301856111ad565b6111eb60408301846111ad565b949350505050565b6111fc8161109c565b82525050565b600081519050919050565b600082825260208201905092915050565b60005b8381101561123c578082015181840152602081019050611221565b60008484015250505050565b6000601f19601f8301169050919050565b600061126482611202565b61126e818561120d565b935061127e81856020860161121e565b61128781611248565b840191505092915050565b61129b8161113d565b82525050565b6000610120820190506112b7600083018c6111f3565b81810360208301526112c9818b611259565b905081810360408301526112dd818a611259565b90506112ec6060830189611292565b6112f96080830188611113565b61130660a08301876111ad565b61131360c08301866111ad565b81810360e08301526113258185611259565b905081810361010083015261133a8184611259565b90509a9950505050505050505050565b61135381611107565b811461135e57600080fd5b50565b6000813590506113708161134a565b92915050565b6000806040838503121561138d5761138c611072565b5b600061139b8582860161115e565b92505060206113ac85828601611361565b9150509250929050565b600080fd5b600080fd5b600080fd5b60008083601f8401126113db576113da6113b6565b5b8235905067ffffffffffffffff8111156113f8576113f76113bb565b5b602083019150836001820283011115611414576114136113c0565b5b9250929050565b600080600080600080600080600060a08a8c03121561143d5761143c611072565b5b60008a013567ffffffffffffffff81111561145b5761145a611077565b5b6114678c828d016113c5565b995099505060208a013567ffffffffffffffff81111561148a57611489611077565b5b6114968c828d016113c5565b975097505060406114a98c828d0161115e565b95505060608a013567ffffffffffffffff8111156114ca576114c9611077565b5b6114d68c828d016113c5565b945094505060808a013567ffffffffffffffff8111156114f9576114f8611077565b5b6115058c828d016113c5565b92509250509295985092959850929598565b600060c08201905061152c60008301896111f3565b818103602083015261153e8188611259565b905061154d6040830187611292565b818103606083015261155f8186611259565b905081810360808301526115738185611259565b905061158260a0830184611113565b979650505050505050565b60006020820190506115a26000830184611292565b92915050565b60006020820190506115bd60008301846111f3565b92915050565b60006020820190506115d860008301846111ad565b92915050565b7f4e487b7100000000000000000000000000000000000000000000000000000000600052602260045260246000fd5b6000600282049050600182168061162557607f821691505b602082108103611638576116376115de565b5b50919050565b7f4e6f742061206d656d6265720000000000000000000000000000000000000000600082015250565b6000611674600c8361120d565b915061167f8261163e565b602082019050919050565b600060208201905081810360008301526116a381611667565b9050919050565b7f506170657220616c726561647920766572696669656400000000000000000000600082015250565b60006116e060168361120d565b91506116eb826116aa565b602082019050919050565b6000602082019050818103600083015261170f816116d3565b9050919050565b7f416c726561647920766f74656400000000000000000000000000000000000000600082015250565b600061174c600d8361120d565b915061175782611716565b602082019050919050565b6000602082019050818103600083015261177b8161173f565b9050919050565b7f43616e6e6f7420766f7465206f6e206f776e2070617065720000000000000000600082015250565b60006117b860188361120d565b91506117c382611782565b602082019050919050565b600060208201905081810360008301526117e7816117ab565b9050919050565b7f4e487b7100000000000000000000000000000000000000000000000000000000600052601160045260246000fd5b6000611828826111a0565b915060ff820361183b5761183a6117ee565b5b600182019050919050565b600060608201905061185b6000830186611292565b61186860208301856111f3565b6118756040830184611113565b949350505050565b60006040820190506118926000830185611292565b61189f6020830184611113565b9392505050565b600082905092915050565b7f4e487b7100000000000000000000000000000000000000000000000000000000600052604160045260246000fd5b60008190508160005260206000209050919050565b60006020601f8301049050919050565b600082821b905092915050565b6000600883026119427fffffffffffffffffffffffffffffffffffffffffffffffffffffffffffffffff82611905565b61194c8683611905565b95508019841693508086168417925050509392505050565b6000819050919050565b600061198961198461197f8461113d565b611964565b61113d565b9050919050565b6000819050919050565b6119a38361196e565b6119b76119af82611990565b848454611912565b825550505050565b600090565b6119cc6119bf565b6119d781848461199a565b505050565b5b818110156119fb576119f06000826119c4565b6001810190506119dd565b5050565b601f821115611a4057611a11816118e0565b611a1a846118f5565b81016020851015611a29578190505b611a3d611a35856118f5565b8301826119dc565b50505b505050565b600082821c905092915050565b6000611a6360001984600802611a45565b1980831691505092915050565b6000611a7c8383611a52565b9150826002028217905092915050565b611a9683836118a6565b67ffffffffffffffff811115611aaf57611aae6118b1565b5b611ab9825461160d565b611ac48282856119ff565b6000601f831160018114611af35760008415611ae1578287013590505b611aeb8582611a70565b865550611b53565b601f198416611b01866118e0565b60005b82811015611b2957848901358255600182019150602085019450602081019050611b04565b86831015611b465784890135611b42601f891682611a52565b8355505b6001600288020188555050505b50505050505050565b82818337600083830152505050565b6000611b77838561120d565b9350611b84838584611b5c565b611b8d83611248565b840190509392505050565b6000606082019050611bad6000830187611292565b611bba60208301866111f3565b8181036040830152611bcd818486611b6b565b905095945050505050565b6000611be38261113d565b91507fffffffffffffffffffffffffffffffffffffffffffffffffffffffffffffffff8203611c1557611c146117ee565b5b600182019050919050565b7f5061706572206e6f742076657269666965640000000000000000000000000000600082015250565b6000611c5660128361120d565b9150611c6182611c20565b602082019050919050565b60006020820190508181036000830152611c8581611c49565b9050919050565b7f5061706572207761732072656a65637465640000000000000000000000000000600082015250565b6000611cc260128361120d565b9150611ccd82611c8c565b602082019050919050565b60006020820190508181036000830152611cf181611cb5565b9050919050565b7f496e73756666696369656e74207061796d656e74000000000000000000000000600082015250565b6000611d2e60148361120d565b9150611d3982611cf8565b602082019050919050565b60006020820190508181036000830152611d5d81611d21565b9050919050565b6000604082019050611d796000830185611292565b611d8660208301846111f3565b9392505050565b7f4e6f742061646d696e0000000000000000000000000000000000000000000000600082015250565b6000611dc360098361120d565b9150611dce82611d8d565b602082019050919050565b60006020820190508181036000830152611df281611db6565b905091905056fea2646970667358221220bd5e94147ca78828cc587ad22c73426d03603952bf65e296faa9beed1c00631664736f6c63430008130033",
  "linkReferences": {},
  "deployedLinkReferences": {}
}