{
  "_format": "hh-sol-artifact-1",
  "contractName": "SimpleScholarDAO1",
  "sourceName": "contracts/scholar2.sol",
  "abi": [
    {
      "inputs": [],
      "stateMutability": "nonpayable",
      "type": "constructor"
    },
    {
      "anonymous": false,
      "inputs": [
        {
          "indexed": false,
          "internalType": "uint256",
          "name": "paperId",
          "type": "uint256"
        },
        {
          "indexed": false,
          "internalType": "address",
          "name": "buyer",
          "type": "address"
        }
      ],
      "name": "AccessPurchased",
      "type": "event"
    },
    {
      "anonymous": false,
      "inputs": [
        {
          "indexed": false,
          "internalType": "address",
          "name": "member",
          "type": "address"
        }
      ],
      "name": "MemberAdded",
      "type": "event"
    },
    {
      "anonymous": false,
      "inputs": [
        {
          "indexed": false,
          "internalType": "uint256",
          "name": "oldMinVotes",
          "type": "uint256"
        },
        {
          "indexed": false,
          "internalType": "uint256",
          "name": "newMinVotes",
          "type": "uint256"
        }
      ],
      "name": "MinRequiredVotesChanged",
      "type": "event"
    },
    {
      "anonymous": false,
      "inputs": [
        {
          "indexed": false,
          "internalType": "uint256",
          "name": "oldPaperId",
          "type": "uint256"
        },
        {
          "indexed": false,
          "internalType": "uint256",
          "name": "newPaperId",
          "type": "uint256"
        }
      ],
      "name": "PaperResubmitted",
      "type": "event"
    },
    {
      "anonymous": false,
      "inputs": [
        {
          "indexed": false,
          "internalType": "uint256",
          "name": "paperId",
          "type": "uint256"
        },
        {
          "indexed": false,
          "internalType": "address",
          "name": "author",
          "type": "address"
        },
        {
          "indexed": false,
          "internalType": "string",
          "name": "researchField",
          "type": "string"
        }
      ],
      "name": "PaperSubmitted",
      "type": "event"
    },
    {
      "anonymous": false,
      "inputs": [
        {
          "indexed": false,
          "internalType": "uint256",
          "name": "paperId",
          "type": "uint256"
        },
        {
          "indexed": false,
          "internalType": "bool",
          "name": "approved",
          "type": "bool"
        }
      ],
      "name": "PaperVerified",
      "type": "event"
    },
    {
      "anonymous": false,
      "inputs": [
        {
          "indexed": false,
          "internalType": "uint256",
          "name": "paperId",
          "type": "uint256"
        },
        {
          "indexed": false,
          "internalType": "address",
          "name": "author",
          "type": "address"
        },
        {
          "indexed": false,
          "internalType": "uint256",
          "name": "amount",
          "type": "uint256"
        }
      ],
      "name": "StakeReturned",
      "type": "event"
    },
    {
      "anonymous": false,
      "inputs": [
        {
          "indexed": false,
          "internalType": "uint256",
          "name": "oldAmount",
          "type": "uint256"
        },
        {
          "indexed": false,
          "internalType": "uint256",
          "name": "newAmount",
          "type": "uint256"
        }
      ],
      "name": "StakingAmountChanged",
      "type": "event"
    },
    {
      "anonymous": false,
      "inputs": [
        {
          "indexed": false,
          "internalType": "uint256",
          "name": "paperId",
          "type": "uint256"
        },
        {
          "indexed": false,
          "internalType": "address",
          "name": "member",
          "type": "address"
        },
        {
          "indexed": false,
          "internalType": "bool",
          "name": "approved",
          "type": "bool"
        }
      ],
      "name": "VerificationVote",
      "type": "event"
    },
    {
      "anonymous": false,
      "inputs": [
        {
          "indexed": false,
          "internalType": "uint256",
          "name": "paperId",
          "type": "uint256"
        },
        {
          "indexed": false,
          "internalType": "address",
          "name": "voter",
          "type": "address"
        },
        {
          "indexed": false,
          "internalType": "string",
          "name": "comment",
          "type": "string"
        }
      ],
      "name": "VoterComment",
      "type": "event"
    },
    {
      "inputs": [
        {
          "internalType": "address",
          "name": "_member",
          "type": "address"
        }
      ],
      "name": "addMember",
      "outputs": [],
      "stateMutability": "nonpayable",
      "type": "function"
    },
    {
      "inputs": [],
      "name": "admin",
      "outputs": [
        {
          "internalType": "address",
          "name": "",
          "type": "address"
        }
      ],
      "stateMutability": "view",
      "type": "function"
    },
    {
      "inputs": [
        {
          "internalType": "uint256",
          "name": "_paperId",
          "type": "uint256"
        }
      ],
      "name": "claimStake",
      "outputs": [],
      "stateMutability": "nonpayable",
      "type": "function"
    },
    {
      "inputs": [
        {
          "internalType": "uint256",
          "name": "_paperId",
          "type": "uint256"
        }
      ],
      "name": "getLatestRevision",
      "outputs": [
        {
          "internalType": "uint256",
          "name": "",
          "type": "uint256"
        }
      ],
      "stateMutability": "view",
      "type": "function"
    },
    {
      "inputs": [
        {
          "internalType": "uint256",
          "name": "_index",
          "type": "uint256"
        }
      ],
      "name": "getMemberByIndex",
      "outputs": [
        {
          "internalType": "address",
          "name": "",
          "type": "address"
        }
      ],
      "stateMutability": "view",
      "type": "function"
    },
    {
      "inputs": [
        {
          "internalType": "uint256",
          "name": "_paperId",
          "type": "uint256"
        },
        {
          "internalType": "address",
          "name": "_voter",
          "type": "address"
        }
      ],
      "name": "getPaperComment",
      "outputs": [
        {
          "internalType": "string",
          "name": "",
          "type": "string"
        }
      ],
      "stateMutability": "view",
      "type": "function"
    },
    {
      "inputs": [
        {
          "internalType": "uint256",
          "name": "_paperId",
          "type": "uint256"
        }
      ],
      "name": "getPaperDetails",
      "outputs": [
        {
          "internalType": "address",
          "name": "author",
          "type": "address"
        },
        {
          "internalType": "string",
          "name": "title",
          "type": "string"
        },
        {
          "internalType": "uint256",
          "name": "price",
          "type": "uint256"
        },
        {
          "internalType": "string",
          "name": "teamMembers",
          "type": "string"
        },
        {
          "internalType": "string",
          "name": "researchField",
          "type": "string"
        },
        {
          "internalType": "bool",
          "name": "isApproved",
          "type": "bool"
        },
        {
          "internalType": "bool",
          "name": "isRevision",
          "type": "bool"
        },
        {
          "internalType": "uint256",
          "name": "previousVersion",
          "type": "uint256"
        }
      ],
      "stateMutability": "view",
      "type": "function"
    },
    {
      "inputs": [
        {
          "internalType": "uint256",
          "name": "_paperId",
          "type": "uint256"
        }
      ],
      "name": "getPaperRevisionHistory",
      "outputs": [
        {
          "internalType": "uint256[]",
          "name": "",
          "type": "uint256[]"
        }
      ],
      "stateMutability": "view",
      "type": "function"
    },
    {
      "inputs": [
        {
          "internalType": "uint256",
          "name": "_paperId",
          "type": "uint256"
        }
      ],
      "name": "getPaperStatus",
      "outputs": [
        {
          "internalType": "bool",
          "name": "isDecided",
          "type": "bool"
        },
        {
          "internalType": "bool",
          "name": "isApproved",
          "type": "bool"
        },
        {
          "internalType": "uint8",
          "name": "approvals",
          "type": "uint8"
        },
        {
          "internalType": "uint8",
          "name": "rejections",
          "type": "uint8"
        }
      ],
      "stateMutability": "view",
      "type": "function"
    },
    {
      "inputs": [
        {
          "internalType": "uint256",
          "name": "_paperId",
          "type": "uint256"
        }
      ],
      "name": "getPaperVoters",
      "outputs": [
        {
          "internalType": "address[]",
          "name": "",
          "type": "address[]"
        }
      ],
      "stateMutability": "view",
      "type": "function"
    },
    {
      "inputs": [
        {
          "internalType": "address",
          "name": "",
          "type": "address"
        }
      ],
      "name": "members",
      "outputs": [
        {
          "internalType": "bool",
          "name": "",
          "type": "bool"
        }
      ],
      "stateMutability": "view",
      "type": "function"
    },
    {
      "inputs": [],
      "name": "minRequiredVotes",
      "outputs": [
        {
          "internalType": "uint256",
          "name": "",
          "type": "uint256"
        }
      ],
      "stateMutability": "view",
      "type": "function"
    },
    {
      "inputs": [],
      "name": "paperCount",
      "outputs": [
        {
          "internalType": "uint256",
          "name": "",
          "type": "uint256"
        }
      ],
      "stateMutability": "view",
      "type": "function"
    },
    {
      "inputs": [
        {
          "internalType": "uint256",
          "name": "",
          "type": "uint256"
        }
      ],
      "name": "paperStakes",
      "outputs": [
        {
          "internalType": "uint256",
          "name": "",
          "type": "uint256"
        }
      ],
      "stateMutability": "view",
      "type": "function"
    },
    {
      "inputs": [
        {
          "internalType": "uint256",
          "name": "",
          "type": "uint256"
        }
      ],
      "name": "papers",
      "outputs": [
        {
          "internalType": "address",
          "name": "author",
          "type": "address"
        },
        {
          "internalType": "string",
          "name": "title",
          "type": "string"
        },
        {
          "internalType": "string",
          "name": "contentHash",
          "type": "string"
        },
        {
          "internalType": "uint256",
          "name": "accessPrice",
          "type": "uint256"
        },
        {
          "internalType": "bool",
          "name": "decided",
          "type": "bool"
        },
        {
          "internalType": "bool",
          "name": "approved",
          "type": "bool"
        },
        {
          "internalType": "uint8",
          "name": "approvalCount",
          "type": "uint8"
        },
        {
          "internalType": "uint8",
          "name": "rejectionCount",
          "type": "uint8"
        },
        {
          "internalType": "string",
          "name": "teamMembers",
          "type": "string"
        },
        {
          "internalType": "string",
          "name": "researchField",
          "type": "string"
        },
        {
          "internalType": "bool",
          "name": "isRevision",
          "type": "bool"
        },
        {
          "internalType": "uint256",
          "name": "previousVersion",
          "type": "uint256"
        }
      ],
      "stateMutability": "view",
      "type": "function"
    },
    {
      "inputs": [
        {
          "internalType": "uint256",
          "name": "_paperId",
          "type": "uint256"
        }
      ],
      "name": "purchaseAccess",
      "outputs": [],
      "stateMutability": "payable",
      "type": "function"
    },
    {
      "inputs": [
        {
          "internalType": "uint256",
          "name": "_rejectedPaperId",
          "type": "uint256"
        },
        {
          "internalType": "string",
          "name": "_title",
          "type": "string"
        },
        {
          "internalType": "string",
          "name": "_contentHash",
          "type": "string"
        },
        {
          "internalType": "uint256",
          "name": "_price",
          "type": "uint256"
        },
        {
          "internalType": "string",
          "name": "_teamMembers",
          "type": "string"
        },
        {
          "internalType": "string",
          "name": "_researchField",
          "type": "string"
        }
      ],
      "name": "resubmitPaper",
      "outputs": [
        {
          "internalType": "uint256",
          "name": "newPaperId",
          "type": "uint256"
        }
      ],
      "stateMutability": "nonpayable",
      "type": "function"
    },
    {
      "inputs": [
        {
          "internalType": "uint256",
          "name": "_newMinVotes",
          "type": "uint256"
        }
      ],
      "name": "setMinRequiredVotes",
      "outputs": [],
      "stateMutability": "nonpayable",
      "type": "function"
    },
    {
      "inputs": [
        {
          "internalType": "uint256",
          "name": "_newAmount",
          "type": "uint256"
        }
      ],
      "name": "setStakingAmount",
      "outputs": [],
      "stateMutability": "nonpayable",
      "type": "function"
    },
    {
      "inputs": [
        {
          "internalType": "uint256",
          "name": "",
          "type": "uint256"
        }
      ],
      "name": "stakeReturned",
      "outputs": [
        {
          "internalType": "bool",
          "name": "",
          "type": "bool"
        }
      ],
      "stateMutability": "view",
      "type": "function"
    },
    {
      "inputs": [],
      "name": "stakingAmount",
      "outputs": [
        {
          "internalType": "uint256",
          "name": "",
          "type": "uint256"
        }
      ],
      "stateMutability": "view",
      "type": "function"
    },
    {
      "inputs": [
        {
          "internalType": "string",
          "name": "_title",
          "type": "string"
        },
        {
          "internalType": "string",
          "name": "_contentHash",
          "type": "string"
        },
        {
          "internalType": "uint256",
          "name": "_price",
          "type": "uint256"
        },
        {
          "internalType": "string",
          "name": "_teamMembers",
          "type": "string"
        },
        {
          "internalType": "string",
          "name": "_researchField",
          "type": "string"
        }
      ],
      "name": "submitPaper",
      "outputs": [],
      "stateMutability": "payable",
      "type": "function"
    },
    {
      "inputs": [],
      "name": "totalMembers",
      "outputs": [
        {
          "internalType": "uint256",
          "name": "",
          "type": "uint256"
        }
      ],
      "stateMutability": "view",
      "type": "function"
    },
    {
      "inputs": [
        {
          "internalType": "uint256",
          "name": "_paperId",
          "type": "uint256"
        },
        {
          "internalType": "bool",
          "name": "_approve",
          "type": "bool"
        },
        {
          "internalType": "string",
          "name": "_comment",
          "type": "string"
        }
      ],
      "name": "voteOnPaper",
      "outputs": [],
      "stateMutability": "nonpayable",
      "type": "function"
    }
  ],
  "bytecode": "0x6080604052600160035566b1a2bc2ec50000600455600360075534801561002557600080fd5b5033600260006101000a81548173ffffffffffffffffffffffffffffffffffffffff021916908373ffffffffffffffffffffffffffffffffffffffff16021790555060016000803373ffffffffffffffffffffffffffffffffffffffff1673ffffffffffffffffffffffffffffffffffffffff16815260200190815260200160002060006101000a81548160ff021916908315150217905550336001600080815260200190815260200160002060006101000a81548173ffffffffffffffffffffffffffffffffffffffff021916908373ffffffffffffffffffffffffffffffffffffffff160217905550613cea8061011f6000396000f3fe60806040526004361061014b5760003560e01c80638bf7526e116100b6578063ca6d56dc1161006f578063ca6d56dc146104e7578063de126e2a14610510578063e2e2595a1461054d578063ece0b2671461058a578063ed561780146105c7578063f851a440146105f25761014b565b80638bf7526e146103cd57806393df428c14610411578063a56c2cb91461043a578063b658adfc14610465578063b91d0a2f1461048e578063bce73b45146104aa5761014b565b806345e752391161010857806345e75239146102995780635740fab6146102d65780635e775a2714610313578063739a3e021461035b57806376e925591461038657806383d2076a146103b15761014b565b806308ae4b0c14610150578063161e59731461018d57806325c2b237146101ca57806329288cef1461020a5780633f2308721461024757806344c7d6ef14610270575b600080fd5b34801561015c57600080fd5b506101776004803603810190610172919061253f565b61061d565b6040516101849190612587565b60405180910390f35b34801561019957600080fd5b506101b460048036038101906101af91906125d8565b61063d565b6040516101c19190612614565b60405180910390f35b3480156101d657600080fd5b506101f160048036038101906101ec91906125d8565b6106bf565b604051610201949392919061264b565b60405180910390f35b34801561021657600080fd5b50610231600480360381019061022c91906125d8565b610734565b60405161023e919061274e565b60405180910390f35b34801561025357600080fd5b5061026e600480360381019061026991906125d8565b61091a565b005b34801561027c57600080fd5b50610297600480360381019061029291906125d8565b6109f5565b005b3480156102a557600080fd5b506102c060048036038101906102bb9190612770565b610c87565b6040516102cd9190612840565b60405180910390f35b3480156102e257600080fd5b506102fd60048036038101906102f891906128c7565b610d6d565b60405161030a9190612614565b60405180910390f35b34801561031f57600080fd5b5061033a600480360381019061033591906125d8565b61113d565b6040516103529c9b9a999897969594939291906129e6565b60405180910390f35b34801561036757600080fd5b5061037061141e565b60405161037d9190612614565b60405180910390f35b34801561039257600080fd5b5061039b611424565b6040516103a89190612614565b60405180910390f35b6103cb60048036038101906103c69190612abc565b61142a565b005b3480156103d957600080fd5b506103f460048036038101906103ef91906125d8565b611630565b604051610408989796959493929190612bb8565b60405180910390f35b34801561041d57600080fd5b50610438600480360381019061043391906125d8565b611873565b005b34801561044657600080fd5b5061044f611990565b60405161045c9190612614565b60405180910390f35b34801561047157600080fd5b5061048c60048036038101906104879190612c77565b611996565b005b6104a860048036038101906104a391906125d8565b611eef565b005b3480156104b657600080fd5b506104d160048036038101906104cc91906125d8565b612097565b6040516104de9190612ceb565b60405180910390f35b3480156104f357600080fd5b5061050e6004803603810190610509919061253f565b612118565b005b34801561051c57600080fd5b50610537600480360381019061053291906125d8565b612331565b6040516105449190612587565b60405180910390f35b34801561055957600080fd5b50610574600480360381019061056f91906125d8565b612351565b6040516105819190612614565b60405180910390f35b34801561059657600080fd5b506105b160048036038101906105ac91906125d8565b612369565b6040516105be9190612dc4565b60405180910390f35b3480156105d357600080fd5b506105dc6124ab565b6040516105e99190612614565b60405180910390f35b3480156105fe57600080fd5b506106076124b1565b6040516106149190612ceb565b60405180910390f35b60006020528060005260406000206000915054906101000a900460ff1681565b60008082905060005b6009548110156106b5576008600082815260200190815260200160002060070160009054906101000a900460ff1680156106955750816008600083815260200190815260200160002060080154145b156106a257809150600090505b80806106ad90612e15565b915050610646565b5080915050919050565b60008060008060006008600087815260200190815260200160002090508060040160009054906101000a900460ff168160040160019054906101000a900460ff168260040160029054906101000a900460ff168360040160039054906101000a900460ff169450945094509450509193509193565b606060006008600084815260200190815260200160002090506000805b6003548110156107df57600061076682612097565b90508360090160008273ffffffffffffffffffffffffffffffffffffffff1673ffffffffffffffffffffffffffffffffffffffff16815260200190815260200160002060009054906101000a900460ff16156107cb5782806107c790612e15565b9350505b5080806107d790612e15565b915050610751565b5060008167ffffffffffffffff8111156107fc576107fb612e5d565b5b60405190808252806020026020018201604052801561082a5781602001602082028036833780820191505090505b5090506000805b60035481101561090d57600061084682612097565b90508560090160008273ffffffffffffffffffffffffffffffffffffffff1673ffffffffffffffffffffffffffffffffffffffff16815260200190815260200160002060009054906101000a900460ff16156108f957808484815181106108b0576108af612e8c565b5b602002602001019073ffffffffffffffffffffffffffffffffffffffff16908173ffffffffffffffffffffffffffffffffffffffff168152505082806108f590612e15565b9350505b50808061090590612e15565b915050610831565b5081945050505050919050565b600260009054906101000a900473ffffffffffffffffffffffffffffffffffffffff1673ffffffffffffffffffffffffffffffffffffffff163373ffffffffffffffffffffffffffffffffffffffff16146109aa576040517f08c379a00000000000000000000000000000000000000000000000000000000081526004016109a190612f07565b60405180910390fd5b60006004549050816004819055507f9b80b0e663d4ad3b436d74a19943bf001847cb4a899fee0fe43ea97d8065528881836040516109e9929190612f27565b60405180910390a15050565b60006008600083815260200190815260200160002090503373ffffffffffffffffffffffffffffffffffffffff168160000160009054906101000a900473ffffffffffffffffffffffffffffffffffffffff1673ffffffffffffffffffffffffffffffffffffffff1614610a9e576040517f08c379a0000000000000000000000000000000000000000000000000000000008152600401610a9590612f9c565b60405180910390fd5b600115158160040160009054906101000a900460ff16151514610af6576040517f08c379a0000000000000000000000000000000000000000000000000000000008152600401610aed90613008565b60405180910390fd5b600115158160040160019054906101000a900460ff16151514610b4e576040517f08c379a0000000000000000000000000000000000000000000000000000000008152600401610b4590613074565b60405180910390fd5b6006600083815260200190815260200160002060009054906101000a900460ff1615610baf576040517f08c379a0000000000000000000000000000000000000000000000000000000008152600401610ba6906130e0565b60405180910390fd5b60016006600084815260200190815260200160002060006101000a81548160ff0219169083151502179055503373ffffffffffffffffffffffffffffffffffffffff166108fc60056000858152602001908152602001600020549081150290604051600060405180830381858888f19350505050158015610c34573d6000803e3d6000fd5b507f0d736493ece6b7d52e34dd028d3d9d0aa75de37339f3da6b3514e70e231ed2a582336005600086815260200190815260200160002054604051610c7b93929190613100565b60405180910390a15050565b606060086000848152602001908152602001600020600a0160008373ffffffffffffffffffffffffffffffffffffffff1673ffffffffffffffffffffffffffffffffffffffff1681526020019081526020016000208054610ce790613166565b80601f0160208091040260200160405190810160405280929190818152602001828054610d1390613166565b8015610d605780601f10610d3557610100808354040283529160200191610d60565b820191906000526020600020905b815481529060010190602001808311610d4357829003601f168201915b5050505050905092915050565b600080600860008d815260200190815260200160002090503373ffffffffffffffffffffffffffffffffffffffff168160000160009054906101000a900473ffffffffffffffffffffffffffffffffffffffff1673ffffffffffffffffffffffffffffffffffffffff1614610e17576040517f08c379a0000000000000000000000000000000000000000000000000000000008152600401610e0e90613209565b60405180910390fd5b600115158160040160009054906101000a900460ff16151514610e6f576040517f08c379a0000000000000000000000000000000000000000000000000000000008152600401610e6690613275565b60405180910390fd5b600015158160040160019054906101000a900460ff16151514610ec7576040517f08c379a0000000000000000000000000000000000000000000000000000000008152600401610ebe906132e1565b60405180910390fd5b600660008d815260200190815260200160002060009054906101000a900460ff1615610f28576040517f08c379a0000000000000000000000000000000000000000000000000000000008152600401610f1f90613373565b60405180910390fd5b60095491506000600860008481526020019081526020016000209050338160000160006101000a81548173ffffffffffffffffffffffffffffffffffffffff021916908373ffffffffffffffffffffffffffffffffffffffff1602179055508b8b826001019182610f9a92919061354a565b508989826002019182610fae92919061354a565b5087816003018190555060008160040160006101000a81548160ff02191690831515021790555060008160040160016101000a81548160ff021916908315150217905550868682600501918261100592919061354a565b50848482600601918261101992919061354a565b5060018160070160006101000a81548160ff0219169083151502179055508c8160080181905550600560008e81526020019081526020016000205460056000858152602001908152602001600020819055506000600560008f8152602001908152602001600020819055506001600660008f815260200190815260200160002060006101000a81548160ff02191690831515021790555060006006600085815260200190815260200160002060006101000a81548160ff0219169083151502179055507f54e058b2243c405058f96565a6e75bd6d41f24b17102091682d6bad4ca5610d48d8460405161110d929190612f27565b60405180910390a16009600081548092919061112890612e15565b919050555050509a9950505050505050505050565b60086020528060005260406000206000915090508060000160009054906101000a900473ffffffffffffffffffffffffffffffffffffffff169080600101805461118690613166565b80601f01602080910402602001604051908101604052809291908181526020018280546111b290613166565b80156111ff5780601f106111d4576101008083540402835291602001916111ff565b820191906000526020600020905b8154815290600101906020018083116111e257829003601f168201915b50505050509080600201805461121490613166565b80601f016020809104026020016040519081016040528092919081815260200182805461124090613166565b801561128d5780601f106112625761010080835404028352916020019161128d565b820191906000526020600020905b81548152906001019060200180831161127057829003601f168201915b5050505050908060030154908060040160009054906101000a900460ff16908060040160019054906101000a900460ff16908060040160029054906101000a900460ff16908060040160039054906101000a900460ff16908060050180546112f490613166565b80601f016020809104026020016040519081016040528092919081815260200182805461132090613166565b801561136d5780601f106113425761010080835404028352916020019161136d565b820191906000526020600020905b81548152906001019060200180831161135057829003601f168201915b50505050509080600601805461138290613166565b80601f01602080910402602001604051908101604052809291908181526020018280546113ae90613166565b80156113fb5780601f106113d0576101008083540402835291602001916113fb565b820191906000526020600020905b8154815290600101906020018083116113de57829003601f168201915b5050505050908060070160009054906101000a900460ff1690806008015490508c565b60045481565b60035481565b60045434101561146f576040517f08c379a000000000000000000000000000000000000000000000000000000000815260040161146690613666565b60405180910390fd5b600060095490506000600860008381526020019081526020016000209050338160000160006101000a81548173ffffffffffffffffffffffffffffffffffffffff021916908373ffffffffffffffffffffffffffffffffffffffff1602179055508a8a8260010191826114e392919061354a565b5088888260020191826114f792919061354a565b5086816003018190555060008160040160006101000a81548160ff02191690831515021790555060008160040160016101000a81548160ff021916908315150217905550858582600501918261154e92919061354a565b50838382600601918261156292919061354a565b5060008160070160006101000a81548160ff0219169083151502179055506000816008018190555034600560008481526020019081526020016000208190555060006006600084815260200190815260200160002060006101000a81548160ff0219169083151502179055507fb3ea4b5389ebdfde0fd6521ba6b05a830220cc72bedebcd0d0d44b1d916c21c48233868660405161160394939291906136c2565b60405180910390a16009600081548092919061161e90612e15565b91905055505050505050505050505050565b600060606000606080600080600080600860008b815260200190815260200160002090508060000160009054906101000a900473ffffffffffffffffffffffffffffffffffffffff1681600101826003015483600501846006018560040160019054906101000a900460ff168660070160009054906101000a900460ff1687600801548680546116bf90613166565b80601f01602080910402602001604051908101604052809291908181526020018280546116eb90613166565b80156117385780601f1061170d57610100808354040283529160200191611738565b820191906000526020600020905b81548152906001019060200180831161171b57829003601f168201915b5050505050965084805461174b90613166565b80601f016020809104026020016040519081016040528092919081815260200182805461177790613166565b80156117c45780601f10611799576101008083540402835291602001916117c4565b820191906000526020600020905b8154815290600101906020018083116117a757829003601f168201915b505050505094508380546117d790613166565b80601f016020809104026020016040519081016040528092919081815260200182805461180390613166565b80156118505780601f1061182557610100808354040283529160200191611850565b820191906000526020600020905b81548152906001019060200180831161183357829003601f168201915b505050505093509850985098509850985098509850985050919395975091939597565b600260009054906101000a900473ffffffffffffffffffffffffffffffffffffffff1673ffffffffffffffffffffffffffffffffffffffff163373ffffffffffffffffffffffffffffffffffffffff1614611903576040517f08c379a00000000000000000000000000000000000000000000000000000000081526004016118fa90612f07565b60405180910390fd5b60008111611946576040517f08c379a000000000000000000000000000000000000000000000000000000000815260040161193d9061374e565b60405180910390fd5b60006007549050816007819055507e6e92f39f1a5a73bfee3d744c73ee7b41b82bc3584d4687b7c4712efec821588183604051611984929190612f27565b60405180910390a15050565b60095481565b6000803373ffffffffffffffffffffffffffffffffffffffff1673ffffffffffffffffffffffffffffffffffffffff16815260200190815260200160002060009054906101000a900460ff16611a21576040517f08c379a0000000000000000000000000000000000000000000000000000000008152600401611a18906137ba565b60405180910390fd5b60006008600086815260200190815260200160002090508060040160009054906101000a900460ff1615611a8a576040517f08c379a0000000000000000000000000000000000000000000000000000000008152600401611a8190613826565b60405180910390fd5b8060090160003373ffffffffffffffffffffffffffffffffffffffff1673ffffffffffffffffffffffffffffffffffffffff16815260200190815260200160002060009054906101000a900460ff1615611b19576040517f08c379a0000000000000000000000000000000000000000000000000000000008152600401611b1090613892565b60405180910390fd5b3373ffffffffffffffffffffffffffffffffffffffff168160000160009054906101000a900473ffffffffffffffffffffffffffffffffffffffff1673ffffffffffffffffffffffffffffffffffffffff1603611bab576040517f08c379a0000000000000000000000000000000000000000000000000000000008152600401611ba2906138fe565b60405180910390fd5b60018160090160003373ffffffffffffffffffffffffffffffffffffffff1673ffffffffffffffffffffffffffffffffffffffff16815260200190815260200160002060006101000a81548160ff021916908315150217905550828282600a0160003373ffffffffffffffffffffffffffffffffffffffff1673ffffffffffffffffffffffffffffffffffffffff1681526020019081526020016000209182611c5592919061354a565b508315611c9b5780600401600281819054906101000a900460ff1680929190611c7d9061391e565b91906101000a81548160ff021916908360ff16021790555050611cd6565b80600401600381819054906101000a900460ff1680929190611cbc9061391e565b91906101000a81548160ff021916908360ff160217905550505b7f3718917f25ba08f882bec3f1b29e583bf7d953e069bd09538aa37631587e7ce4853386604051611d0993929190613947565b60405180910390a17f0b964f54fab911813abc1e1d7b4d94f9307b89d38cbbd3666cb5ab97dcc1926e85338585604051611d4694939291906136c2565b60405180910390a160008160040160039054906101000a900460ff168260040160029054906101000a900460ff16611d7e919061397e565b60ff1690506007548110611ee75760646050600354611d9d91906139b3565b611da79190613a24565b8260040160029054906101000a900460ff1660ff1610611e3a5760018260040160006101000a81548160ff02191690831515021790555060018260040160016101000a81548160ff0219169083151502179055507fd70144180122a22001d1f367c5ca7d741d86d2130b26b4c5828419e8a4576400866001604051611e2d929190613a55565b60405180910390a1611ee6565b60646014600354611e4b91906139b3565b611e559190613a24565b8260040160039054906101000a900460ff1660ff161115611ee55760018260040160006101000a81548160ff02191690831515021790555060008260040160016101000a81548160ff0219169083151502179055507fd70144180122a22001d1f367c5ca7d741d86d2130b26b4c5828419e8a4576400866000604051611edc929190613a55565b60405180910390a15b5b5b505050505050565b60006008600083815260200190815260200160002090508060040160009054906101000a900460ff16611f57576040517f08c379a0000000000000000000000000000000000000000000000000000000008152600401611f4e90613aca565b60405180910390fd5b8060040160019054906101000a900460ff16611fa8576040517f08c379a0000000000000000000000000000000000000000000000000000000008152600401611f9f90613074565b60405180910390fd5b8060030154341015611fef576040517f08c379a0000000000000000000000000000000000000000000000000000000008152600401611fe690613b36565b60405180910390fd5b8060000160009054906101000a900473ffffffffffffffffffffffffffffffffffffffff1673ffffffffffffffffffffffffffffffffffffffff166108fc349081150290604051600060405180830381858888f19350505050158015612059573d6000803e3d6000fd5b507f9d3165becc99baec301813b1612049d03855703556b2fc11d56004c5cf09f5f3823360405161208b929190613b56565b60405180910390a15050565b600060035482106120dd576040517f08c379a00000000000000000000000000000000000000000000000000000000081526004016120d490613bcb565b60405180910390fd5b6001600083815260200190815260200160002060009054906101000a900473ffffffffffffffffffffffffffffffffffffffff169050919050565b600260009054906101000a900473ffffffffffffffffffffffffffffffffffffffff1673ffffffffffffffffffffffffffffffffffffffff163373ffffffffffffffffffffffffffffffffffffffff16146121a8576040517f08c379a000000000000000000000000000000000000000000000000000000000815260040161219f90612f07565b60405180910390fd5b6000808273ffffffffffffffffffffffffffffffffffffffff1673ffffffffffffffffffffffffffffffffffffffff16815260200190815260200160002060009054906101000a900460ff1615612234576040517f08c379a000000000000000000000000000000000000000000000000000000000815260040161222b90613c37565b60405180910390fd5b60016000808373ffffffffffffffffffffffffffffffffffffffff1673ffffffffffffffffffffffffffffffffffffffff16815260200190815260200160002060006101000a81548160ff0219169083151502179055508060016000600354815260200190815260200160002060006101000a81548173ffffffffffffffffffffffffffffffffffffffff021916908373ffffffffffffffffffffffffffffffffffffffff160217905550600360008154809291906122f290612e15565b91905055507fb251eb052afc73ffd02ffe85ad79990a8b3fed60d76dbc2fa2fdd7123dffd914816040516123269190612ceb565b60405180910390a150565b60066020528060005260406000206000915054906101000a900460ff1681565b60056020528060005260406000206000915090505481565b60606000808390505b6008600082815260200190815260200160002060070160009054906101000a900460ff16156123c75781806123a690612e15565b92505060086000828152602001908152602001600020600801549050612372565b60006001836123d69190613c57565b67ffffffffffffffff8111156123ef576123ee612e5d565b5b60405190808252806020026020018201604052801561241d5781602001602082028036833780820191505090505b50905084915060008390505b600081111561247e578282828151811061244657612445612e8c565b5b60200260200101818152505060086000848152602001908152602001600020600801549250808061247690613c8b565b915050612429565b50818160008151811061249457612493612e8c565b5b602002602001018181525050809350505050919050565b60075481565b600260009054906101000a900473ffffffffffffffffffffffffffffffffffffffff1681565b600080fd5b600080fd5b600073ffffffffffffffffffffffffffffffffffffffff82169050919050565b600061250c826124e1565b9050919050565b61251c81612501565b811461252757600080fd5b50565b60008135905061253981612513565b92915050565b600060208284031215612555576125546124d7565b5b60006125638482850161252a565b91505092915050565b60008115159050919050565b6125818161256c565b82525050565b600060208201905061259c6000830184612578565b92915050565b6000819050919050565b6125b5816125a2565b81146125c057600080fd5b50565b6000813590506125d2816125ac565b92915050565b6000602082840312156125ee576125ed6124d7565b5b60006125fc848285016125c3565b91505092915050565b61260e816125a2565b82525050565b60006020820190506126296000830184612605565b92915050565b600060ff82169050919050565b6126458161262f565b82525050565b60006080820190506126606000830187612578565b61266d6020830186612578565b61267a604083018561263c565b612687606083018461263c565b95945050505050565b600081519050919050565b600082825260208201905092915050565b6000819050602082019050919050565b6126c581612501565b82525050565b60006126d783836126bc565b60208301905092915050565b6000602082019050919050565b60006126fb82612690565b612705818561269b565b9350612710836126ac565b8060005b8381101561274157815161272888826126cb565b9750612733836126e3565b925050600181019050612714565b5085935050505092915050565b6000602082019050818103600083015261276881846126f0565b905092915050565b60008060408385031215612787576127866124d7565b5b6000612795858286016125c3565b92505060206127a68582860161252a565b9150509250929050565b600081519050919050565b600082825260208201905092915050565b60005b838110156127ea5780820151818401526020810190506127cf565b60008484015250505050565b6000601f19601f8301169050919050565b6000612812826127b0565b61281c81856127bb565b935061282c8185602086016127cc565b612835816127f6565b840191505092915050565b6000602082019050818103600083015261285a8184612807565b905092915050565b600080fd5b600080fd5b600080fd5b60008083601f84011261288757612886612862565b5b8235905067ffffffffffffffff8111156128a4576128a3612867565b5b6020830191508360018202830111156128c0576128bf61286c565b5b9250929050565b60008060008060008060008060008060c08b8d0312156128ea576128e96124d7565b5b60006128f88d828e016125c3565b9a505060208b013567ffffffffffffffff811115612919576129186124dc565b5b6129258d828e01612871565b995099505060408b013567ffffffffffffffff811115612948576129476124dc565b5b6129548d828e01612871565b975097505060606129678d828e016125c3565b95505060808b013567ffffffffffffffff811115612988576129876124dc565b5b6129948d828e01612871565b945094505060a08b013567ffffffffffffffff8111156129b7576129b66124dc565b5b6129c38d828e01612871565b92509250509295989b9194979a5092959850565b6129e081612501565b82525050565b6000610180820190506129fc600083018f6129d7565b8181036020830152612a0e818e612807565b90508181036040830152612a22818d612807565b9050612a31606083018c612605565b612a3e608083018b612578565b612a4b60a083018a612578565b612a5860c083018961263c565b612a6560e083018861263c565b818103610100830152612a788187612807565b9050818103610120830152612a8d8186612807565b9050612a9d610140830185612578565b612aab610160830184612605565b9d9c50505050505050505050505050565b600080600080600080600080600060a08a8c031215612ade57612add6124d7565b5b60008a013567ffffffffffffffff811115612afc57612afb6124dc565b5b612b088c828d01612871565b995099505060208a013567ffffffffffffffff811115612b2b57612b2a6124dc565b5b612b378c828d01612871565b97509750506040612b4a8c828d016125c3565b95505060608a013567ffffffffffffffff811115612b6b57612b6a6124dc565b5b612b778c828d01612871565b945094505060808a013567ffffffffffffffff811115612b9a57612b996124dc565b5b612ba68c828d01612871565b92509250509295985092959850929598565b600061010082019050612bce600083018b6129d7565b8181036020830152612be0818a612807565b9050612bef6040830189612605565b8181036060830152612c018188612807565b90508181036080830152612c158187612807565b9050612c2460a0830186612578565b612c3160c0830185612578565b612c3e60e0830184612605565b9998505050505050505050565b612c548161256c565b8114612c5f57600080fd5b50565b600081359050612c7181612c4b565b92915050565b60008060008060608587031215612c9157612c906124d7565b5b6000612c9f878288016125c3565b9450506020612cb087828801612c62565b935050604085013567ffffffffffffffff811115612cd157612cd06124dc565b5b612cdd87828801612871565b925092505092959194509250565b6000602082019050612d0060008301846129d7565b92915050565b600081519050919050565b600082825260208201905092915050565b6000819050602082019050919050565b612d3b816125a2565b82525050565b6000612d4d8383612d32565b60208301905092915050565b6000602082019050919050565b6000612d7182612d06565b612d7b8185612d11565b9350612d8683612d22565b8060005b83811015612db7578151612d9e8882612d41565b9750612da983612d59565b925050600181019050612d8a565b5085935050505092915050565b60006020820190508181036000830152612dde8184612d66565b905092915050565b7f4e487b7100000000000000000000000000000000000000000000000000000000600052601160045260246000fd5b6000612e20826125a2565b91507fffffffffffffffffffffffffffffffffffffffffffffffffffffffffffffffff8203612e5257612e51612de6565b5b600182019050919050565b7f4e487b7100000000000000000000000000000000000000000000000000000000600052604160045260246000fd5b7f4e487b7100000000000000000000000000000000000000000000000000000000600052603260045260246000fd5b7f4e6f742061646d696e0000000000000000000000000000000000000000000000600082015250565b6000612ef16009836127bb565b9150612efc82612ebb565b602082019050919050565b60006020820190508181036000830152612f2081612ee4565b9050919050565b6000604082019050612f3c6000830185612605565b612f496020830184612605565b9392505050565b7f4f6e6c7920617574686f722063616e20636c61696d207374616b650000000000600082015250565b6000612f86601b836127bb565b9150612f9182612f50565b602082019050919050565b60006020820190508181036000830152612fb581612f79565b9050919050565b7f506170657220766572696669636174696f6e206e6f7420636f6d706c65746500600082015250565b6000612ff2601f836127bb565b9150612ffd82612fbc565b602082019050919050565b6000602082019050818103600083015261302181612fe5565b9050919050565b7f5061706572207761732072656a65637465640000000000000000000000000000600082015250565b600061305e6012836127bb565b915061306982613028565b602082019050919050565b6000602082019050818103600083015261308d81613051565b9050919050565b7f5374616b6520616c72656164792072657475726e656400000000000000000000600082015250565b60006130ca6016836127bb565b91506130d582613094565b602082019050919050565b600060208201905081810360008301526130f9816130bd565b9050919050565b60006060820190506131156000830186612605565b61312260208301856129d7565b61312f6040830184612605565b949350505050565b7f4e487b7100000000000000000000000000000000000000000000000000000000600052602260045260246000fd5b6000600282049050600182168061317e57607f821691505b60208210810361319157613190613137565b5b50919050565b7f4f6e6c79206f726967696e616c20617574686f722063616e2072657375626d6960008201527f7400000000000000000000000000000000000000000000000000000000000000602082015250565b60006131f36021836127bb565b91506131fe82613197565b604082019050919050565b60006020820190508181036000830152613222816131e6565b9050919050565b7f5061706572206e6f742064656369646564207965740000000000000000000000600082015250565b600061325f6015836127bb565b915061326a82613229565b602082019050919050565b6000602082019050818103600083015261328e81613252565b9050919050565b7f50617065722077617320616c726561647920617070726f766564000000000000600082015250565b60006132cb601a836127bb565b91506132d682613295565b602082019050919050565b600060208201905081810360008301526132fa816132be565b9050919050565b7f5374616b6520616c72656164792072657475726e6564206f722070617065722060008201527f616c72656164792072657375626d697474656400000000000000000000000000602082015250565b600061335d6033836127bb565b915061336882613301565b604082019050919050565b6000602082019050818103600083015261338c81613350565b9050919050565b600082905092915050565b60008190508160005260206000209050919050565b60006020601f8301049050919050565b600082821b905092915050565b6000600883026134007fffffffffffffffffffffffffffffffffffffffffffffffffffffffffffffffff826133c3565b61340a86836133c3565b95508019841693508086168417925050509392505050565b6000819050919050565b600061344761344261343d846125a2565b613422565b6125a2565b9050919050565b6000819050919050565b6134618361342c565b61347561346d8261344e565b8484546133d0565b825550505050565b600090565b61348a61347d565b613495818484613458565b505050565b5b818110156134b9576134ae600082613482565b60018101905061349b565b5050565b601f8211156134fe576134cf8161339e565b6134d8846133b3565b810160208510156134e7578190505b6134fb6134f3856133b3565b83018261349a565b50505b505050565b600082821c905092915050565b600061352160001984600802613503565b1980831691505092915050565b600061353a8383613510565b9150826002028217905092915050565b6135548383613393565b67ffffffffffffffff81111561356d5761356c612e5d565b5b6135778254613166565b6135828282856134bd565b6000601f8311600181146135b1576000841561359f578287013590505b6135a9858261352e565b865550613611565b601f1984166135bf8661339e565b60005b828110156135e7578489013582556001820191506020850194506020810190506135c2565b868310156136045784890135613600601f891682613510565b8355505b6001600288020188555050505b50505050505050565b7f4d757374207374616b6520726571756972656420616d6f756e74000000000000600082015250565b6000613650601a836127bb565b915061365b8261361a565b602082019050919050565b6000602082019050818103600083015261367f81613643565b9050919050565b82818337600083830152505050565b60006136a183856127bb565b93506136ae838584613686565b6136b7836127f6565b840190509392505050565b60006060820190506136d76000830187612605565b6136e460208301866129d7565b81810360408301526136f7818486613695565b905095945050505050565b7f4d696e20766f746573206d7573742062652067726561746572207468616e2030600082015250565b60006137386020836127bb565b915061374382613702565b602082019050919050565b600060208201905081810360008301526137678161372b565b9050919050565b7f4e6f742061206d656d6265720000000000000000000000000000000000000000600082015250565b60006137a4600c836127bb565b91506137af8261376e565b602082019050919050565b600060208201905081810360008301526137d381613797565b9050919050565b7f506170657220616c726561647920646563696465640000000000000000000000600082015250565b60006138106015836127bb565b915061381b826137da565b602082019050919050565b6000602082019050818103600083015261383f81613803565b9050919050565b7f416c726561647920766f74656400000000000000000000000000000000000000600082015250565b600061387c600d836127bb565b915061388782613846565b602082019050919050565b600060208201905081810360008301526138ab8161386f565b9050919050565b7f43616e6e6f7420766f7465206f6e206f776e2070617065720000000000000000600082015250565b60006138e86018836127bb565b91506138f3826138b2565b602082019050919050565b60006020820190508181036000830152613917816138db565b9050919050565b60006139298261262f565b915060ff820361393c5761393b612de6565b5b600182019050919050565b600060608201905061395c6000830186612605565b61396960208301856129d7565b6139766040830184612578565b949350505050565b60006139898261262f565b91506139948361262f565b9250828201905060ff8111156139ad576139ac612de6565b5b92915050565b60006139be826125a2565b91506139c9836125a2565b92508282026139d7816125a2565b915082820484148315176139ee576139ed612de6565b5b5092915050565b7f4e487b7100000000000000000000000000000000000000000000000000000000600052601260045260246000fd5b6000613a2f826125a2565b9150613a3a836125a2565b925082613a4a57613a496139f5565b5b828204905092915050565b6000604082019050613a6a6000830185612605565b613a776020830184612578565b9392505050565b7f5061706572206e6f742064656369646564000000000000000000000000000000600082015250565b6000613ab46011836127bb565b9150613abf82613a7e565b602082019050919050565b60006020820190508181036000830152613ae381613aa7565b9050919050565b7f496e73756666696369656e74207061796d656e74000000000000000000000000600082015250565b6000613b206014836127bb565b9150613b2b82613aea565b602082019050919050565b60006020820190508181036000830152613b4f81613b13565b9050919050565b6000604082019050613b6b6000830185612605565b613b7860208301846129d7565b9392505050565b7f496e646578206f7574206f6620626f756e647300000000000000000000000000600082015250565b6000613bb56013836127bb565b9150613bc082613b7f565b602082019050919050565b60006020820190508181036000830152613be481613ba8565b9050919050565b7f416c72656164792061206d656d62657200000000000000000000000000000000600082015250565b6000613c216010836127bb565b9150613c2c82613beb565b602082019050919050565b60006020820190508181036000830152613c5081613c14565b9050919050565b6000613c62826125a2565b9150613c6d836125a2565b9250828201905080821115613c8557613c84612de6565b5b92915050565b6000613c96826125a2565b915060008203613ca957613ca8612de6565b5b60018203905091905056fea2646970667358221220fdae01fa01ae2ac1d59c1b887b770027f97b56db74fb344b1b9384023a7ea7bc64736f6c63430008130033",
  "linkReferences": {},
  "deployedLinkReferences": {}
}