{"contracts/scholar.sol":{"SimpleScholarDAO":{"abi":[{"inputs":[],"stateMutability":"nonpayable","type":"constructor"},{"anonymous":false,"inputs":[{"indexed":false,"internalType":"uint256","name":"paperId","type":"uint256"},{"indexed":false,"internalType":"address","name":"buyer","type":"address"}],"name":"AccessPurchased","type":"event"},{"anonymous":false,"inputs":[{"indexed":false,"internalType":"address","name":"member","type":"address"}],"name":"MemberAdded","type":"event"},{"anonymous":false,"inputs":[{"indexed":false,"internalType":"uint256","name":"oldMinVotes","type":"uint256"},{"indexed":false,"internalType":"uint256","name":"newMinVotes","type":"uint256"}],"name":"MinRequiredVotesChanged","type":"event"},{"anonymous":false,"inputs":[{"indexed":false,"internalType":"uint256","name":"paperId","type":"uint256"},{"indexed":false,"internalType":"address","name":"author","type":"address"},{"indexed":false,"internalType":"string","name":"researchField","type":"string"}],"name":"PaperSubmitted","type":"event"},{"anonymous":false,"inputs":[{"indexed":false,"internalType":"uint256","name":"paperId","type":"uint256"},{"indexed":false,"internalType":"bool","name":"approved","type":"bool"}],"name":"PaperVerified","type":"event"},{"anonymous":false,"inputs":[{"indexed":false,"internalType":"uint256","name":"paperId","type":"uint256"},{"indexed":false,"internalType":"address","name":"author","type":"address"},{"indexed":false,"internalType":"uint256","name":"amount","type":"uint256"}],"name":"StakeReturned","type":"event"},{"anonymous":false,"inputs":[{"indexed":false,"internalType":"uint256","name":"oldAmount","type":"uint256"},{"indexed":false,"internalType":"uint256","name":"newAmount","type":"uint256"}],"name":"StakingAmountChanged","type":"event"},{"anonymous":false,"inputs":[{"indexed":false,"internalType":"uint256","name":"paperId","type":"uint256"},{"indexed":false,"internalType":"address","name":"member","type":"address"},{"indexed":false,"internalType":"bool","name":"approved","type":"bool"}],"name":"VerificationVote","type":"event"},{"anonymous":false,"inputs":[{"indexed":false,"internalType":"uint256","name":"paperId","type":"uint256"},{"indexed":false,"internalType":"address","name":"voter","type":"address"},{"indexed":false,"internalType":"string","name":"comment","type":"string"}],"name":"VoterComment","type":"event"},{"inputs":[{"internalType":"address","name":"_member","type":"address"}],"name":"addMember","outputs":[],"stateMutability":"nonpayable","type":"function"},{"inputs":[],"name":"admin","outputs":[{"internalType":"address","name":"","type":"address"}],"stateMutability":"view","type":"function"},{"inputs":[{"internalType":"uint256","name":"_paperId","type":"uint256"}],"name":"claimStake","outputs":[],"stateMutability":"nonpayable","type":"function"},{"inputs":[{"internalType":"uint256","name":"_index","type":"uint256"}],"name":"getMemberByIndex","outputs":[{"internalType":"address","name":"","type":"address"}],"stateMutability":"view","type":"function"},{"inputs":[{"internalType":"uint256","name":"_paperId","type":"uint256"},{"internalType":"address","name":"_voter","type":"address"}],"name":"getPaperComment","outputs":[{"internalType":"string","name":"","type":"string"}],"stateMutability":"view","type":"function"},{"inputs":[{"internalType":"uint256","name":"_paperId","type":"uint256"}],"name":"getPaperDetails","outputs":[{"internalType":"address","name":"author","type":"address"},{"internalType":"string","name":"title","type":"string"},{"internalType":"uint256","name":"price","type":"uint256"},{"internalType":"string","name":"teamMembers","type":"string"},{"internalType":"string","name":"researchField","type":"string"},{"internalType":"bool","name":"isApproved","type":"bool"}],"stateMutability":"view","type":"function"},{"inputs":[{"internalType":"uint256","name":"_paperId","type":"uint256"}],"name":"getPaperStatus","outputs":[{"internalType":"bool","name":"isDecided","type":"bool"},{"internalType":"bool","name":"isApproved","type":"bool"},{"internalType":"uint8","name":"approvals","type":"uint8"},{"internalType":"uint8","name":"rejections","type":"uint8"}],"stateMutability":"view","type":"function"},{"inputs":[{"internalType":"uint256","name":"_paperId","type":"uint256"}],"name":"getPaperVoters","outputs":[{"internalType":"address[]","name":"","type":"address[]"}],"stateMutability":"view","type":"function"},{"inputs":[{"internalType":"address","name":"","type":"address"}],"name":"members","outputs":[{"internalType":"bool","name":"","type":"bool"}],"stateMutability":"view","type":"function"},{"inputs":[],"name":"minRequiredVotes","outputs":[{"internalType":"uint256","name":"","type":"uint256"}],"stateMutability":"view","type":"function"},{"inputs":[],"name":"paperCount","outputs":[{"internalType":"uint256","name":"","type":"uint256"}],"stateMutability":"view","type":"function"},{"inputs":[{"internalType":"uint256","name":"","type":"uint256"}],"name":"paperStakes","outputs":[{"internalType":"uint256","name":"","type":"uint256"}],"stateMutability":"view","type":"function"},{"inputs":[{"internalType":"uint256","name":"","type":"uint256"}],"name":"papers","outputs":[{"internalType":"address","name":"author","type":"address"},{"internalType":"string","name":"title","type":"string"},{"internalType":"string","name":"contentHash","type":"string"},{"internalType":"uint256","name":"accessPrice","type":"uint256"},{"internalType":"bool","name":"decided","type":"bool"},{"internalType":"bool","name":"approved","type":"bool"},{"internalType":"uint8","name":"approvalCount","type":"uint8"},{"internalType":"uint8","name":"rejectionCount","type":"uint8"},{"internalType":"string","name":"teamMembers","type":"string"},{"internalType":"string","name":"researchField","type":"string"}],"stateMutability":"view","type":"function"},{"inputs":[{"internalType":"uint256","name":"_paperId","type":"uint256"}],"name":"purchaseAccess","outputs":[],"stateMutability":"payable","type":"function"},{"inputs":[{"internalType":"uint256","name":"_newMinVotes","type":"uint256"}],"name":"setMinRequiredVotes","outputs":[],"stateMutability":"nonpayable","type":"function"},{"inputs":[{"internalType":"uint256","name":"_newAmount","type":"uint256"}],"name":"setStakingAmount","outputs":[],"stateMutability":"nonpayable","type":"function"},{"inputs":[{"internalType":"uint256","name":"","type":"uint256"}],"name":"stakeReturned","outputs":[{"internalType":"bool","name":"","type":"bool"}],"stateMutability":"view","type":"function"},{"inputs":[],"name":"stakingAmount","outputs":[{"internalType":"uint256","name":"","type":"uint256"}],"stateMutability":"view","type":"function"},{"inputs":[{"internalType":"string","name":"_title","type":"string"},{"internalType":"string","name":"_contentHash","type":"string"},{"internalType":"uint256","name":"_price","type":"uint256"},{"internalType":"string","name":"_teamMembers","type":"string"},{"internalType":"string","name":"_researchField","type":"string"}],"name":"submitPaper","outputs":[],"stateMutability":"payable","type":"function"},{"inputs":[],"name":"totalMembers","outputs":[{"internalType":"uint256","name":"","type":"uint256"}],"stateMutability":"view","type":"function"},{"inputs":[{"internalType":"uint256","name":"_paperId","type":"uint256"},{"internalType":"bool","name":"_approve","type":"bool"},{"internalType":"string","name":"_comment","type":"string"}],"name":"voteOnPaper","outputs":[],"stateMutability":"nonpayable","type":"function"}],"evm":{"bytecode":{"linkReferences":{},"object":"6080604052600160035566b1a2bc2ec50000600455600360075534801561002557600080fd5b5033600260006101000a81548173ffffffffffffffffffffffffffffffffffffffff021916908373ffffffffffffffffffffffffffffffffffffffff16021790555060016000803373ffffffffffffffffffffffffffffffffffffffff1673ffffffffffffffffffffffffffffffffffffffff16815260200190815260200160002060006101000a81548160ff021916908315150217905550336001600080815260200190815260200160002060006101000a81548173ffffffffffffffffffffffffffffffffffffffff021916908373ffffffffffffffffffffffffffffffffffffffff1602179055506131968061011f6000396000f3fe60806040526004361061012a5760003560e01c80638bf7526e116100ab578063bce73b451161006f578063bce73b451461040b578063ca6d56dc14610448578063de126e2a14610471578063e2e2595a146104ae578063ed561780146104eb578063f851a440146105165761012a565b80638bf7526e1461033057806393df428c14610372578063a56c2cb91461039b578063b658adfc146103c6578063b91d0a2f146103ef5761012a565b806345e75239116100f257806345e752391461023b5780635e775a2714610278578063739a3e02146102be57806376e92559146102e957806383d2076a146103145761012a565b806308ae4b0c1461012f57806325c2b2371461016c57806329288cef146101ac5780633f230872146101e957806344c7d6ef14610212575b600080fd5b34801561013b57600080fd5b5061015660048036038101906101519190611e6f565b610541565b6040516101639190611eb7565b60405180910390f35b34801561017857600080fd5b50610193600480360381019061018e9190611f08565b610561565b6040516101a39493929190611f51565b60405180910390f35b3480156101b857600080fd5b506101d360048036038101906101ce9190611f08565b6105d6565b6040516101e09190612054565b60405180910390f35b3480156101f557600080fd5b50610210600480360381019061020b9190611f08565b6107bc565b005b34801561021e57600080fd5b5061023960048036038101906102349190611f08565b610897565b005b34801561024757600080fd5b50610262600480360381019061025d9190612076565b610b29565b60405161026f9190612146565b60405180910390f35b34801561028457600080fd5b5061029f600480360381019061029a9190611f08565b610c0f565b6040516102b59a99989796959493929190612186565b60405180910390f35b3480156102ca57600080fd5b506102d3610ed7565b6040516102e0919061223e565b60405180910390f35b3480156102f557600080fd5b506102fe610edd565b60405161030b919061223e565b60405180910390f35b61032e600480360381019061032991906122be565b610ee3565b005b34801561033c57600080fd5b5061035760048036038101906103529190611f08565b6110c2565b604051610369969594939291906123ba565b60405180910390f35b34801561037e57600080fd5b5061039960048036038101906103949190611f08565b6112e5565b005b3480156103a757600080fd5b506103b0611402565b6040516103bd919061223e565b60405180910390f35b3480156103d257600080fd5b506103ed60048036038101906103e8919061245c565b611408565b005b61040960048036038101906104049190611f08565b611961565b005b34801561041757600080fd5b50610432600480360381019061042d9190611f08565b611b09565b60405161043f91906124d0565b60405180910390f35b34801561045457600080fd5b5061046f600480360381019061046a9190611e6f565b611b8a565b005b34801561047d57600080fd5b5061049860048036038101906104939190611f08565b611da3565b6040516104a59190611eb7565b60405180910390f35b3480156104ba57600080fd5b506104d560048036038101906104d09190611f08565b611dc3565b6040516104e2919061223e565b60405180910390f35b3480156104f757600080fd5b50610500611ddb565b60405161050d919061223e565b60405180910390f35b34801561052257600080fd5b5061052b611de1565b60405161053891906124d0565b60405180910390f35b60006020528060005260406000206000915054906101000a900460ff1681565b60008060008060006008600087815260200190815260200160002090508060040160009054906101000a900460ff168160040160019054906101000a900460ff168260040160029054906101000a900460ff168360040160039054906101000a900460ff169450945094509450509193509193565b606060006008600084815260200190815260200160002090506000805b60035481101561068157600061060882611b09565b90508360070160008273ffffffffffffffffffffffffffffffffffffffff1673ffffffffffffffffffffffffffffffffffffffff16815260200190815260200160002060009054906101000a900460ff161561066d5782806106699061251a565b9350505b5080806106799061251a565b9150506105f3565b5060008167ffffffffffffffff81111561069e5761069d612562565b5b6040519080825280602002602001820160405280156106cc5781602001602082028036833780820191505090505b5090506000805b6003548110156107af5760006106e882611b09565b90508560070160008273ffffffffffffffffffffffffffffffffffffffff1673ffffffffffffffffffffffffffffffffffffffff16815260200190815260200160002060009054906101000a900460ff161561079b578084848151811061075257610751612591565b5b602002602001019073ffffffffffffffffffffffffffffffffffffffff16908173ffffffffffffffffffffffffffffffffffffffff168152505082806107979061251a565b9350505b5080806107a79061251a565b9150506106d3565b5081945050505050919050565b600260009054906101000a900473ffffffffffffffffffffffffffffffffffffffff1673ffffffffffffffffffffffffffffffffffffffff163373ffffffffffffffffffffffffffffffffffffffff161461084c576040517f08c379a00000000000000000000000000000000000000000000000000000000081526004016108439061260c565b60405180910390fd5b60006004549050816004819055507f9b80b0e663d4ad3b436d74a19943bf001847cb4a899fee0fe43ea97d80655288818360405161088b92919061262c565b60405180910390a15050565b60006008600083815260200190815260200160002090503373ffffffffffffffffffffffffffffffffffffffff168160000160009054906101000a900473ffffffffffffffffffffffffffffffffffffffff1673ffffffffffffffffffffffffffffffffffffffff1614610940576040517f08c379a0000000000000000000000000000000000000000000000000000000008152600401610937906126a1565b60405180910390fd5b600115158160040160009054906101000a900460ff16151514610998576040517f08c379a000000000000000000000000000000000000000000000000000000000815260040161098f9061270d565b60405180910390fd5b600115158160040160019054906101000a900460ff161515146109f0576040517f08c379a00000000000000000000000000000000000000000000000000000000081526004016109e790612779565b60405180910390fd5b6006600083815260200190815260200160002060009054906101000a900460ff1615610a51576040517f08c379a0000000000000000000000000000000000000000000000000000000008152600401610a48906127e5565b60405180910390fd5b60016006600084815260200190815260200160002060006101000a81548160ff0219169083151502179055503373ffffffffffffffffffffffffffffffffffffffff166108fc60056000858152602001908152602001600020549081150290604051600060405180830381858888f19350505050158015610ad6573d6000803e3d6000fd5b507f0d736493ece6b7d52e34dd028d3d9d0aa75de37339f3da6b3514e70e231ed2a582336005600086815260200190815260200160002054604051610b1d93929190612805565b60405180910390a15050565b60606008600084815260200190815260200160002060080160008373ffffffffffffffffffffffffffffffffffffffff1673ffffffffffffffffffffffffffffffffffffffff1681526020019081526020016000208054610b899061286b565b80601f0160208091040260200160405190810160405280929190818152602001828054610bb59061286b565b8015610c025780601f10610bd757610100808354040283529160200191610c02565b820191906000526020600020905b815481529060010190602001808311610be557829003601f168201915b5050505050905092915050565b60086020528060005260406000206000915090508060000160009054906101000a900473ffffffffffffffffffffffffffffffffffffffff1690806001018054610c589061286b565b80601f0160208091040260200160405190810160405280929190818152602001828054610c849061286b565b8015610cd15780601f10610ca657610100808354040283529160200191610cd1565b820191906000526020600020905b815481529060010190602001808311610cb457829003601f168201915b505050505090806002018054610ce69061286b565b80601f0160208091040260200160405190810160405280929190818152602001828054610d129061286b565b8015610d5f5780601f10610d3457610100808354040283529160200191610d5f565b820191906000526020600020905b815481529060010190602001808311610d4257829003601f168201915b5050505050908060030154908060040160009054906101000a900460ff16908060040160019054906101000a900460ff16908060040160029054906101000a900460ff16908060040160039054906101000a900460ff1690806005018054610dc69061286b565b80601f0160208091040260200160405190810160405280929190818152602001828054610df29061286b565b8015610e3f5780601f10610e1457610100808354040283529160200191610e3f565b820191906000526020600020905b815481529060010190602001808311610e2257829003601f168201915b505050505090806006018054610e549061286b565b80601f0160208091040260200160405190810160405280929190818152602001828054610e809061286b565b8015610ecd5780601f10610ea257610100808354040283529160200191610ecd565b820191906000526020600020905b815481529060010190602001808311610eb057829003601f168201915b505050505090508a565b60045481565b60035481565b600454341015610f28576040517f08c379a0000000000000000000000000000000000000000000000000000000008152600401610f1f906128e8565b60405180910390fd5b600060095490506000600860008381526020019081526020016000209050338160000160006101000a81548173ffffffffffffffffffffffffffffffffffffffff021916908373ffffffffffffffffffffffffffffffffffffffff1602179055508a8a826001019182610f9c929190612abf565b508888826002019182610fb0929190612abf565b5086816003018190555060008160040160006101000a81548160ff02191690831515021790555060008160040160016101000a81548160ff0219169083151502179055508585826005019182611007929190612abf565b50838382600601918261101b929190612abf565b5034600560008481526020019081526020016000208190555060006006600084815260200190815260200160002060006101000a81548160ff0219169083151502179055507fb3ea4b5389ebdfde0fd6521ba6b05a830220cc72bedebcd0d0d44b1d916c21c4823386866040516110959493929190612bcb565b60405180910390a1600960008154809291906110b09061251a565b91905055505050505050505050505050565b6000606060006060806000806008600089815260200190815260200160002090508060000160009054906101000a900473ffffffffffffffffffffffffffffffffffffffff1681600101826003015483600501846006018560040160019054906101000a900460ff168480546111379061286b565b80601f01602080910402602001604051908101604052809291908181526020018280546111639061286b565b80156111b05780601f10611185576101008083540402835291602001916111b0565b820191906000526020600020905b81548152906001019060200180831161119357829003601f168201915b505050505094508280546111c39061286b565b80601f01602080910402602001604051908101604052809291908181526020018280546111ef9061286b565b801561123c5780601f106112115761010080835404028352916020019161123c565b820191906000526020600020905b81548152906001019060200180831161121f57829003601f168201915b5050505050925081805461124f9061286b565b80601f016020809104026020016040519081016040528092919081815260200182805461127b9061286b565b80156112c85780601f1061129d576101008083540402835291602001916112c8565b820191906000526020600020905b8154815290600101906020018083116112ab57829003601f168201915b505050505091509650965096509650965096505091939550919395565b600260009054906101000a900473ffffffffffffffffffffffffffffffffffffffff1673ffffffffffffffffffffffffffffffffffffffff163373ffffffffffffffffffffffffffffffffffffffff1614611375576040517f08c379a000000000000000000000000000000000000000000000000000000000815260040161136c9061260c565b60405180910390fd5b600081116113b8576040517f08c379a00000000000000000000000000000000000000000000000000000000081526004016113af90612c57565b60405180910390fd5b60006007549050816007819055507e6e92f39f1a5a73bfee3d744c73ee7b41b82bc3584d4687b7c4712efec8215881836040516113f692919061262c565b60405180910390a15050565b60095481565b6000803373ffffffffffffffffffffffffffffffffffffffff1673ffffffffffffffffffffffffffffffffffffffff16815260200190815260200160002060009054906101000a900460ff16611493576040517f08c379a000000000000000000000000000000000000000000000000000000000815260040161148a90612cc3565b60405180910390fd5b60006008600086815260200190815260200160002090508060040160009054906101000a900460ff16156114fc576040517f08c379a00000000000000000000000000000000000000000000000000000000081526004016114f390612d2f565b60405180910390fd5b8060070160003373ffffffffffffffffffffffffffffffffffffffff1673ffffffffffffffffffffffffffffffffffffffff16815260200190815260200160002060009054906101000a900460ff161561158b576040517f08c379a000000000000000000000000000000000000000000000000000000000815260040161158290612d9b565b60405180910390fd5b3373ffffffffffffffffffffffffffffffffffffffff168160000160009054906101000a900473ffffffffffffffffffffffffffffffffffffffff1673ffffffffffffffffffffffffffffffffffffffff160361161d576040517f08c379a000000000000000000000000000000000000000000000000000000000815260040161161490612e07565b60405180910390fd5b60018160070160003373ffffffffffffffffffffffffffffffffffffffff1673ffffffffffffffffffffffffffffffffffffffff16815260200190815260200160002060006101000a81548160ff02191690831515021790555082828260080160003373ffffffffffffffffffffffffffffffffffffffff1673ffffffffffffffffffffffffffffffffffffffff16815260200190815260200160002091826116c7929190612abf565b50831561170d5780600401600281819054906101000a900460ff16809291906116ef90612e27565b91906101000a81548160ff021916908360ff16021790555050611748565b80600401600381819054906101000a900460ff168092919061172e90612e27565b91906101000a81548160ff021916908360ff160217905550505b7f3718917f25ba08f882bec3f1b29e583bf7d953e069bd09538aa37631587e7ce485338660405161177b93929190612e50565b60405180910390a17f0b964f54fab911813abc1e1d7b4d94f9307b89d38cbbd3666cb5ab97dcc1926e853385856040516117b89493929190612bcb565b60405180910390a160008160040160039054906101000a900460ff168260040160029054906101000a900460ff166117f09190612e87565b60ff1690506007548110611959576064605060035461180f9190612ebc565b6118199190612f2d565b8260040160029054906101000a900460ff1660ff16106118ac5760018260040160006101000a81548160ff02191690831515021790555060018260040160016101000a81548160ff0219169083151502179055507fd70144180122a22001d1f367c5ca7d741d86d2130b26b4c5828419e8a457640086600160405161189f929190612f5e565b60405180910390a1611958565b606460146003546118bd9190612ebc565b6118c79190612f2d565b8260040160039054906101000a900460ff1660ff1611156119575760018260040160006101000a81548160ff02191690831515021790555060008260040160016101000a81548160ff0219169083151502179055507fd70144180122a22001d1f367c5ca7d741d86d2130b26b4c5828419e8a457640086600060405161194e929190612f5e565b60405180910390a15b5b5b505050505050565b60006008600083815260200190815260200160002090508060040160009054906101000a900460ff166119c9576040517f08c379a00000000000000000000000000000000000000000000000000000000081526004016119c090612fd3565b60405180910390fd5b8060040160019054906101000a900460ff16611a1a576040517f08c379a0000000000000000000000000000000000000000000000000000000008152600401611a1190612779565b60405180910390fd5b8060030154341015611a61576040517f08c379a0000000000000000000000000000000000000000000000000000000008152600401611a589061303f565b60405180910390fd5b8060000160009054906101000a900473ffffffffffffffffffffffffffffffffffffffff1673ffffffffffffffffffffffffffffffffffffffff166108fc349081150290604051600060405180830381858888f19350505050158015611acb573d6000803e3d6000fd5b507f9d3165becc99baec301813b1612049d03855703556b2fc11d56004c5cf09f5f38233604051611afd92919061305f565b60405180910390a15050565b60006003548210611b4f576040517f08c379a0000000000000000000000000000000000000000000000000000000008152600401611b46906130d4565b60405180910390fd5b6001600083815260200190815260200160002060009054906101000a900473ffffffffffffffffffffffffffffffffffffffff169050919050565b600260009054906101000a900473ffffffffffffffffffffffffffffffffffffffff1673ffffffffffffffffffffffffffffffffffffffff163373ffffffffffffffffffffffffffffffffffffffff1614611c1a576040517f08c379a0000000000000000000000000000000000000000000000000000000008152600401611c119061260c565b60405180910390fd5b6000808273ffffffffffffffffffffffffffffffffffffffff1673ffffffffffffffffffffffffffffffffffffffff16815260200190815260200160002060009054906101000a900460ff1615611ca6576040517f08c379a0000000000000000000000000000000000000000000000000000000008152600401611c9d90613140565b60405180910390fd5b60016000808373ffffffffffffffffffffffffffffffffffffffff1673ffffffffffffffffffffffffffffffffffffffff16815260200190815260200160002060006101000a81548160ff0219169083151502179055508060016000600354815260200190815260200160002060006101000a81548173ffffffffffffffffffffffffffffffffffffffff021916908373ffffffffffffffffffffffffffffffffffffffff16021790555060036000815480929190611d649061251a565b91905055507fb251eb052afc73ffd02ffe85ad79990a8b3fed60d76dbc2fa2fdd7123dffd91481604051611d9891906124d0565b60405180910390a150565b60066020528060005260406000206000915054906101000a900460ff1681565b60056020528060005260406000206000915090505481565b60075481565b600260009054906101000a900473ffffffffffffffffffffffffffffffffffffffff1681565b600080fd5b600080fd5b600073ffffffffffffffffffffffffffffffffffffffff82169050919050565b6000611e3c82611e11565b9050919050565b611e4c81611e31565b8114611e5757600080fd5b50565b600081359050611e6981611e43565b92915050565b600060208284031215611e8557611e84611e07565b5b6000611e9384828501611e5a565b91505092915050565b60008115159050919050565b611eb181611e9c565b82525050565b6000602082019050611ecc6000830184611ea8565b92915050565b6000819050919050565b611ee581611ed2565b8114611ef057600080fd5b50565b600081359050611f0281611edc565b92915050565b600060208284031215611f1e57611f1d611e07565b5b6000611f2c84828501611ef3565b91505092915050565b600060ff82169050919050565b611f4b81611f35565b82525050565b6000608082019050611f666000830187611ea8565b611f736020830186611ea8565b611f806040830185611f42565b611f8d6060830184611f42565b95945050505050565b600081519050919050565b600082825260208201905092915050565b6000819050602082019050919050565b611fcb81611e31565b82525050565b6000611fdd8383611fc2565b60208301905092915050565b6000602082019050919050565b600061200182611f96565b61200b8185611fa1565b935061201683611fb2565b8060005b8381101561204757815161202e8882611fd1565b975061203983611fe9565b92505060018101905061201a565b5085935050505092915050565b6000602082019050818103600083015261206e8184611ff6565b905092915050565b6000806040838503121561208d5761208c611e07565b5b600061209b85828601611ef3565b92505060206120ac85828601611e5a565b9150509250929050565b600081519050919050565b600082825260208201905092915050565b60005b838110156120f05780820151818401526020810190506120d5565b60008484015250505050565b6000601f19601f8301169050919050565b6000612118826120b6565b61212281856120c1565b93506121328185602086016120d2565b61213b816120fc565b840191505092915050565b60006020820190508181036000830152612160818461210d565b905092915050565b61217181611e31565b82525050565b61218081611ed2565b82525050565b60006101408201905061219c600083018d612168565b81810360208301526121ae818c61210d565b905081810360408301526121c2818b61210d565b90506121d1606083018a612177565b6121de6080830189611ea8565b6121eb60a0830188611ea8565b6121f860c0830187611f42565b61220560e0830186611f42565b818103610100830152612218818561210d565b905081810361012083015261222d818461210d565b90509b9a5050505050505050505050565b60006020820190506122536000830184612177565b92915050565b600080fd5b600080fd5b600080fd5b60008083601f84011261227e5761227d612259565b5b8235905067ffffffffffffffff81111561229b5761229a61225e565b5b6020830191508360018202830111156122b7576122b6612263565b5b9250929050565b600080600080600080600080600060a08a8c0312156122e0576122df611e07565b5b60008a013567ffffffffffffffff8111156122fe576122fd611e0c565b5b61230a8c828d01612268565b995099505060208a013567ffffffffffffffff81111561232d5761232c611e0c565b5b6123398c828d01612268565b9750975050604061234c8c828d01611ef3565b95505060608a013567ffffffffffffffff81111561236d5761236c611e0c565b5b6123798c828d01612268565b945094505060808a013567ffffffffffffffff81111561239c5761239b611e0c565b5b6123a88c828d01612268565b92509250509295985092959850929598565b600060c0820190506123cf6000830189612168565b81810360208301526123e1818861210d565b90506123f06040830187612177565b8181036060830152612402818661210d565b90508181036080830152612416818561210d565b905061242560a0830184611ea8565b979650505050505050565b61243981611e9c565b811461244457600080fd5b50565b60008135905061245681612430565b92915050565b6000806000806060858703121561247657612475611e07565b5b600061248487828801611ef3565b945050602061249587828801612447565b935050604085013567ffffffffffffffff8111156124b6576124b5611e0c565b5b6124c287828801612268565b925092505092959194509250565b60006020820190506124e56000830184612168565b92915050565b7f4e487b7100000000000000000000000000000000000000000000000000000000600052601160045260246000fd5b600061252582611ed2565b91507fffffffffffffffffffffffffffffffffffffffffffffffffffffffffffffffff8203612557576125566124eb565b5b600182019050919050565b7f4e487b7100000000000000000000000000000000000000000000000000000000600052604160045260246000fd5b7f4e487b7100000000000000000000000000000000000000000000000000000000600052603260045260246000fd5b7f4e6f742061646d696e0000000000000000000000000000000000000000000000600082015250565b60006125f66009836120c1565b9150612601826125c0565b602082019050919050565b60006020820190508181036000830152612625816125e9565b9050919050565b60006040820190506126416000830185612177565b61264e6020830184612177565b9392505050565b7f4f6e6c7920617574686f722063616e20636c61696d207374616b650000000000600082015250565b600061268b601b836120c1565b915061269682612655565b602082019050919050565b600060208201905081810360008301526126ba8161267e565b9050919050565b7f506170657220766572696669636174696f6e206e6f7420636f6d706c65746500600082015250565b60006126f7601f836120c1565b9150612702826126c1565b602082019050919050565b60006020820190508181036000830152612726816126ea565b9050919050565b7f5061706572207761732072656a65637465640000000000000000000000000000600082015250565b60006127636012836120c1565b915061276e8261272d565b602082019050919050565b6000602082019050818103600083015261279281612756565b9050919050565b7f5374616b6520616c72656164792072657475726e656400000000000000000000600082015250565b60006127cf6016836120c1565b91506127da82612799565b602082019050919050565b600060208201905081810360008301526127fe816127c2565b9050919050565b600060608201905061281a6000830186612177565b6128276020830185612168565b6128346040830184612177565b949350505050565b7f4e487b7100000000000000000000000000000000000000000000000000000000600052602260045260246000fd5b6000600282049050600182168061288357607f821691505b6020821081036128965761289561283c565b5b50919050565b7f4d757374207374616b6520726571756972656420616d6f756e74000000000000600082015250565b60006128d2601a836120c1565b91506128dd8261289c565b602082019050919050565b60006020820190508181036000830152612901816128c5565b9050919050565b600082905092915050565b60008190508160005260206000209050919050565b60006020601f8301049050919050565b600082821b905092915050565b6000600883026129757fffffffffffffffffffffffffffffffffffffffffffffffffffffffffffffffff82612938565b61297f8683612938565b95508019841693508086168417925050509392505050565b6000819050919050565b60006129bc6129b76129b284611ed2565b612997565b611ed2565b9050919050565b6000819050919050565b6129d6836129a1565b6129ea6129e2826129c3565b848454612945565b825550505050565b600090565b6129ff6129f2565b612a0a8184846129cd565b505050565b5b81811015612a2e57612a236000826129f7565b600181019050612a10565b5050565b601f821115612a7357612a4481612913565b612a4d84612928565b81016020851015612a5c578190505b612a70612a6885612928565b830182612a0f565b50505b505050565b600082821c905092915050565b6000612a9660001984600802612a78565b1980831691505092915050565b6000612aaf8383612a85565b9150826002028217905092915050565b612ac98383612908565b67ffffffffffffffff811115612ae257612ae1612562565b5b612aec825461286b565b612af7828285612a32565b6000601f831160018114612b265760008415612b14578287013590505b612b1e8582612aa3565b865550612b86565b601f198416612b3486612913565b60005b82811015612b5c57848901358255600182019150602085019450602081019050612b37565b86831015612b795784890135612b75601f891682612a85565b8355505b6001600288020188555050505b50505050505050565b82818337600083830152505050565b6000612baa83856120c1565b9350612bb7838584612b8f565b612bc0836120fc565b840190509392505050565b6000606082019050612be06000830187612177565b612bed6020830186612168565b8181036040830152612c00818486612b9e565b905095945050505050565b7f4d696e20766f746573206d7573742062652067726561746572207468616e2030600082015250565b6000612c416020836120c1565b9150612c4c82612c0b565b602082019050919050565b60006020820190508181036000830152612c7081612c34565b9050919050565b7f4e6f742061206d656d6265720000000000000000000000000000000000000000600082015250565b6000612cad600c836120c1565b9150612cb882612c77565b602082019050919050565b60006020820190508181036000830152612cdc81612ca0565b9050919050565b7f506170657220616c726561647920646563696465640000000000000000000000600082015250565b6000612d196015836120c1565b9150612d2482612ce3565b602082019050919050565b60006020820190508181036000830152612d4881612d0c565b9050919050565b7f416c726561647920766f74656400000000000000000000000000000000000000600082015250565b6000612d85600d836120c1565b9150612d9082612d4f565b602082019050919050565b60006020820190508181036000830152612db481612d78565b9050919050565b7f43616e6e6f7420766f7465206f6e206f776e2070617065720000000000000000600082015250565b6000612df16018836120c1565b9150612dfc82612dbb565b602082019050919050565b60006020820190508181036000830152612e2081612de4565b9050919050565b6000612e3282611f35565b915060ff8203612e4557612e446124eb565b5b600182019050919050565b6000606082019050612e656000830186612177565b612e726020830185612168565b612e7f6040830184611ea8565b949350505050565b6000612e9282611f35565b9150612e9d83611f35565b9250828201905060ff811115612eb657612eb56124eb565b5b92915050565b6000612ec782611ed2565b9150612ed283611ed2565b9250828202612ee081611ed2565b91508282048414831517612ef757612ef66124eb565b5b5092915050565b7f4e487b7100000000000000000000000000000000000000000000000000000000600052601260045260246000fd5b6000612f3882611ed2565b9150612f4383611ed2565b925082612f5357612f52612efe565b5b828204905092915050565b6000604082019050612f736000830185612177565b612f806020830184611ea8565b9392505050565b7f5061706572206e6f742064656369646564000000000000000000000000000000600082015250565b6000612fbd6011836120c1565b9150612fc882612f87565b602082019050919050565b60006020820190508181036000830152612fec81612fb0565b9050919050565b7f496e73756666696369656e74207061796d656e74000000000000000000000000600082015250565b60006130296014836120c1565b915061303482612ff3565b602082019050919050565b600060208201905081810360008301526130588161301c565b9050919050565b60006040820190506130746000830185612177565b6130816020830184612168565b9392505050565b7f496e646578206f7574206f6620626f756e647300000000000000000000000000600082015250565b60006130be6013836120c1565b91506130c982613088565b602082019050919050565b600060208201905081810360008301526130ed816130b1565b9050919050565b7f416c72656164792061206d656d62657200000000000000000000000000000000600082015250565b600061312a6010836120c1565b9150613135826130f4565b602082019050919050565b600060208201905081810360008301526131598161311d565b905091905056fea2646970667358221220ea421385e59bfe3dd5298eef2400922e54c0d107ef4dbd3c4af9c9c56bf97bad64736f6c63430008130033","opcodes":"PUSH1 0x80 PUSH1 0x40 MSTORE PUSH1 0x1 PUSH1 0x3 SSTORE PUSH7 0xB1A2BC2EC50000 PUSH1 0x4 SSTORE PUSH1 0x3 PUSH1 0x7 SSTORE CALLVALUE DUP1 ISZERO PUSH2 0x25 JUMPI PUSH1 0x0 DUP1 REVERT JUMPDEST POP CALLER PUSH1 0x2 PUSH1 0x0 PUSH2 0x100 EXP DUP2 SLOAD DUP2 PUSH20 0xFFFFFFFFFFFFFFFFFFFFFFFFFFFFFFFFFFFFFFFF MUL NOT AND SWAP1 DUP4 PUSH20 0xFFFFFFFFFFFFFFFFFFFFFFFFFFFFFFFFFFFFFFFF AND MUL OR SWAP1 SSTORE POP PUSH1 0x1 PUSH1 0x0 DUP1 CALLER PUSH20 0xFFFFFFFFFFFFFFFFFFFFFFFFFFFFFFFFFFFFFFFF AND PUSH20 0xFFFFFFFFFFFFFFFFFFFFFFFFFFFFFFFFFFFFFFFF AND DUP2 MSTORE PUSH1 0x20 ADD SWAP1 DUP2 MSTORE PUSH1 0x20 ADD PUSH1 0x0 KECCAK256 PUSH1 0x0 PUSH2 0x100 EXP DUP2 SLOAD DUP2 PUSH1 0xFF MUL NOT AND SWAP1 DUP4 ISZERO ISZERO MUL OR SWAP1 SSTORE POP CALLER PUSH1 0x1 PUSH1 0x0 DUP1 DUP2 MSTORE PUSH1 0x20 ADD SWAP1 DUP2 MSTORE PUSH1 0x20 ADD PUSH1 0x0 KECCAK256 PUSH1 0x0 PUSH2 0x100 EXP DUP2 SLOAD DUP2 PUSH20 0xFFFFFFFFFFFFFFFFFFFFFFFFFFFFFFFFFFFFFFFF MUL NOT AND SWAP1 DUP4 PUSH20 0xFFFFFFFFFFFFFFFFFFFFFFFFFFFFFFFFFFFFFFFF AND MUL OR SWAP1 SSTORE POP PUSH2 0x3196 DUP1 PUSH2 0x11F PUSH1 0x0 CODECOPY PUSH1 0x0 RETURN INVALID PUSH1 0x80 PUSH1 0x40 MSTORE PUSH1 0x4 CALLDATASIZE LT PUSH2 0x12A JUMPI PUSH1 0x0 CALLDATALOAD PUSH1 0xE0 SHR DUP1 PUSH4 0x8BF7526E GT PUSH2 0xAB JUMPI DUP1 PUSH4 0xBCE73B45 GT PUSH2 0x6F JUMPI DUP1 PUSH4 0xBCE73B45 EQ PUSH2 0x40B JUMPI DUP1 PUSH4 0xCA6D56DC EQ PUSH2 0x448 JUMPI DUP1 PUSH4 0xDE126E2A EQ PUSH2 0x471 JUMPI DUP1 PUSH4 0xE2E2595A EQ PUSH2 0x4AE JUMPI DUP1 PUSH4 0xED561780 EQ PUSH2 0x4EB JUMPI DUP1 PUSH4 0xF851A440 EQ PUSH2 0x516 JUMPI PUSH2 0x12A JUMP JUMPDEST DUP1 PUSH4 0x8BF7526E EQ PUSH2 0x330 JUMPI DUP1 PUSH4 0x93DF428C EQ PUSH2 0x372 JUMPI DUP1 PUSH4 0xA56C2CB9 EQ PUSH2 0x39B JUMPI DUP1 PUSH4 0xB658ADFC EQ PUSH2 0x3C6 JUMPI DUP1 PUSH4 0xB91D0A2F EQ PUSH2 0x3EF JUMPI PUSH2 0x12A JUMP JUMPDEST DUP1 PUSH4 0x45E75239 GT PUSH2 0xF2 JUMPI DUP1 PUSH4 0x45E75239 EQ PUSH2 0x23B JUMPI DUP1 PUSH4 0x5E775A27 EQ PUSH2 0x278 JUMPI DUP1 PUSH4 0x739A3E02 EQ PUSH2 0x2BE JUMPI DUP1 PUSH4 0x76E92559 EQ PUSH2 0x2E9 JUMPI DUP1 PUSH4 0x83D2076A EQ PUSH2 0x314 JUMPI PUSH2 0x12A JUMP JUMPDEST DUP1 PUSH4 0x8AE4B0C EQ PUSH2 0x12F JUMPI DUP1 PUSH4 0x25C2B237 EQ PUSH2 0x16C JUMPI DUP1 PUSH4 0x29288CEF EQ PUSH2 0x1AC JUMPI DUP1 PUSH4 0x3F230872 EQ PUSH2 0x1E9 JUMPI DUP1 PUSH4 0x44C7D6EF EQ PUSH2 0x212 JUMPI JUMPDEST PUSH1 0x0 DUP1 REVERT JUMPDEST CALLVALUE DUP1 ISZERO PUSH2 0x13B JUMPI PUSH1 0x0 DUP1 REVERT JUMPDEST POP PUSH2 0x156 PUSH1 0x4 DUP1 CALLDATASIZE SUB DUP2 ADD SWAP1 PUSH2 0x151 SWAP2 SWAP1 PUSH2 0x1E6F JUMP JUMPDEST PUSH2 0x541 JUMP JUMPDEST PUSH1 0x40 MLOAD PUSH2 0x163 SWAP2 SWAP1 PUSH2 0x1EB7 JUMP JUMPDEST PUSH1 0x40 MLOAD DUP1 SWAP2 SUB SWAP1 RETURN JUMPDEST CALLVALUE DUP1 ISZERO PUSH2 0x178 JUMPI PUSH1 0x0 DUP1 REVERT JUMPDEST POP PUSH2 0x193 PUSH1 0x4 DUP1 CALLDATASIZE SUB DUP2 ADD SWAP1 PUSH2 0x18E SWAP2 SWAP1 PUSH2 0x1F08 JUMP JUMPDEST PUSH2 0x561 JUMP JUMPDEST PUSH1 0x40 MLOAD PUSH2 0x1A3 SWAP5 SWAP4 SWAP3 SWAP2 SWAP1 PUSH2 0x1F51 JUMP JUMPDEST PUSH1 0x40 MLOAD DUP1 SWAP2 SUB SWAP1 RETURN JUMPDEST CALLVALUE DUP1 ISZERO PUSH2 0x1B8 JUMPI PUSH1 0x0 DUP1 REVERT JUMPDEST POP PUSH2 0x1D3 PUSH1 0x4 DUP1 CALLDATASIZE SUB DUP2 ADD SWAP1 PUSH2 0x1CE SWAP2 SWAP1 PUSH2 0x1F08 JUMP JUMPDEST PUSH2 0x5D6 JUMP JUMPDEST PUSH1 0x40 MLOAD PUSH2 0x1E0 SWAP2 SWAP1 PUSH2 0x2054 JUMP JUMPDEST PUSH1 0x40 MLOAD DUP1 SWAP2 SUB SWAP1 RETURN JUMPDEST CALLVALUE DUP1 ISZERO PUSH2 0x1F5 JUMPI PUSH1 0x0 DUP1 REVERT JUMPDEST POP PUSH2 0x210 PUSH1 0x4 DUP1 CALLDATASIZE SUB DUP2 ADD SWAP1 PUSH2 0x20B SWAP2 SWAP1 PUSH2 0x1F08 JUMP JUMPDEST PUSH2 0x7BC JUMP JUMPDEST STOP JUMPDEST CALLVALUE DUP1 ISZERO PUSH2 0x21E JUMPI PUSH1 0x0 DUP1 REVERT JUMPDEST POP PUSH2 0x239 PUSH1 0x4 DUP1 CALLDATASIZE SUB DUP2 ADD SWAP1 PUSH2 0x234 SWAP2 SWAP1 PUSH2 0x1F08 JUMP JUMPDEST PUSH2 0x897 JUMP JUMPDEST STOP JUMPDEST CALLVALUE DUP1 ISZERO PUSH2 0x247 JUMPI PUSH1 0x0 DUP1 REVERT JUMPDEST POP PUSH2 0x262 PUSH1 0x4 DUP1 CALLDATASIZE SUB DUP2 ADD SWAP1 PUSH2 0x25D SWAP2 SWAP1 PUSH2 0x2076 JUMP JUMPDEST PUSH2 0xB29 JUMP JUMPDEST PUSH1 0x40 MLOAD PUSH2 0x26F SWAP2 SWAP1 PUSH2 0x2146 JUMP JUMPDEST PUSH1 0x40 MLOAD DUP1 SWAP2 SUB SWAP1 RETURN JUMPDEST CALLVALUE DUP1 ISZERO PUSH2 0x284 JUMPI PUSH1 0x0 DUP1 REVERT JUMPDEST POP PUSH2 0x29F PUSH1 0x4 DUP1 CALLDATASIZE SUB DUP2 ADD SWAP1 PUSH2 0x29A SWAP2 SWAP1 PUSH2 0x1F08 JUMP JUMPDEST PUSH2 0xC0F JUMP JUMPDEST PUSH1 0x40 MLOAD PUSH2 0x2B5 SWAP11 SWAP10 SWAP9 SWAP8 SWAP7 SWAP6 SWAP5 SWAP4 SWAP3 SWAP2 SWAP1 PUSH2 0x2186 JUMP JUMPDEST PUSH1 0x40 MLOAD DUP1 SWAP2 SUB SWAP1 RETURN JUMPDEST CALLVALUE DUP1 ISZERO PUSH2 0x2CA JUMPI PUSH1 0x0 DUP1 REVERT JUMPDEST POP PUSH2 0x2D3 PUSH2 0xED7 JUMP JUMPDEST PUSH1 0x40 MLOAD PUSH2 0x2E0 SWAP2 SWAP1 PUSH2 0x223E JUMP JUMPDEST PUSH1 0x40 MLOAD DUP1 SWAP2 SUB SWAP1 RETURN JUMPDEST CALLVALUE DUP1 ISZERO PUSH2 0x2F5 JUMPI PUSH1 0x0 DUP1 REVERT JUMPDEST POP PUSH2 0x2FE PUSH2 0xEDD JUMP JUMPDEST PUSH1 0x40 MLOAD PUSH2 0x30B SWAP2 SWAP1 PUSH2 0x223E JUMP JUMPDEST PUSH1 0x40 MLOAD DUP1 SWAP2 SUB SWAP1 RETURN JUMPDEST PUSH2 0x32E PUSH1 0x4 DUP1 CALLDATASIZE SUB DUP2 ADD SWAP1 PUSH2 0x329 SWAP2 SWAP1 PUSH2 0x22BE JUMP JUMPDEST PUSH2 0xEE3 JUMP JUMPDEST STOP JUMPDEST CALLVALUE DUP1 ISZERO PUSH2 0x33C JUMPI PUSH1 0x0 DUP1 REVERT JUMPDEST POP PUSH2 0x357 PUSH1 0x4 DUP1 CALLDATASIZE SUB DUP2 ADD SWAP1 PUSH2 0x352 SWAP2 SWAP1 PUSH2 0x1F08 JUMP JUMPDEST PUSH2 0x10C2 JUMP JUMPDEST PUSH1 0x40 MLOAD PUSH2 0x369 SWAP7 SWAP6 SWAP5 SWAP4 SWAP3 SWAP2 SWAP1 PUSH2 0x23BA JUMP JUMPDEST PUSH1 0x40 MLOAD DUP1 SWAP2 SUB SWAP1 RETURN JUMPDEST CALLVALUE DUP1 ISZERO PUSH2 0x37E JUMPI PUSH1 0x0 DUP1 REVERT JUMPDEST POP PUSH2 0x399 PUSH1 0x4 DUP1 CALLDATASIZE SUB DUP2 ADD SWAP1 PUSH2 0x394 SWAP2 SWAP1 PUSH2 0x1F08 JUMP JUMPDEST PUSH2 0x12E5 JUMP JUMPDEST STOP JUMPDEST CALLVALUE DUP1 ISZERO PUSH2 0x3A7 JUMPI PUSH1 0x0 DUP1 REVERT JUMPDEST POP PUSH2 0x3B0 PUSH2 0x1402 JUMP JUMPDEST PUSH1 0x40 MLOAD PUSH2 0x3BD SWAP2 SWAP1 PUSH2 0x223E JUMP JUMPDEST PUSH1 0x40 MLOAD DUP1 SWAP2 SUB SWAP1 RETURN JUMPDEST CALLVALUE DUP1 ISZERO PUSH2 0x3D2 JUMPI PUSH1 0x0 DUP1 REVERT JUMPDEST POP PUSH2 0x3ED PUSH1 0x4 DUP1 CALLDATASIZE SUB DUP2 ADD SWAP1 PUSH2 0x3E8 SWAP2 SWAP1 PUSH2 0x245C JUMP JUMPDEST PUSH2 0x1408 JUMP JUMPDEST STOP JUMPDEST PUSH2 0x409 PUSH1 0x4 DUP1 CALLDATASIZE SUB DUP2 ADD SWAP1 PUSH2 0x404 SWAP2 SWAP1 PUSH2 0x1F08 JUMP JUMPDEST PUSH2 0x1961 JUMP JUMPDEST STOP JUMPDEST CALLVALUE DUP1 ISZERO PUSH2 0x417 JUMPI PUSH1 0x0 DUP1 REVERT JUMPDEST POP PUSH2 0x432 PUSH1 0x4 DUP1 CALLDATASIZE SUB DUP2 ADD SWAP1 PUSH2 0x42D SWAP2 SWAP1 PUSH2 0x1F08 JUMP JUMPDEST PUSH2 0x1B09 JUMP JUMPDEST PUSH1 0x40 MLOAD PUSH2 0x43F SWAP2 SWAP1 PUSH2 0x24D0 JUMP JUMPDEST PUSH1 0x40 MLOAD DUP1 SWAP2 SUB SWAP1 RETURN JUMPDEST CALLVALUE DUP1 ISZERO PUSH2 0x454 JUMPI PUSH1 0x0 DUP1 REVERT JUMPDEST POP PUSH2 0x46F PUSH1 0x4 DUP1 CALLDATASIZE SUB DUP2 ADD SWAP1 PUSH2 0x46A SWAP2 SWAP1 PUSH2 0x1E6F JUMP JUMPDEST PUSH2 0x1B8A JUMP JUMPDEST STOP JUMPDEST CALLVALUE DUP1 ISZERO PUSH2 0x47D JUMPI PUSH1 0x0 DUP1 REVERT JUMPDEST POP PUSH2 0x498 PUSH1 0x4 DUP1 CALLDATASIZE SUB DUP2 ADD SWAP1 PUSH2 0x493 SWAP2 SWAP1 PUSH2 0x1F08 JUMP JUMPDEST PUSH2 0x1DA3 JUMP JUMPDEST PUSH1 0x40 MLOAD PUSH2 0x4A5 SWAP2 SWAP1 PUSH2 0x1EB7 JUMP JUMPDEST PUSH1 0x40 MLOAD DUP1 SWAP2 SUB SWAP1 RETURN JUMPDEST CALLVALUE DUP1 ISZERO PUSH2 0x4BA JUMPI PUSH1 0x0 DUP1 REVERT JUMPDEST POP PUSH2 0x4D5 PUSH1 0x4 DUP1 CALLDATASIZE SUB DUP2 ADD SWAP1 PUSH2 0x4D0 SWAP2 SWAP1 PUSH2 0x1F08 JUMP JUMPDEST PUSH2 0x1DC3 JUMP JUMPDEST PUSH1 0x40 MLOAD PUSH2 0x4E2 SWAP2 SWAP1 PUSH2 0x223E JUMP JUMPDEST PUSH1 0x40 MLOAD DUP1 SWAP2 SUB SWAP1 RETURN JUMPDEST CALLVALUE DUP1 ISZERO PUSH2 0x4F7 JUMPI PUSH1 0x0 DUP1 REVERT JUMPDEST POP PUSH2 0x500 PUSH2 0x1DDB JUMP JUMPDEST PUSH1 0x40 MLOAD PUSH2 0x50D SWAP2 SWAP1 PUSH2 0x223E JUMP JUMPDEST PUSH1 0x40 MLOAD DUP1 SWAP2 SUB SWAP1 RETURN JUMPDEST CALLVALUE DUP1 ISZERO PUSH2 0x522 JUMPI PUSH1 0x0 DUP1 REVERT JUMPDEST POP PUSH2 0x52B PUSH2 0x1DE1 JUMP JUMPDEST PUSH1 0x40 MLOAD PUSH2 0x538 SWAP2 SWAP1 PUSH2 0x24D0 JUMP JUMPDEST PUSH1 0x40 MLOAD DUP1 SWAP2 SUB SWAP1 RETURN JUMPDEST PUSH1 0x0 PUSH1 0x20 MSTORE DUP1 PUSH1 0x0 MSTORE PUSH1 0x40 PUSH1 0x0 KECCAK256 PUSH1 0x0 SWAP2 POP SLOAD SWAP1 PUSH2 0x100 EXP SWAP1 DIV PUSH1 0xFF AND DUP2 JUMP JUMPDEST PUSH1 0x0 DUP1 PUSH1 0x0 DUP1 PUSH1 0x0 PUSH1 0x8 PUSH1 0x0 DUP8 DUP2 MSTORE PUSH1 0x20 ADD SWAP1 DUP2 MSTORE PUSH1 0x20 ADD PUSH1 0x0 KECCAK256 SWAP1 POP DUP1 PUSH1 0x4 ADD PUSH1 0x0 SWAP1 SLOAD SWAP1 PUSH2 0x100 EXP SWAP1 DIV PUSH1 0xFF AND DUP2 PUSH1 0x4 ADD PUSH1 0x1 SWAP1 SLOAD SWAP1 PUSH2 0x100 EXP SWAP1 DIV PUSH1 0xFF AND DUP3 PUSH1 0x4 ADD PUSH1 0x2 SWAP1 SLOAD SWAP1 PUSH2 0x100 EXP SWAP1 DIV PUSH1 0xFF AND DUP4 PUSH1 0x4 ADD PUSH1 0x3 SWAP1 SLOAD SWAP1 PUSH2 0x100 EXP SWAP1 DIV PUSH1 0xFF AND SWAP5 POP SWAP5 POP SWAP5 POP SWAP5 POP POP SWAP2 SWAP4 POP SWAP2 SWAP4 JUMP JUMPDEST PUSH1 0x60 PUSH1 0x0 PUSH1 0x8 PUSH1 0x0 DUP5 DUP2 MSTORE PUSH1 0x20 ADD SWAP1 DUP2 MSTORE PUSH1 0x20 ADD PUSH1 0x0 KECCAK256 SWAP1 POP PUSH1 0x0 DUP1 JUMPDEST PUSH1 0x3 SLOAD DUP2 LT ISZERO PUSH2 0x681 JUMPI PUSH1 0x0 PUSH2 0x608 DUP3 PUSH2 0x1B09 JUMP JUMPDEST SWAP1 POP DUP4 PUSH1 0x7 ADD PUSH1 0x0 DUP3 PUSH20 0xFFFFFFFFFFFFFFFFFFFFFFFFFFFFFFFFFFFFFFFF AND PUSH20 0xFFFFFFFFFFFFFFFFFFFFFFFFFFFFFFFFFFFFFFFF AND DUP2 MSTORE PUSH1 0x20 ADD SWAP1 DUP2 MSTORE PUSH1 0x20 ADD PUSH1 0x0 KECCAK256 PUSH1 0x0 SWAP1 SLOAD SWAP1 PUSH2 0x100 EXP SWAP1 DIV PUSH1 0xFF AND ISZERO PUSH2 0x66D JUMPI DUP3 DUP1 PUSH2 0x669 SWAP1 PUSH2 0x251A JUMP JUMPDEST SWAP4 POP POP JUMPDEST POP DUP1 DUP1 PUSH2 0x679 SWAP1 PUSH2 0x251A JUMP JUMPDEST SWAP2 POP POP PUSH2 0x5F3 JUMP JUMPDEST POP PUSH1 0x0 DUP2 PUSH8 0xFFFFFFFFFFFFFFFF DUP2 GT ISZERO PUSH2 0x69E JUMPI PUSH2 0x69D PUSH2 0x2562 JUMP JUMPDEST JUMPDEST PUSH1 0x40 MLOAD SWAP1 DUP1 DUP3 MSTORE DUP1 PUSH1 0x20 MUL PUSH1 0x20 ADD DUP3 ADD PUSH1 0x40 MSTORE DUP1 ISZERO PUSH2 0x6CC JUMPI DUP2 PUSH1 0x20 ADD PUSH1 0x20 DUP3 MUL DUP1 CALLDATASIZE DUP4 CALLDATACOPY DUP1 DUP3 ADD SWAP2 POP POP SWAP1 POP JUMPDEST POP SWAP1 POP PUSH1 0x0 DUP1 JUMPDEST PUSH1 0x3 SLOAD DUP2 LT ISZERO PUSH2 0x7AF JUMPI PUSH1 0x0 PUSH2 0x6E8 DUP3 PUSH2 0x1B09 JUMP JUMPDEST SWAP1 POP DUP6 PUSH1 0x7 ADD PUSH1 0x0 DUP3 PUSH20 0xFFFFFFFFFFFFFFFFFFFFFFFFFFFFFFFFFFFFFFFF AND PUSH20 0xFFFFFFFFFFFFFFFFFFFFFFFFFFFFFFFFFFFFFFFF AND DUP2 MSTORE PUSH1 0x20 ADD SWAP1 DUP2 MSTORE PUSH1 0x20 ADD PUSH1 0x0 KECCAK256 PUSH1 0x0 SWAP1 SLOAD SWAP1 PUSH2 0x100 EXP SWAP1 DIV PUSH1 0xFF AND ISZERO PUSH2 0x79B JUMPI DUP1 DUP5 DUP5 DUP2 MLOAD DUP2 LT PUSH2 0x752 JUMPI PUSH2 0x751 PUSH2 0x2591 JUMP JUMPDEST JUMPDEST PUSH1 0x20 MUL PUSH1 0x20 ADD ADD SWAP1 PUSH20 0xFFFFFFFFFFFFFFFFFFFFFFFFFFFFFFFFFFFFFFFF AND SWAP1 DUP2 PUSH20 0xFFFFFFFFFFFFFFFFFFFFFFFFFFFFFFFFFFFFFFFF AND DUP2 MSTORE POP POP DUP3 DUP1 PUSH2 0x797 SWAP1 PUSH2 0x251A JUMP JUMPDEST SWAP4 POP POP JUMPDEST POP DUP1 DUP1 PUSH2 0x7A7 SWAP1 PUSH2 0x251A JUMP JUMPDEST SWAP2 POP POP PUSH2 0x6D3 JUMP JUMPDEST POP DUP2 SWAP5 POP POP POP POP POP SWAP2 SWAP1 POP JUMP JUMPDEST PUSH1 0x2 PUSH1 0x0 SWAP1 SLOAD SWAP1 PUSH2 0x100 EXP SWAP1 DIV PUSH20 0xFFFFFFFFFFFFFFFFFFFFFFFFFFFFFFFFFFFFFFFF AND PUSH20 0xFFFFFFFFFFFFFFFFFFFFFFFFFFFFFFFFFFFFFFFF AND CALLER PUSH20 0xFFFFFFFFFFFFFFFFFFFFFFFFFFFFFFFFFFFFFFFF AND EQ PUSH2 0x84C JUMPI PUSH1 0x40 MLOAD PUSH32 0x8C379A000000000000000000000000000000000000000000000000000000000 DUP2 MSTORE PUSH1 0x4 ADD PUSH2 0x843 SWAP1 PUSH2 0x260C JUMP JUMPDEST PUSH1 0x40 MLOAD DUP1 SWAP2 SUB SWAP1 REVERT JUMPDEST PUSH1 0x0 PUSH1 0x4 SLOAD SWAP1 POP DUP2 PUSH1 0x4 DUP2 SWAP1 SSTORE POP PUSH32 0x9B80B0E663D4AD3B436D74A19943BF001847CB4A899FEE0FE43EA97D80655288 DUP2 DUP4 PUSH1 0x40 MLOAD PUSH2 0x88B SWAP3 SWAP2 SWAP1 PUSH2 0x262C JUMP JUMPDEST PUSH1 0x40 MLOAD DUP1 SWAP2 SUB SWAP1 LOG1 POP POP JUMP JUMPDEST PUSH1 0x0 PUSH1 0x8 PUSH1 0x0 DUP4 DUP2 MSTORE PUSH1 0x20 ADD SWAP1 DUP2 MSTORE PUSH1 0x20 ADD PUSH1 0x0 KECCAK256 SWAP1 POP CALLER PUSH20 0xFFFFFFFFFFFFFFFFFFFFFFFFFFFFFFFFFFFFFFFF AND DUP2 PUSH1 0x0 ADD PUSH1 0x0 SWAP1 SLOAD SWAP1 PUSH2 0x100 EXP SWAP1 DIV PUSH20 0xFFFFFFFFFFFFFFFFFFFFFFFFFFFFFFFFFFFFFFFF AND PUSH20 0xFFFFFFFFFFFFFFFFFFFFFFFFFFFFFFFFFFFFFFFF AND EQ PUSH2 0x940 JUMPI PUSH1 0x40 MLOAD PUSH32 0x8C379A000000000000000000000000000000000000000000000000000000000 DUP2 MSTORE PUSH1 0x4 ADD PUSH2 0x937 SWAP1 PUSH2 0x26A1 JUMP JUMPDEST PUSH1 0x40 MLOAD DUP1 SWAP2 SUB SWAP1 REVERT JUMPDEST PUSH1 0x1 ISZERO ISZERO DUP2 PUSH1 0x4 ADD PUSH1 0x0 SWAP1 SLOAD SWAP1 PUSH2 0x100 EXP SWAP1 DIV PUSH1 0xFF AND ISZERO ISZERO EQ PUSH2 0x998 JUMPI PUSH1 0x40 MLOAD PUSH32 0x8C379A000000000000000000000000000000000000000000000000000000000 DUP2 MSTORE PUSH1 0x4 ADD PUSH2 0x98F SWAP1 PUSH2 0x270D JUMP JUMPDEST PUSH1 0x40 MLOAD DUP1 SWAP2 SUB SWAP1 REVERT JUMPDEST PUSH1 0x1 ISZERO ISZERO DUP2 PUSH1 0x4 ADD PUSH1 0x1 SWAP1 SLOAD SWAP1 PUSH2 0x100 EXP SWAP1 DIV PUSH1 0xFF AND ISZERO ISZERO EQ PUSH2 0x9F0 JUMPI PUSH1 0x40 MLOAD PUSH32 0x8C379A000000000000000000000000000000000000000000000000000000000 DUP2 MSTORE PUSH1 0x4 ADD PUSH2 0x9E7 SWAP1 PUSH2 0x2779 JUMP JUMPDEST PUSH1 0x40 MLOAD DUP1 SWAP2 SUB SWAP1 REVERT JUMPDEST PUSH1 0x6 PUSH1 0x0 DUP4 DUP2 MSTORE PUSH1 0x20 ADD SWAP1 DUP2 MSTORE PUSH1 0x20 ADD PUSH1 0x0 KECCAK256 PUSH1 0x0 SWAP1 SLOAD SWAP1 PUSH2 0x100 EXP SWAP1 DIV PUSH1 0xFF AND ISZERO PUSH2 0xA51 JUMPI PUSH1 0x40 MLOAD PUSH32 0x8C379A000000000000000000000000000000000000000000000000000000000 DUP2 MSTORE PUSH1 0x4 ADD PUSH2 0xA48 SWAP1 PUSH2 0x27E5 JUMP JUMPDEST PUSH1 0x40 MLOAD DUP1 SWAP2 SUB SWAP1 REVERT JUMPDEST PUSH1 0x1 PUSH1 0x6 PUSH1 0x0 DUP5 DUP2 MSTORE PUSH1 0x20 ADD SWAP1 DUP2 MSTORE PUSH1 0x20 ADD PUSH1 0x0 KECCAK256 PUSH1 0x0 PUSH2 0x100 EXP DUP2 SLOAD DUP2 PUSH1 0xFF MUL NOT AND SWAP1 DUP4 ISZERO ISZERO MUL OR SWAP1 SSTORE POP CALLER PUSH20 0xFFFFFFFFFFFFFFFFFFFFFFFFFFFFFFFFFFFFFFFF AND PUSH2 0x8FC PUSH1 0x5 PUSH1 0x0 DUP6 DUP2 MSTORE PUSH1 0x20 ADD SWAP1 DUP2 MSTORE PUSH1 0x20 ADD PUSH1 0x0 KECCAK256 SLOAD SWAP1 DUP2 ISZERO MUL SWAP1 PUSH1 0x40 MLOAD PUSH1 0x0 PUSH1 0x40 MLOAD DUP1 DUP4 SUB DUP2 DUP6 DUP9 DUP9 CALL SWAP4 POP POP POP POP ISZERO DUP1 ISZERO PUSH2 0xAD6 JUMPI RETURNDATASIZE PUSH1 0x0 DUP1 RETURNDATACOPY RETURNDATASIZE PUSH1 0x0 REVERT JUMPDEST POP PUSH32 0xD736493ECE6B7D52E34DD028D3D9D0AA75DE37339F3DA6B3514E70E231ED2A5 DUP3 CALLER PUSH1 0x5 PUSH1 0x0 DUP7 DUP2 MSTORE PUSH1 0x20 ADD SWAP1 DUP2 MSTORE PUSH1 0x20 ADD PUSH1 0x0 KECCAK256 SLOAD PUSH1 0x40 MLOAD PUSH2 0xB1D SWAP4 SWAP3 SWAP2 SWAP1 PUSH2 0x2805 JUMP JUMPDEST PUSH1 0x40 MLOAD DUP1 SWAP2 SUB SWAP1 LOG1 POP POP JUMP JUMPDEST PUSH1 0x60 PUSH1 0x8 PUSH1 0x0 DUP5 DUP2 MSTORE PUSH1 0x20 ADD SWAP1 DUP2 MSTORE PUSH1 0x20 ADD PUSH1 0x0 KECCAK256 PUSH1 0x8 ADD PUSH1 0x0 DUP4 PUSH20 0xFFFFFFFFFFFFFFFFFFFFFFFFFFFFFFFFFFFFFFFF AND PUSH20 0xFFFFFFFFFFFFFFFFFFFFFFFFFFFFFFFFFFFFFFFF AND DUP2 MSTORE PUSH1 0x20 ADD SWAP1 DUP2 MSTORE PUSH1 0x20 ADD PUSH1 0x0 KECCAK256 DUP1 SLOAD PUSH2 0xB89 SWAP1 PUSH2 0x286B JUMP JUMPDEST DUP1 PUSH1 0x1F ADD PUSH1 0x20 DUP1 SWAP2 DIV MUL PUSH1 0x20 ADD PUSH1 0x40 MLOAD SWAP1 DUP2 ADD PUSH1 0x40 MSTORE DUP1 SWAP3 SWAP2 SWAP1 DUP2 DUP2 MSTORE PUSH1 0x20 ADD DUP3 DUP1 SLOAD PUSH2 0xBB5 SWAP1 PUSH2 0x286B JUMP JUMPDEST DUP1 ISZERO PUSH2 0xC02 JUMPI DUP1 PUSH1 0x1F LT PUSH2 0xBD7 JUMPI PUSH2 0x100 DUP1 DUP4 SLOAD DIV MUL DUP4 MSTORE SWAP2 PUSH1 0x20 ADD SWAP2 PUSH2 0xC02 JUMP JUMPDEST DUP3 ADD SWAP2 SWAP1 PUSH1 0x0 MSTORE PUSH1 0x20 PUSH1 0x0 KECCAK256 SWAP1 JUMPDEST DUP2 SLOAD DUP2 MSTORE SWAP1 PUSH1 0x1 ADD SWAP1 PUSH1 0x20 ADD DUP1 DUP4 GT PUSH2 0xBE5 JUMPI DUP3 SWAP1 SUB PUSH1 0x1F AND DUP3 ADD SWAP2 JUMPDEST POP POP POP POP POP SWAP1 POP SWAP3 SWAP2 POP POP JUMP JUMPDEST PUSH1 0x8 PUSH1 0x20 MSTORE DUP1 PUSH1 0x0 MSTORE PUSH1 0x40 PUSH1 0x0 KECCAK256 PUSH1 0x0 SWAP2 POP SWAP1 POP DUP1 PUSH1 0x0 ADD PUSH1 0x0 SWAP1 SLOAD SWAP1 PUSH2 0x100 EXP SWAP1 DIV PUSH20 0xFFFFFFFFFFFFFFFFFFFFFFFFFFFFFFFFFFFFFFFF AND SWAP1 DUP1 PUSH1 0x1 ADD DUP1 SLOAD PUSH2 0xC58 SWAP1 PUSH2 0x286B JUMP JUMPDEST DUP1 PUSH1 0x1F ADD PUSH1 0x20 DUP1 SWAP2 DIV MUL PUSH1 0x20 ADD PUSH1 0x40 MLOAD SWAP1 DUP2 ADD PUSH1 0x40 MSTORE DUP1 SWAP3 SWAP2 SWAP1 DUP2 DUP2 MSTORE PUSH1 0x20 ADD DUP3 DUP1 SLOAD PUSH2 0xC84 SWAP1 PUSH2 0x286B JUMP JUMPDEST DUP1 ISZERO PUSH2 0xCD1 JUMPI DUP1 PUSH1 0x1F LT PUSH2 0xCA6 JUMPI PUSH2 0x100 DUP1 DUP4 SLOAD DIV MUL DUP4 MSTORE SWAP2 PUSH1 0x20 ADD SWAP2 PUSH2 0xCD1 JUMP JUMPDEST DUP3 ADD SWAP2 SWAP1 PUSH1 0x0 MSTORE PUSH1 0x20 PUSH1 0x0 KECCAK256 SWAP1 JUMPDEST DUP2 SLOAD DUP2 MSTORE SWAP1 PUSH1 0x1 ADD SWAP1 PUSH1 0x20 ADD DUP1 DUP4 GT PUSH2 0xCB4 JUMPI DUP3 SWAP1 SUB PUSH1 0x1F AND DUP3 ADD SWAP2 JUMPDEST POP POP POP POP POP SWAP1 DUP1 PUSH1 0x2 ADD DUP1 SLOAD PUSH2 0xCE6 SWAP1 PUSH2 0x286B JUMP JUMPDEST DUP1 PUSH1 0x1F ADD PUSH1 0x20 DUP1 SWAP2 DIV MUL PUSH1 0x20 ADD PUSH1 0x40 MLOAD SWAP1 DUP2 ADD PUSH1 0x40 MSTORE DUP1 SWAP3 SWAP2 SWAP1 DUP2 DUP2 MSTORE PUSH1 0x20 ADD DUP3 DUP1 SLOAD PUSH2 0xD12 SWAP1 PUSH2 0x286B JUMP JUMPDEST DUP1 ISZERO PUSH2 0xD5F JUMPI DUP1 PUSH1 0x1F LT PUSH2 0xD34 JUMPI PUSH2 0x100 DUP1 DUP4 SLOAD DIV MUL DUP4 MSTORE SWAP2 PUSH1 0x20 ADD SWAP2 PUSH2 0xD5F JUMP JUMPDEST DUP3 ADD SWAP2 SWAP1 PUSH1 0x0 MSTORE PUSH1 0x20 PUSH1 0x0 KECCAK256 SWAP1 JUMPDEST DUP2 SLOAD DUP2 MSTORE SWAP1 PUSH1 0x1 ADD SWAP1 PUSH1 0x20 ADD DUP1 DUP4 GT PUSH2 0xD42 JUMPI DUP3 SWAP1 SUB PUSH1 0x1F AND DUP3 ADD SWAP2 JUMPDEST POP POP POP POP POP SWAP1 DUP1 PUSH1 0x3 ADD SLOAD SWAP1 DUP1 PUSH1 0x4 ADD PUSH1 0x0 SWAP1 SLOAD SWAP1 PUSH2 0x100 EXP SWAP1 DIV PUSH1 0xFF AND SWAP1 DUP1 PUSH1 0x4 ADD PUSH1 0x1 SWAP1 SLOAD SWAP1 PUSH2 0x100 EXP SWAP1 DIV PUSH1 0xFF AND SWAP1 DUP1 PUSH1 0x4 ADD PUSH1 0x2 SWAP1 SLOAD SWAP1 PUSH2 0x100 EXP SWAP1 DIV PUSH1 0xFF AND SWAP1 DUP1 PUSH1 0x4 ADD PUSH1 0x3 SWAP1 SLOAD SWAP1 PUSH2 0x100 EXP SWAP1 DIV PUSH1 0xFF AND SWAP1 DUP1 PUSH1 0x5 ADD DUP1 SLOAD PUSH2 0xDC6 SWAP1 PUSH2 0x286B JUMP JUMPDEST DUP1 PUSH1 0x1F ADD PUSH1 0x20 DUP1 SWAP2 DIV MUL PUSH1 0x20 ADD PUSH1 0x40 MLOAD SWAP1 DUP2 ADD PUSH1 0x40 MSTORE DUP1 SWAP3 SWAP2 SWAP1 DUP2 DUP2 MSTORE PUSH1 0x20 ADD DUP3 DUP1 SLOAD PUSH2 0xDF2 SWAP1 PUSH2 0x286B JUMP JUMPDEST DUP1 ISZERO PUSH2 0xE3F JUMPI DUP1 PUSH1 0x1F LT PUSH2 0xE14 JUMPI PUSH2 0x100 DUP1 DUP4 SLOAD DIV MUL DUP4 MSTORE SWAP2 PUSH1 0x20 ADD SWAP2 PUSH2 0xE3F JUMP JUMPDEST DUP3 ADD SWAP2 SWAP1 PUSH1 0x0 MSTORE PUSH1 0x20 PUSH1 0x0 KECCAK256 SWAP1 JUMPDEST DUP2 SLOAD DUP2 MSTORE SWAP1 PUSH1 0x1 ADD SWAP1 PUSH1 0x20 ADD DUP1 DUP4 GT PUSH2 0xE22 JUMPI DUP3 SWAP1 SUB PUSH1 0x1F AND DUP3 ADD SWAP2 JUMPDEST POP POP POP POP POP SWAP1 DUP1 PUSH1 0x6 ADD DUP1 SLOAD PUSH2 0xE54 SWAP1 PUSH2 0x286B JUMP JUMPDEST DUP1 PUSH1 0x1F ADD PUSH1 0x20 DUP1 SWAP2 DIV MUL PUSH1 0x20 ADD PUSH1 0x40 MLOAD SWAP1 DUP2 ADD PUSH1 0x40 MSTORE DUP1 SWAP3 SWAP2 SWAP1 DUP2 DUP2 MSTORE PUSH1 0x20 ADD DUP3 DUP1 SLOAD PUSH2 0xE80 SWAP1 PUSH2 0x286B JUMP JUMPDEST DUP1 ISZERO PUSH2 0xECD JUMPI DUP1 PUSH1 0x1F LT PUSH2 0xEA2 JUMPI PUSH2 0x100 DUP1 DUP4 SLOAD DIV MUL DUP4 MSTORE SWAP2 PUSH1 0x20 ADD SWAP2 PUSH2 0xECD JUMP JUMPDEST DUP3 ADD SWAP2 SWAP1 PUSH1 0x0 MSTORE PUSH1 0x20 PUSH1 0x0 KECCAK256 SWAP1 JUMPDEST DUP2 SLOAD DUP2 MSTORE SWAP1 PUSH1 0x1 ADD SWAP1 PUSH1 0x20 ADD DUP1 DUP4 GT PUSH2 0xEB0 JUMPI DUP3 SWAP1 SUB PUSH1 0x1F AND DUP3 ADD SWAP2 JUMPDEST POP POP POP POP POP SWAP1 POP DUP11 JUMP JUMPDEST PUSH1 0x4 SLOAD DUP2 JUMP JUMPDEST PUSH1 0x3 SLOAD DUP2 JUMP JUMPDEST PUSH1 0x4 SLOAD CALLVALUE LT ISZERO PUSH2 0xF28 JUMPI PUSH1 0x40 MLOAD PUSH32 0x8C379A000000000000000000000000000000000000000000000000000000000 DUP2 MSTORE PUSH1 0x4 ADD PUSH2 0xF1F SWAP1 PUSH2 0x28E8 JUMP JUMPDEST PUSH1 0x40 MLOAD DUP1 SWAP2 SUB SWAP1 REVERT JUMPDEST PUSH1 0x0 PUSH1 0x9 SLOAD SWAP1 POP PUSH1 0x0 PUSH1 0x8 PUSH1 0x0 DUP4 DUP2 MSTORE PUSH1 0x20 ADD SWAP1 DUP2 MSTORE PUSH1 0x20 ADD PUSH1 0x0 KECCAK256 SWAP1 POP CALLER DUP2 PUSH1 0x0 ADD PUSH1 0x0 PUSH2 0x100 EXP DUP2 SLOAD DUP2 PUSH20 0xFFFFFFFFFFFFFFFFFFFFFFFFFFFFFFFFFFFFFFFF MUL NOT AND SWAP1 DUP4 PUSH20 0xFFFFFFFFFFFFFFFFFFFFFFFFFFFFFFFFFFFFFFFF AND MUL OR SWAP1 SSTORE POP DUP11 DUP11 DUP3 PUSH1 0x1 ADD SWAP2 DUP3 PUSH2 0xF9C SWAP3 SWAP2 SWAP1 PUSH2 0x2ABF JUMP JUMPDEST POP DUP9 DUP9 DUP3 PUSH1 0x2 ADD SWAP2 DUP3 PUSH2 0xFB0 SWAP3 SWAP2 SWAP1 PUSH2 0x2ABF JUMP JUMPDEST POP DUP7 DUP2 PUSH1 0x3 ADD DUP2 SWAP1 SSTORE POP PUSH1 0x0 DUP2 PUSH1 0x4 ADD PUSH1 0x0 PUSH2 0x100 EXP DUP2 SLOAD DUP2 PUSH1 0xFF MUL NOT AND SWAP1 DUP4 ISZERO ISZERO MUL OR SWAP1 SSTORE POP PUSH1 0x0 DUP2 PUSH1 0x4 ADD PUSH1 0x1 PUSH2 0x100 EXP DUP2 SLOAD DUP2 PUSH1 0xFF MUL NOT AND SWAP1 DUP4 ISZERO ISZERO MUL OR SWAP1 SSTORE POP DUP6 DUP6 DUP3 PUSH1 0x5 ADD SWAP2 DUP3 PUSH2 0x1007 SWAP3 SWAP2 SWAP1 PUSH2 0x2ABF JUMP JUMPDEST POP DUP4 DUP4 DUP3 PUSH1 0x6 ADD SWAP2 DUP3 PUSH2 0x101B SWAP3 SWAP2 SWAP1 PUSH2 0x2ABF JUMP JUMPDEST POP CALLVALUE PUSH1 0x5 PUSH1 0x0 DUP5 DUP2 MSTORE PUSH1 0x20 ADD SWAP1 DUP2 MSTORE PUSH1 0x20 ADD PUSH1 0x0 KECCAK256 DUP2 SWAP1 SSTORE POP PUSH1 0x0 PUSH1 0x6 PUSH1 0x0 DUP5 DUP2 MSTORE PUSH1 0x20 ADD SWAP1 DUP2 MSTORE PUSH1 0x20 ADD PUSH1 0x0 KECCAK256 PUSH1 0x0 PUSH2 0x100 EXP DUP2 SLOAD DUP2 PUSH1 0xFF MUL NOT AND SWAP1 DUP4 ISZERO ISZERO MUL OR SWAP1 SSTORE POP PUSH32 0xB3EA4B5389EBDFDE0FD6521BA6B05A830220CC72BEDEBCD0D0D44B1D916C21C4 DUP3 CALLER DUP7 DUP7 PUSH1 0x40 MLOAD PUSH2 0x1095 SWAP5 SWAP4 SWAP3 SWAP2 SWAP1 PUSH2 0x2BCB JUMP JUMPDEST PUSH1 0x40 MLOAD DUP1 SWAP2 SUB SWAP1 LOG1 PUSH1 0x9 PUSH1 0x0 DUP2 SLOAD DUP1 SWAP3 SWAP2 SWAP1 PUSH2 0x10B0 SWAP1 PUSH2 0x251A JUMP JUMPDEST SWAP2 SWAP1 POP SSTORE POP POP POP POP POP POP POP POP POP POP POP POP JUMP JUMPDEST PUSH1 0x0 PUSH1 0x60 PUSH1 0x0 PUSH1 0x60 DUP1 PUSH1 0x0 DUP1 PUSH1 0x8 PUSH1 0x0 DUP10 DUP2 MSTORE PUSH1 0x20 ADD SWAP1 DUP2 MSTORE PUSH1 0x20 ADD PUSH1 0x0 KECCAK256 SWAP1 POP DUP1 PUSH1 0x0 ADD PUSH1 0x0 SWAP1 SLOAD SWAP1 PUSH2 0x100 EXP SWAP1 DIV PUSH20 0xFFFFFFFFFFFFFFFFFFFFFFFFFFFFFFFFFFFFFFFF AND DUP2 PUSH1 0x1 ADD DUP3 PUSH1 0x3 ADD SLOAD DUP4 PUSH1 0x5 ADD DUP5 PUSH1 0x6 ADD DUP6 PUSH1 0x4 ADD PUSH1 0x1 SWAP1 SLOAD SWAP1 PUSH2 0x100 EXP SWAP1 DIV PUSH1 0xFF AND DUP5 DUP1 SLOAD PUSH2 0x1137 SWAP1 PUSH2 0x286B JUMP JUMPDEST DUP1 PUSH1 0x1F ADD PUSH1 0x20 DUP1 SWAP2 DIV MUL PUSH1 0x20 ADD PUSH1 0x40 MLOAD SWAP1 DUP2 ADD PUSH1 0x40 MSTORE DUP1 SWAP3 SWAP2 SWAP1 DUP2 DUP2 MSTORE PUSH1 0x20 ADD DUP3 DUP1 SLOAD PUSH2 0x1163 SWAP1 PUSH2 0x286B JUMP JUMPDEST DUP1 ISZERO PUSH2 0x11B0 JUMPI DUP1 PUSH1 0x1F LT PUSH2 0x1185 JUMPI PUSH2 0x100 DUP1 DUP4 SLOAD DIV MUL DUP4 MSTORE SWAP2 PUSH1 0x20 ADD SWAP2 PUSH2 0x11B0 JUMP JUMPDEST DUP3 ADD SWAP2 SWAP1 PUSH1 0x0 MSTORE PUSH1 0x20 PUSH1 0x0 KECCAK256 SWAP1 JUMPDEST DUP2 SLOAD DUP2 MSTORE SWAP1 PUSH1 0x1 ADD SWAP1 PUSH1 0x20 ADD DUP1 DUP4 GT PUSH2 0x1193 JUMPI DUP3 SWAP1 SUB PUSH1 0x1F AND DUP3 ADD SWAP2 JUMPDEST POP POP POP POP POP SWAP5 POP DUP3 DUP1 SLOAD PUSH2 0x11C3 SWAP1 PUSH2 0x286B JUMP JUMPDEST DUP1 PUSH1 0x1F ADD PUSH1 0x20 DUP1 SWAP2 DIV MUL PUSH1 0x20 ADD PUSH1 0x40 MLOAD SWAP1 DUP2 ADD PUSH1 0x40 MSTORE DUP1 SWAP3 SWAP2 SWAP1 DUP2 DUP2 MSTORE PUSH1 0x20 ADD DUP3 DUP1 SLOAD PUSH2 0x11EF SWAP1 PUSH2 0x286B JUMP JUMPDEST DUP1 ISZERO PUSH2 0x123C JUMPI DUP1 PUSH1 0x1F LT PUSH2 0x1211 JUMPI PUSH2 0x100 DUP1 DUP4 SLOAD DIV MUL DUP4 MSTORE SWAP2 PUSH1 0x20 ADD SWAP2 PUSH2 0x123C JUMP JUMPDEST DUP3 ADD SWAP2 SWAP1 PUSH1 0x0 MSTORE PUSH1 0x20 PUSH1 0x0 KECCAK256 SWAP1 JUMPDEST DUP2 SLOAD DUP2 MSTORE SWAP1 PUSH1 0x1 ADD SWAP1 PUSH1 0x20 ADD DUP1 DUP4 GT PUSH2 0x121F JUMPI DUP3 SWAP1 SUB PUSH1 0x1F AND DUP3 ADD SWAP2 JUMPDEST POP POP POP POP POP SWAP3 POP DUP2 DUP1 SLOAD PUSH2 0x124F SWAP1 PUSH2 0x286B JUMP JUMPDEST DUP1 PUSH1 0x1F ADD PUSH1 0x20 DUP1 SWAP2 DIV MUL PUSH1 0x20 ADD PUSH1 0x40 MLOAD SWAP1 DUP2 ADD PUSH1 0x40 MSTORE DUP1 SWAP3 SWAP2 SWAP1 DUP2 DUP2 MSTORE PUSH1 0x20 ADD DUP3 DUP1 SLOAD PUSH2 0x127B SWAP1 PUSH2 0x286B JUMP JUMPDEST DUP1 ISZERO PUSH2 0x12C8 JUMPI DUP1 PUSH1 0x1F LT PUSH2 0x129D JUMPI PUSH2 0x100 DUP1 DUP4 SLOAD DIV MUL DUP4 MSTORE SWAP2 PUSH1 0x20 ADD SWAP2 PUSH2 0x12C8 JUMP JUMPDEST DUP3 ADD SWAP2 SWAP1 PUSH1 0x0 MSTORE PUSH1 0x20 PUSH1 0x0 KECCAK256 SWAP1 JUMPDEST DUP2 SLOAD DUP2 MSTORE SWAP1 PUSH1 0x1 ADD SWAP1 PUSH1 0x20 ADD DUP1 DUP4 GT PUSH2 0x12AB JUMPI DUP3 SWAP1 SUB PUSH1 0x1F AND DUP3 ADD SWAP2 JUMPDEST POP POP POP POP POP SWAP2 POP SWAP7 POP SWAP7 POP SWAP7 POP SWAP7 POP SWAP7 POP SWAP7 POP POP SWAP2 SWAP4 SWAP6 POP SWAP2 SWAP4 SWAP6 JUMP JUMPDEST PUSH1 0x2 PUSH1 0x0 SWAP1 SLOAD SWAP1 PUSH2 0x100 EXP SWAP1 DIV PUSH20 0xFFFFFFFFFFFFFFFFFFFFFFFFFFFFFFFFFFFFFFFF AND PUSH20 0xFFFFFFFFFFFFFFFFFFFFFFFFFFFFFFFFFFFFFFFF AND CALLER PUSH20 0xFFFFFFFFFFFFFFFFFFFFFFFFFFFFFFFFFFFFFFFF AND EQ PUSH2 0x1375 JUMPI PUSH1 0x40 MLOAD PUSH32 0x8C379A000000000000000000000000000000000000000000000000000000000 DUP2 MSTORE PUSH1 0x4 ADD PUSH2 0x136C SWAP1 PUSH2 0x260C JUMP JUMPDEST PUSH1 0x40 MLOAD DUP1 SWAP2 SUB SWAP1 REVERT JUMPDEST PUSH1 0x0 DUP2 GT PUSH2 0x13B8 JUMPI PUSH1 0x40 MLOAD PUSH32 0x8C379A000000000000000000000000000000000000000000000000000000000 DUP2 MSTORE PUSH1 0x4 ADD PUSH2 0x13AF SWAP1 PUSH2 0x2C57 JUMP JUMPDEST PUSH1 0x40 MLOAD DUP1 SWAP2 SUB SWAP1 REVERT JUMPDEST PUSH1 0x0 PUSH1 0x7 SLOAD SWAP1 POP DUP2 PUSH1 0x7 DUP2 SWAP1 SSTORE POP PUSH31 0x6E92F39F1A5A73BFEE3D744C73EE7B41B82BC3584D4687B7C4712EFEC82158 DUP2 DUP4 PUSH1 0x40 MLOAD PUSH2 0x13F6 SWAP3 SWAP2 SWAP1 PUSH2 0x262C JUMP JUMPDEST PUSH1 0x40 MLOAD DUP1 SWAP2 SUB SWAP1 LOG1 POP POP JUMP JUMPDEST PUSH1 0x9 SLOAD DUP2 JUMP JUMPDEST PUSH1 0x0 DUP1 CALLER PUSH20 0xFFFFFFFFFFFFFFFFFFFFFFFFFFFFFFFFFFFFFFFF AND PUSH20 0xFFFFFFFFFFFFFFFFFFFFFFFFFFFFFFFFFFFFFFFF AND DUP2 MSTORE PUSH1 0x20 ADD SWAP1 DUP2 MSTORE PUSH1 0x20 ADD PUSH1 0x0 KECCAK256 PUSH1 0x0 SWAP1 SLOAD SWAP1 PUSH2 0x100 EXP SWAP1 DIV PUSH1 0xFF AND PUSH2 0x1493 JUMPI PUSH1 0x40 MLOAD PUSH32 0x8C379A000000000000000000000000000000000000000000000000000000000 DUP2 MSTORE PUSH1 0x4 ADD PUSH2 0x148A SWAP1 PUSH2 0x2CC3 JUMP JUMPDEST PUSH1 0x40 MLOAD DUP1 SWAP2 SUB SWAP1 REVERT JUMPDEST PUSH1 0x0 PUSH1 0x8 PUSH1 0x0 DUP7 DUP2 MSTORE PUSH1 0x20 ADD SWAP1 DUP2 MSTORE PUSH1 0x20 ADD PUSH1 0x0 KECCAK256 SWAP1 POP DUP1 PUSH1 0x4 ADD PUSH1 0x0 SWAP1 SLOAD SWAP1 PUSH2 0x100 EXP SWAP1 DIV PUSH1 0xFF AND ISZERO PUSH2 0x14FC JUMPI PUSH1 0x40 MLOAD PUSH32 0x8C379A000000000000000000000000000000000000000000000000000000000 DUP2 MSTORE PUSH1 0x4 ADD PUSH2 0x14F3 SWAP1 PUSH2 0x2D2F JUMP JUMPDEST PUSH1 0x40 MLOAD DUP1 SWAP2 SUB SWAP1 REVERT JUMPDEST DUP1 PUSH1 0x7 ADD PUSH1 0x0 CALLER PUSH20 0xFFFFFFFFFFFFFFFFFFFFFFFFFFFFFFFFFFFFFFFF AND PUSH20 0xFFFFFFFFFFFFFFFFFFFFFFFFFFFFFFFFFFFFFFFF AND DUP2 MSTORE PUSH1 0x20 ADD SWAP1 DUP2 MSTORE PUSH1 0x20 ADD PUSH1 0x0 KECCAK256 PUSH1 0x0 SWAP1 SLOAD SWAP1 PUSH2 0x100 EXP SWAP1 DIV PUSH1 0xFF AND ISZERO PUSH2 0x158B JUMPI PUSH1 0x40 MLOAD PUSH32 0x8C379A000000000000000000000000000000000000000000000000000000000 DUP2 MSTORE PUSH1 0x4 ADD PUSH2 0x1582 SWAP1 PUSH2 0x2D9B JUMP JUMPDEST PUSH1 0x40 MLOAD DUP1 SWAP2 SUB SWAP1 REVERT JUMPDEST CALLER PUSH20 0xFFFFFFFFFFFFFFFFFFFFFFFFFFFFFFFFFFFFFFFF AND DUP2 PUSH1 0x0 ADD PUSH1 0x0 SWAP1 SLOAD SWAP1 PUSH2 0x100 EXP SWAP1 DIV PUSH20 0xFFFFFFFFFFFFFFFFFFFFFFFFFFFFFFFFFFFFFFFF AND PUSH20 0xFFFFFFFFFFFFFFFFFFFFFFFFFFFFFFFFFFFFFFFF AND SUB PUSH2 0x161D JUMPI PUSH1 0x40 MLOAD PUSH32 0x8C379A000000000000000000000000000000000000000000000000000000000 DUP2 MSTORE PUSH1 0x4 ADD PUSH2 0x1614 SWAP1 PUSH2 0x2E07 JUMP JUMPDEST PUSH1 0x40 MLOAD DUP1 SWAP2 SUB SWAP1 REVERT JUMPDEST PUSH1 0x1 DUP2 PUSH1 0x7 ADD PUSH1 0x0 CALLER PUSH20 0xFFFFFFFFFFFFFFFFFFFFFFFFFFFFFFFFFFFFFFFF AND PUSH20 0xFFFFFFFFFFFFFFFFFFFFFFFFFFFFFFFFFFFFFFFF AND DUP2 MSTORE PUSH1 0x20 ADD SWAP1 DUP2 MSTORE PUSH1 0x20 ADD PUSH1 0x0 KECCAK256 PUSH1 0x0 PUSH2 0x100 EXP DUP2 SLOAD DUP2 PUSH1 0xFF MUL NOT AND SWAP1 DUP4 ISZERO ISZERO MUL OR SWAP1 SSTORE POP DUP3 DUP3 DUP3 PUSH1 0x8 ADD PUSH1 0x0 CALLER PUSH20 0xFFFFFFFFFFFFFFFFFFFFFFFFFFFFFFFFFFFFFFFF AND PUSH20 0xFFFFFFFFFFFFFFFFFFFFFFFFFFFFFFFFFFFFFFFF AND DUP2 MSTORE PUSH1 0x20 ADD SWAP1 DUP2 MSTORE PUSH1 0x20 ADD PUSH1 0x0 KECCAK256 SWAP2 DUP3 PUSH2 0x16C7 SWAP3 SWAP2 SWAP1 PUSH2 0x2ABF JUMP JUMPDEST POP DUP4 ISZERO PUSH2 0x170D JUMPI DUP1 PUSH1 0x4 ADD PUSH1 0x2 DUP2 DUP2 SWAP1 SLOAD SWAP1 PUSH2 0x100 EXP SWAP1 DIV PUSH1 0xFF AND DUP1 SWAP3 SWAP2 SWAP1 PUSH2 0x16EF SWAP1 PUSH2 0x2E27 JUMP JUMPDEST SWAP2 SWAP1 PUSH2 0x100 EXP DUP2 SLOAD DUP2 PUSH1 0xFF MUL NOT AND SWAP1 DUP4 PUSH1 0xFF AND MUL OR SWAP1 SSTORE POP POP PUSH2 0x1748 JUMP JUMPDEST DUP1 PUSH1 0x4 ADD PUSH1 0x3 DUP2 DUP2 SWAP1 SLOAD SWAP1 PUSH2 0x100 EXP SWAP1 DIV PUSH1 0xFF AND DUP1 SWAP3 SWAP2 SWAP1 PUSH2 0x172E SWAP1 PUSH2 0x2E27 JUMP JUMPDEST SWAP2 SWAP1 PUSH2 0x100 EXP DUP2 SLOAD DUP2 PUSH1 0xFF MUL NOT AND SWAP1 DUP4 PUSH1 0xFF AND MUL OR SWAP1 SSTORE POP POP JUMPDEST PUSH32 0x3718917F25BA08F882BEC3F1B29E583BF7D953E069BD09538AA37631587E7CE4 DUP6 CALLER DUP7 PUSH1 0x40 MLOAD PUSH2 0x177B SWAP4 SWAP3 SWAP2 SWAP1 PUSH2 0x2E50 JUMP JUMPDEST PUSH1 0x40 MLOAD DUP1 SWAP2 SUB SWAP1 LOG1 PUSH32 0xB964F54FAB911813ABC1E1D7B4D94F9307B89D38CBBD3666CB5AB97DCC1926E DUP6 CALLER DUP6 DUP6 PUSH1 0x40 MLOAD PUSH2 0x17B8 SWAP5 SWAP4 SWAP3 SWAP2 SWAP1 PUSH2 0x2BCB JUMP JUMPDEST PUSH1 0x40 MLOAD DUP1 SWAP2 SUB SWAP1 LOG1 PUSH1 0x0 DUP2 PUSH1 0x4 ADD PUSH1 0x3 SWAP1 SLOAD SWAP1 PUSH2 0x100 EXP SWAP1 DIV PUSH1 0xFF AND DUP3 PUSH1 0x4 ADD PUSH1 0x2 SWAP1 SLOAD SWAP1 PUSH2 0x100 EXP SWAP1 DIV PUSH1 0xFF AND PUSH2 0x17F0 SWAP2 SWAP1 PUSH2 0x2E87 JUMP JUMPDEST PUSH1 0xFF AND SWAP1 POP PUSH1 0x7 SLOAD DUP2 LT PUSH2 0x1959 JUMPI PUSH1 0x64 PUSH1 0x50 PUSH1 0x3 SLOAD PUSH2 0x180F SWAP2 SWAP1 PUSH2 0x2EBC JUMP JUMPDEST PUSH2 0x1819 SWAP2 SWAP1 PUSH2 0x2F2D JUMP JUMPDEST DUP3 PUSH1 0x4 ADD PUSH1 0x2 SWAP1 SLOAD SWAP1 PUSH2 0x100 EXP SWAP1 DIV PUSH1 0xFF AND PUSH1 0xFF AND LT PUSH2 0x18AC JUMPI PUSH1 0x1 DUP3 PUSH1 0x4 ADD PUSH1 0x0 PUSH2 0x100 EXP DUP2 SLOAD DUP2 PUSH1 0xFF MUL NOT AND SWAP1 DUP4 ISZERO ISZERO MUL OR SWAP1 SSTORE POP PUSH1 0x1 DUP3 PUSH1 0x4 ADD PUSH1 0x1 PUSH2 0x100 EXP DUP2 SLOAD DUP2 PUSH1 0xFF MUL NOT AND SWAP1 DUP4 ISZERO ISZERO MUL OR SWAP1 SSTORE POP PUSH32 0xD70144180122A22001D1F367C5CA7D741D86D2130B26B4C5828419E8A4576400 DUP7 PUSH1 0x1 PUSH1 0x40 MLOAD PUSH2 0x189F SWAP3 SWAP2 SWAP1 PUSH2 0x2F5E JUMP JUMPDEST PUSH1 0x40 MLOAD DUP1 SWAP2 SUB SWAP1 LOG1 PUSH2 0x1958 JUMP JUMPDEST PUSH1 0x64 PUSH1 0x14 PUSH1 0x3 SLOAD PUSH2 0x18BD SWAP2 SWAP1 PUSH2 0x2EBC JUMP JUMPDEST PUSH2 0x18C7 SWAP2 SWAP1 PUSH2 0x2F2D JUMP JUMPDEST DUP3 PUSH1 0x4 ADD PUSH1 0x3 SWAP1 SLOAD SWAP1 PUSH2 0x100 EXP SWAP1 DIV PUSH1 0xFF AND PUSH1 0xFF AND GT ISZERO PUSH2 0x1957 JUMPI PUSH1 0x1 DUP3 PUSH1 0x4 ADD PUSH1 0x0 PUSH2 0x100 EXP DUP2 SLOAD DUP2 PUSH1 0xFF MUL NOT AND SWAP1 DUP4 ISZERO ISZERO MUL OR SWAP1 SSTORE POP PUSH1 0x0 DUP3 PUSH1 0x4 ADD PUSH1 0x1 PUSH2 0x100 EXP DUP2 SLOAD DUP2 PUSH1 0xFF MUL NOT AND SWAP1 DUP4 ISZERO ISZERO MUL OR SWAP1 SSTORE POP PUSH32 0xD70144180122A22001D1F367C5CA7D741D86D2130B26B4C5828419E8A4576400 DUP7 PUSH1 0x0 PUSH1 0x40 MLOAD PUSH2 0x194E SWAP3 SWAP2 SWAP1 PUSH2 0x2F5E JUMP JUMPDEST PUSH1 0x40 MLOAD DUP1 SWAP2 SUB SWAP1 LOG1 JUMPDEST JUMPDEST JUMPDEST POP POP POP POP POP POP JUMP JUMPDEST PUSH1 0x0 PUSH1 0x8 PUSH1 0x0 DUP4 DUP2 MSTORE PUSH1 0x20 ADD SWAP1 DUP2 MSTORE PUSH1 0x20 ADD PUSH1 0x0 KECCAK256 SWAP1 POP DUP1 PUSH1 0x4 ADD PUSH1 0x0 SWAP1 SLOAD SWAP1 PUSH2 0x100 EXP SWAP1 DIV PUSH1 0xFF AND PUSH2 0x19C9 JUMPI PUSH1 0x40 MLOAD PUSH32 0x8C379A000000000000000000000000000000000000000000000000000000000 DUP2 MSTORE PUSH1 0x4 ADD PUSH2 0x19C0 SWAP1 PUSH2 0x2FD3 JUMP JUMPDEST PUSH1 0x40 MLOAD DUP1 SWAP2 SUB SWAP1 REVERT JUMPDEST DUP1 PUSH1 0x4 ADD PUSH1 0x1 SWAP1 SLOAD SWAP1 PUSH2 0x100 EXP SWAP1 DIV PUSH1 0xFF AND PUSH2 0x1A1A JUMPI PUSH1 0x40 MLOAD PUSH32 0x8C379A000000000000000000000000000000000000000000000000000000000 DUP2 MSTORE PUSH1 0x4 ADD PUSH2 0x1A11 SWAP1 PUSH2 0x2779 JUMP JUMPDEST PUSH1 0x40 MLOAD DUP1 SWAP2 SUB SWAP1 REVERT JUMPDEST DUP1 PUSH1 0x3 ADD SLOAD CALLVALUE LT ISZERO PUSH2 0x1A61 JUMPI PUSH1 0x40 MLOAD PUSH32 0x8C379A000000000000000000000000000000000000000000000000000000000 DUP2 MSTORE PUSH1 0x4 ADD PUSH2 0x1A58 SWAP1 PUSH2 0x303F JUMP JUMPDEST PUSH1 0x40 MLOAD DUP1 SWAP2 SUB SWAP1 REVERT JUMPDEST DUP1 PUSH1 0x0 ADD PUSH1 0x0 SWAP1 SLOAD SWAP1 PUSH2 0x100 EXP SWAP1 DIV PUSH20 0xFFFFFFFFFFFFFFFFFFFFFFFFFFFFFFFFFFFFFFFF AND PUSH20 0xFFFFFFFFFFFFFFFFFFFFFFFFFFFFFFFFFFFFFFFF AND PUSH2 0x8FC CALLVALUE SWAP1 DUP2 ISZERO MUL SWAP1 PUSH1 0x40 MLOAD PUSH1 0x0 PUSH1 0x40 MLOAD DUP1 DUP4 SUB DUP2 DUP6 DUP9 DUP9 CALL SWAP4 POP POP POP POP ISZERO DUP1 ISZERO PUSH2 0x1ACB JUMPI RETURNDATASIZE PUSH1 0x0 DUP1 RETURNDATACOPY RETURNDATASIZE PUSH1 0x0 REVERT JUMPDEST POP PUSH32 0x9D3165BECC99BAEC301813B1612049D03855703556B2FC11D56004C5CF09F5F3 DUP3 CALLER PUSH1 0x40 MLOAD PUSH2 0x1AFD SWAP3 SWAP2 SWAP1 PUSH2 0x305F JUMP JUMPDEST PUSH1 0x40 MLOAD DUP1 SWAP2 SUB SWAP1 LOG1 POP POP JUMP JUMPDEST PUSH1 0x0 PUSH1 0x3 SLOAD DUP3 LT PUSH2 0x1B4F JUMPI PUSH1 0x40 MLOAD PUSH32 0x8C379A000000000000000000000000000000000000000000000000000000000 DUP2 MSTORE PUSH1 0x4 ADD PUSH2 0x1B46 SWAP1 PUSH2 0x30D4 JUMP JUMPDEST PUSH1 0x40 MLOAD DUP1 SWAP2 SUB SWAP1 REVERT JUMPDEST PUSH1 0x1 PUSH1 0x0 DUP4 DUP2 MSTORE PUSH1 0x20 ADD SWAP1 DUP2 MSTORE PUSH1 0x20 ADD PUSH1 0x0 KECCAK256 PUSH1 0x0 SWAP1 SLOAD SWAP1 PUSH2 0x100 EXP SWAP1 DIV PUSH20 0xFFFFFFFFFFFFFFFFFFFFFFFFFFFFFFFFFFFFFFFF AND SWAP1 POP SWAP2 SWAP1 POP JUMP JUMPDEST PUSH1 0x2 PUSH1 0x0 SWAP1 SLOAD SWAP1 PUSH2 0x100 EXP SWAP1 DIV PUSH20 0xFFFFFFFFFFFFFFFFFFFFFFFFFFFFFFFFFFFFFFFF AND PUSH20 0xFFFFFFFFFFFFFFFFFFFFFFFFFFFFFFFFFFFFFFFF AND CALLER PUSH20 0xFFFFFFFFFFFFFFFFFFFFFFFFFFFFFFFFFFFFFFFF AND EQ PUSH2 0x1C1A JUMPI PUSH1 0x40 MLOAD PUSH32 0x8C379A000000000000000000000000000000000000000000000000000000000 DUP2 MSTORE PUSH1 0x4 ADD PUSH2 0x1C11 SWAP1 PUSH2 0x260C JUMP JUMPDEST PUSH1 0x40 MLOAD DUP1 SWAP2 SUB SWAP1 REVERT JUMPDEST PUSH1 0x0 DUP1 DUP3 PUSH20 0xFFFFFFFFFFFFFFFFFFFFFFFFFFFFFFFFFFFFFFFF AND PUSH20 0xFFFFFFFFFFFFFFFFFFFFFFFFFFFFFFFFFFFFFFFF AND DUP2 MSTORE PUSH1 0x20 ADD SWAP1 DUP2 MSTORE PUSH1 0x20 ADD PUSH1 0x0 KECCAK256 PUSH1 0x0 SWAP1 SLOAD SWAP1 PUSH2 0x100 EXP SWAP1 DIV PUSH1 0xFF AND ISZERO PUSH2 0x1CA6 JUMPI PUSH1 0x40 MLOAD PUSH32 0x8C379A000000000000000000000000000000000000000000000000000000000 DUP2 MSTORE PUSH1 0x4 ADD PUSH2 0x1C9D SWAP1 PUSH2 0x3140 JUMP JUMPDEST PUSH1 0x40 MLOAD DUP1 SWAP2 SUB SWAP1 REVERT JUMPDEST PUSH1 0x1 PUSH1 0x0 DUP1 DUP4 PUSH20 0xFFFFFFFFFFFFFFFFFFFFFFFFFFFFFFFFFFFFFFFF AND PUSH20 0xFFFFFFFFFFFFFFFFFFFFFFFFFFFFFFFFFFFFFFFF AND DUP2 MSTORE PUSH1 0x20 ADD SWAP1 DUP2 MSTORE PUSH1 0x20 ADD PUSH1 0x0 KECCAK256 PUSH1 0x0 PUSH2 0x100 EXP DUP2 SLOAD DUP2 PUSH1 0xFF MUL NOT AND SWAP1 DUP4 ISZERO ISZERO MUL OR SWAP1 SSTORE POP DUP1 PUSH1 0x1 PUSH1 0x0 PUSH1 0x3 SLOAD DUP2 MSTORE PUSH1 0x20 ADD SWAP1 DUP2 MSTORE PUSH1 0x20 ADD PUSH1 0x0 KECCAK256 PUSH1 0x0 PUSH2 0x100 EXP DUP2 SLOAD DUP2 PUSH20 0xFFFFFFFFFFFFFFFFFFFFFFFFFFFFFFFFFFFFFFFF MUL NOT AND SWAP1 DUP4 PUSH20 0xFFFFFFFFFFFFFFFFFFFFFFFFFFFFFFFFFFFFFFFF AND MUL OR SWAP1 SSTORE POP PUSH1 0x3 PUSH1 0x0 DUP2 SLOAD DUP1 SWAP3 SWAP2 SWAP1 PUSH2 0x1D64 SWAP1 PUSH2 0x251A JUMP JUMPDEST SWAP2 SWAP1 POP SSTORE POP PUSH32 0xB251EB052AFC73FFD02FFE85AD79990A8B3FED60D76DBC2FA2FDD7123DFFD914 DUP2 PUSH1 0x40 MLOAD PUSH2 0x1D98 SWAP2 SWAP1 PUSH2 0x24D0 JUMP JUMPDEST PUSH1 0x40 MLOAD DUP1 SWAP2 SUB SWAP1 LOG1 POP JUMP JUMPDEST PUSH1 0x6 PUSH1 0x20 MSTORE DUP1 PUSH1 0x0 MSTORE PUSH1 0x40 PUSH1 0x0 KECCAK256 PUSH1 0x0 SWAP2 POP SLOAD SWAP1 PUSH2 0x100 EXP SWAP1 DIV PUSH1 0xFF AND DUP2 JUMP JUMPDEST PUSH1 0x5 PUSH1 0x20 MSTORE DUP1 PUSH1 0x0 MSTORE PUSH1 0x40 PUSH1 0x0 KECCAK256 PUSH1 0x0 SWAP2 POP SWAP1 POP SLOAD DUP2 JUMP JUMPDEST PUSH1 0x7 SLOAD DUP2 JUMP JUMPDEST PUSH1 0x2 PUSH1 0x0 SWAP1 SLOAD SWAP1 PUSH2 0x100 EXP SWAP1 DIV PUSH20 0xFFFFFFFFFFFFFFFFFFFFFFFFFFFFFFFFFFFFFFFF AND DUP2 JUMP JUMPDEST PUSH1 0x0 DUP1 REVERT JUMPDEST PUSH1 0x0 DUP1 REVERT JUMPDEST PUSH1 0x0 PUSH20 0xFFFFFFFFFFFFFFFFFFFFFFFFFFFFFFFFFFFFFFFF DUP3 AND SWAP1 POP SWAP2 SWAP1 POP JUMP JUMPDEST PUSH1 0x0 PUSH2 0x1E3C DUP3 PUSH2 0x1E11 JUMP JUMPDEST SWAP1 POP SWAP2 SWAP1 POP JUMP JUMPDEST PUSH2 0x1E4C DUP2 PUSH2 0x1E31 JUMP JUMPDEST DUP2 EQ PUSH2 0x1E57 JUMPI PUSH1 0x0 DUP1 REVERT JUMPDEST POP JUMP JUMPDEST PUSH1 0x0 DUP2 CALLDATALOAD SWAP1 POP PUSH2 0x1E69 DUP2 PUSH2 0x1E43 JUMP JUMPDEST SWAP3 SWAP2 POP POP JUMP JUMPDEST PUSH1 0x0 PUSH1 0x20 DUP3 DUP5 SUB SLT ISZERO PUSH2 0x1E85 JUMPI PUSH2 0x1E84 PUSH2 0x1E07 JUMP JUMPDEST JUMPDEST PUSH1 0x0 PUSH2 0x1E93 DUP5 DUP3 DUP6 ADD PUSH2 0x1E5A JUMP JUMPDEST SWAP2 POP POP SWAP3 SWAP2 POP POP JUMP JUMPDEST PUSH1 0x0 DUP2 ISZERO ISZERO SWAP1 POP SWAP2 SWAP1 POP JUMP JUMPDEST PUSH2 0x1EB1 DUP2 PUSH2 0x1E9C JUMP JUMPDEST DUP3 MSTORE POP POP JUMP JUMPDEST PUSH1 0x0 PUSH1 0x20 DUP3 ADD SWAP1 POP PUSH2 0x1ECC PUSH1 0x0 DUP4 ADD DUP5 PUSH2 0x1EA8 JUMP JUMPDEST SWAP3 SWAP2 POP POP JUMP JUMPDEST PUSH1 0x0 DUP2 SWAP1 POP SWAP2 SWAP1 POP JUMP JUMPDEST PUSH2 0x1EE5 DUP2 PUSH2 0x1ED2 JUMP JUMPDEST DUP2 EQ PUSH2 0x1EF0 JUMPI PUSH1 0x0 DUP1 REVERT JUMPDEST POP JUMP JUMPDEST PUSH1 0x0 DUP2 CALLDATALOAD SWAP1 POP PUSH2 0x1F02 DUP2 PUSH2 0x1EDC JUMP JUMPDEST SWAP3 SWAP2 POP POP JUMP JUMPDEST PUSH1 0x0 PUSH1 0x20 DUP3 DUP5 SUB SLT ISZERO PUSH2 0x1F1E JUMPI PUSH2 0x1F1D PUSH2 0x1E07 JUMP JUMPDEST JUMPDEST PUSH1 0x0 PUSH2 0x1F2C DUP5 DUP3 DUP6 ADD PUSH2 0x1EF3 JUMP JUMPDEST SWAP2 POP POP SWAP3 SWAP2 POP POP JUMP JUMPDEST PUSH1 0x0 PUSH1 0xFF DUP3 AND SWAP1 POP SWAP2 SWAP1 POP JUMP JUMPDEST PUSH2 0x1F4B DUP2 PUSH2 0x1F35 JUMP JUMPDEST DUP3 MSTORE POP POP JUMP JUMPDEST PUSH1 0x0 PUSH1 0x80 DUP3 ADD SWAP1 POP PUSH2 0x1F66 PUSH1 0x0 DUP4 ADD DUP8 PUSH2 0x1EA8 JUMP JUMPDEST PUSH2 0x1F73 PUSH1 0x20 DUP4 ADD DUP7 PUSH2 0x1EA8 JUMP JUMPDEST PUSH2 0x1F80 PUSH1 0x40 DUP4 ADD DUP6 PUSH2 0x1F42 JUMP JUMPDEST PUSH2 0x1F8D PUSH1 0x60 DUP4 ADD DUP5 PUSH2 0x1F42 JUMP JUMPDEST SWAP6 SWAP5 POP POP POP POP POP JUMP JUMPDEST PUSH1 0x0 DUP2 MLOAD SWAP1 POP SWAP2 SWAP1 POP JUMP JUMPDEST PUSH1 0x0 DUP3 DUP3 MSTORE PUSH1 0x20 DUP3 ADD SWAP1 POP SWAP3 SWAP2 POP POP JUMP JUMPDEST PUSH1 0x0 DUP2 SWAP1 POP PUSH1 0x20 DUP3 ADD SWAP1 POP SWAP2 SWAP1 POP JUMP JUMPDEST PUSH2 0x1FCB DUP2 PUSH2 0x1E31 JUMP JUMPDEST DUP3 MSTORE POP POP JUMP JUMPDEST PUSH1 0x0 PUSH2 0x1FDD DUP4 DUP4 PUSH2 0x1FC2 JUMP JUMPDEST PUSH1 0x20 DUP4 ADD SWAP1 POP SWAP3 SWAP2 POP POP JUMP JUMPDEST PUSH1 0x0 PUSH1 0x20 DUP3 ADD SWAP1 POP SWAP2 SWAP1 POP JUMP JUMPDEST PUSH1 0x0 PUSH2 0x2001 DUP3 PUSH2 0x1F96 JUMP JUMPDEST PUSH2 0x200B DUP2 DUP6 PUSH2 0x1FA1 JUMP JUMPDEST SWAP4 POP PUSH2 0x2016 DUP4 PUSH2 0x1FB2 JUMP JUMPDEST DUP1 PUSH1 0x0 JUMPDEST DUP4 DUP2 LT ISZERO PUSH2 0x2047 JUMPI DUP2 MLOAD PUSH2 0x202E DUP9 DUP3 PUSH2 0x1FD1 JUMP JUMPDEST SWAP8 POP PUSH2 0x2039 DUP4 PUSH2 0x1FE9 JUMP JUMPDEST SWAP3 POP POP PUSH1 0x1 DUP2 ADD SWAP1 POP PUSH2 0x201A JUMP JUMPDEST POP DUP6 SWAP4 POP POP POP POP SWAP3 SWAP2 POP POP JUMP JUMPDEST PUSH1 0x0 PUSH1 0x20 DUP3 ADD SWAP1 POP DUP2 DUP2 SUB PUSH1 0x0 DUP4 ADD MSTORE PUSH2 0x206E DUP2 DUP5 PUSH2 0x1FF6 JUMP JUMPDEST SWAP1 POP SWAP3 SWAP2 POP POP JUMP JUMPDEST PUSH1 0x0 DUP1 PUSH1 0x40 DUP4 DUP6 SUB SLT ISZERO PUSH2 0x208D JUMPI PUSH2 0x208C PUSH2 0x1E07 JUMP JUMPDEST JUMPDEST PUSH1 0x0 PUSH2 0x209B DUP6 DUP3 DUP7 ADD PUSH2 0x1EF3 JUMP JUMPDEST SWAP3 POP POP PUSH1 0x20 PUSH2 0x20AC DUP6 DUP3 DUP7 ADD PUSH2 0x1E5A JUMP JUMPDEST SWAP2 POP POP SWAP3 POP SWAP3 SWAP1 POP JUMP JUMPDEST PUSH1 0x0 DUP2 MLOAD SWAP1 POP SWAP2 SWAP1 POP JUMP JUMPDEST PUSH1 0x0 DUP3 DUP3 MSTORE PUSH1 0x20 DUP3 ADD SWAP1 POP SWAP3 SWAP2 POP POP JUMP JUMPDEST PUSH1 0x0 JUMPDEST DUP4 DUP2 LT ISZERO PUSH2 0x20F0 JUMPI DUP1 DUP3 ADD MLOAD DUP2 DUP5 ADD MSTORE PUSH1 0x20 DUP2 ADD SWAP1 POP PUSH2 0x20D5 JUMP JUMPDEST PUSH1 0x0 DUP5 DUP5 ADD MSTORE POP POP POP POP JUMP JUMPDEST PUSH1 0x0 PUSH1 0x1F NOT PUSH1 0x1F DUP4 ADD AND SWAP1 POP SWAP2 SWAP1 POP JUMP JUMPDEST PUSH1 0x0 PUSH2 0x2118 DUP3 PUSH2 0x20B6 JUMP JUMPDEST PUSH2 0x2122 DUP2 DUP6 PUSH2 0x20C1 JUMP JUMPDEST SWAP4 POP PUSH2 0x2132 DUP2 DUP6 PUSH1 0x20 DUP7 ADD PUSH2 0x20D2 JUMP JUMPDEST PUSH2 0x213B DUP2 PUSH2 0x20FC JUMP JUMPDEST DUP5 ADD SWAP2 POP POP SWAP3 SWAP2 POP POP JUMP JUMPDEST PUSH1 0x0 PUSH1 0x20 DUP3 ADD SWAP1 POP DUP2 DUP2 SUB PUSH1 0x0 DUP4 ADD MSTORE PUSH2 0x2160 DUP2 DUP5 PUSH2 0x210D JUMP JUMPDEST SWAP1 POP SWAP3 SWAP2 POP POP JUMP JUMPDEST PUSH2 0x2171 DUP2 PUSH2 0x1E31 JUMP JUMPDEST DUP3 MSTORE POP POP JUMP JUMPDEST PUSH2 0x2180 DUP2 PUSH2 0x1ED2 JUMP JUMPDEST DUP3 MSTORE POP POP JUMP JUMPDEST PUSH1 0x0 PUSH2 0x140 DUP3 ADD SWAP1 POP PUSH2 0x219C PUSH1 0x0 DUP4 ADD DUP14 PUSH2 0x2168 JUMP JUMPDEST DUP2 DUP2 SUB PUSH1 0x20 DUP4 ADD MSTORE PUSH2 0x21AE DUP2 DUP13 PUSH2 0x210D JUMP JUMPDEST SWAP1 POP DUP2 DUP2 SUB PUSH1 0x40 DUP4 ADD MSTORE PUSH2 0x21C2 DUP2 DUP12 PUSH2 0x210D JUMP JUMPDEST SWAP1 POP PUSH2 0x21D1 PUSH1 0x60 DUP4 ADD DUP11 PUSH2 0x2177 JUMP JUMPDEST PUSH2 0x21DE PUSH1 0x80 DUP4 ADD DUP10 PUSH2 0x1EA8 JUMP JUMPDEST PUSH2 0x21EB PUSH1 0xA0 DUP4 ADD DUP9 PUSH2 0x1EA8 JUMP JUMPDEST PUSH2 0x21F8 PUSH1 0xC0 DUP4 ADD DUP8 PUSH2 0x1F42 JUMP JUMPDEST PUSH2 0x2205 PUSH1 0xE0 DUP4 ADD DUP7 PUSH2 0x1F42 JUMP JUMPDEST DUP2 DUP2 SUB PUSH2 0x100 DUP4 ADD MSTORE PUSH2 0x2218 DUP2 DUP6 PUSH2 0x210D JUMP JUMPDEST SWAP1 POP DUP2 DUP2 SUB PUSH2 0x120 DUP4 ADD MSTORE PUSH2 0x222D DUP2 DUP5 PUSH2 0x210D JUMP JUMPDEST SWAP1 POP SWAP12 SWAP11 POP POP POP POP POP POP POP POP POP POP POP JUMP JUMPDEST PUSH1 0x0 PUSH1 0x20 DUP3 ADD SWAP1 POP PUSH2 0x2253 PUSH1 0x0 DUP4 ADD DUP5 PUSH2 0x2177 JUMP JUMPDEST SWAP3 SWAP2 POP POP JUMP JUMPDEST PUSH1 0x0 DUP1 REVERT JUMPDEST PUSH1 0x0 DUP1 REVERT JUMPDEST PUSH1 0x0 DUP1 REVERT JUMPDEST PUSH1 0x0 DUP1 DUP4 PUSH1 0x1F DUP5 ADD SLT PUSH2 0x227E JUMPI PUSH2 0x227D PUSH2 0x2259 JUMP JUMPDEST JUMPDEST DUP3 CALLDATALOAD SWAP1 POP PUSH8 0xFFFFFFFFFFFFFFFF DUP2 GT ISZERO PUSH2 0x229B JUMPI PUSH2 0x229A PUSH2 0x225E JUMP JUMPDEST JUMPDEST PUSH1 0x20 DUP4 ADD SWAP2 POP DUP4 PUSH1 0x1 DUP3 MUL DUP4 ADD GT ISZERO PUSH2 0x22B7 JUMPI PUSH2 0x22B6 PUSH2 0x2263 JUMP JUMPDEST JUMPDEST SWAP3 POP SWAP3 SWAP1 POP JUMP JUMPDEST PUSH1 0x0 DUP1 PUSH1 0x0 DUP1 PUSH1 0x0 DUP1 PUSH1 0x0 DUP1 PUSH1 0x0 PUSH1 0xA0 DUP11 DUP13 SUB SLT ISZERO PUSH2 0x22E0 JUMPI PUSH2 0x22DF PUSH2 0x1E07 JUMP JUMPDEST JUMPDEST PUSH1 0x0 DUP11 ADD CALLDATALOAD PUSH8 0xFFFFFFFFFFFFFFFF DUP2 GT ISZERO PUSH2 0x22FE JUMPI PUSH2 0x22FD PUSH2 0x1E0C JUMP JUMPDEST JUMPDEST PUSH2 0x230A DUP13 DUP3 DUP14 ADD PUSH2 0x2268 JUMP JUMPDEST SWAP10 POP SWAP10 POP POP PUSH1 0x20 DUP11 ADD CALLDATALOAD PUSH8 0xFFFFFFFFFFFFFFFF DUP2 GT ISZERO PUSH2 0x232D JUMPI PUSH2 0x232C PUSH2 0x1E0C JUMP JUMPDEST JUMPDEST PUSH2 0x2339 DUP13 DUP3 DUP14 ADD PUSH2 0x2268 JUMP JUMPDEST SWAP8 POP SWAP8 POP POP PUSH1 0x40 PUSH2 0x234C DUP13 DUP3 DUP14 ADD PUSH2 0x1EF3 JUMP JUMPDEST SWAP6 POP POP PUSH1 0x60 DUP11 ADD CALLDATALOAD PUSH8 0xFFFFFFFFFFFFFFFF DUP2 GT ISZERO PUSH2 0x236D JUMPI PUSH2 0x236C PUSH2 0x1E0C JUMP JUMPDEST JUMPDEST PUSH2 0x2379 DUP13 DUP3 DUP14 ADD PUSH2 0x2268 JUMP JUMPDEST SWAP5 POP SWAP5 POP POP PUSH1 0x80 DUP11 ADD CALLDATALOAD PUSH8 0xFFFFFFFFFFFFFFFF DUP2 GT ISZERO PUSH2 0x239C JUMPI PUSH2 0x239B PUSH2 0x1E0C JUMP JUMPDEST JUMPDEST PUSH2 0x23A8 DUP13 DUP3 DUP14 ADD PUSH2 0x2268 JUMP JUMPDEST SWAP3 POP SWAP3 POP POP SWAP3 SWAP6 SWAP9 POP SWAP3 SWAP6 SWAP9 POP SWAP3 SWAP6 SWAP9 JUMP JUMPDEST PUSH1 0x0 PUSH1 0xC0 DUP3 ADD SWAP1 POP PUSH2 0x23CF PUSH1 0x0 DUP4 ADD DUP10 PUSH2 0x2168 JUMP JUMPDEST DUP2 DUP2 SUB PUSH1 0x20 DUP4 ADD MSTORE PUSH2 0x23E1 DUP2 DUP9 PUSH2 0x210D JUMP JUMPDEST SWAP1 POP PUSH2 0x23F0 PUSH1 0x40 DUP4 ADD DUP8 PUSH2 0x2177 JUMP JUMPDEST DUP2 DUP2 SUB PUSH1 0x60 DUP4 ADD MSTORE PUSH2 0x2402 DUP2 DUP7 PUSH2 0x210D JUMP JUMPDEST SWAP1 POP DUP2 DUP2 SUB PUSH1 0x80 DUP4 ADD MSTORE PUSH2 0x2416 DUP2 DUP6 PUSH2 0x210D JUMP JUMPDEST SWAP1 POP PUSH2 0x2425 PUSH1 0xA0 DUP4 ADD DUP5 PUSH2 0x1EA8 JUMP JUMPDEST SWAP8 SWAP7 POP POP POP POP POP POP POP JUMP JUMPDEST PUSH2 0x2439 DUP2 PUSH2 0x1E9C JUMP JUMPDEST DUP2 EQ PUSH2 0x2444 JUMPI PUSH1 0x0 DUP1 REVERT JUMPDEST POP JUMP JUMPDEST PUSH1 0x0 DUP2 CALLDATALOAD SWAP1 POP PUSH2 0x2456 DUP2 PUSH2 0x2430 JUMP JUMPDEST SWAP3 SWAP2 POP POP JUMP JUMPDEST PUSH1 0x0 DUP1 PUSH1 0x0 DUP1 PUSH1 0x60 DUP6 DUP8 SUB SLT ISZERO PUSH2 0x2476 JUMPI PUSH2 0x2475 PUSH2 0x1E07 JUMP JUMPDEST JUMPDEST PUSH1 0x0 PUSH2 0x2484 DUP8 DUP3 DUP9 ADD PUSH2 0x1EF3 JUMP JUMPDEST SWAP5 POP POP PUSH1 0x20 PUSH2 0x2495 DUP8 DUP3 DUP9 ADD PUSH2 0x2447 JUMP JUMPDEST SWAP4 POP POP PUSH1 0x40 DUP6 ADD CALLDATALOAD PUSH8 0xFFFFFFFFFFFFFFFF DUP2 GT ISZERO PUSH2 0x24B6 JUMPI PUSH2 0x24B5 PUSH2 0x1E0C JUMP JUMPDEST JUMPDEST PUSH2 0x24C2 DUP8 DUP3 DUP9 ADD PUSH2 0x2268 JUMP JUMPDEST SWAP3 POP SWAP3 POP POP SWAP3 SWAP6 SWAP2 SWAP5 POP SWAP3 POP JUMP JUMPDEST PUSH1 0x0 PUSH1 0x20 DUP3 ADD SWAP1 POP PUSH2 0x24E5 PUSH1 0x0 DUP4 ADD DUP5 PUSH2 0x2168 JUMP JUMPDEST SWAP3 SWAP2 POP POP JUMP JUMPDEST PUSH32 0x4E487B7100000000000000000000000000000000000000000000000000000000 PUSH1 0x0 MSTORE PUSH1 0x11 PUSH1 0x4 MSTORE PUSH1 0x24 PUSH1 0x0 REVERT JUMPDEST PUSH1 0x0 PUSH2 0x2525 DUP3 PUSH2 0x1ED2 JUMP JUMPDEST SWAP2 POP PUSH32 0xFFFFFFFFFFFFFFFFFFFFFFFFFFFFFFFFFFFFFFFFFFFFFFFFFFFFFFFFFFFFFFFF DUP3 SUB PUSH2 0x2557 JUMPI PUSH2 0x2556 PUSH2 0x24EB JUMP JUMPDEST JUMPDEST PUSH1 0x1 DUP3 ADD SWAP1 POP SWAP2 SWAP1 POP JUMP JUMPDEST PUSH32 0x4E487B7100000000000000000000000000000000000000000000000000000000 PUSH1 0x0 MSTORE PUSH1 0x41 PUSH1 0x4 MSTORE PUSH1 0x24 PUSH1 0x0 REVERT JUMPDEST PUSH32 0x4E487B7100000000000000000000000000000000000000000000000000000000 PUSH1 0x0 MSTORE PUSH1 0x32 PUSH1 0x4 MSTORE PUSH1 0x24 PUSH1 0x0 REVERT JUMPDEST PUSH32 0x4E6F742061646D696E0000000000000000000000000000000000000000000000 PUSH1 0x0 DUP3 ADD MSTORE POP JUMP JUMPDEST PUSH1 0x0 PUSH2 0x25F6 PUSH1 0x9 DUP4 PUSH2 0x20C1 JUMP JUMPDEST SWAP2 POP PUSH2 0x2601 DUP3 PUSH2 0x25C0 JUMP JUMPDEST PUSH1 0x20 DUP3 ADD SWAP1 POP SWAP2 SWAP1 POP JUMP JUMPDEST PUSH1 0x0 PUSH1 0x20 DUP3 ADD SWAP1 POP DUP2 DUP2 SUB PUSH1 0x0 DUP4 ADD MSTORE PUSH2 0x2625 DUP2 PUSH2 0x25E9 JUMP JUMPDEST SWAP1 POP SWAP2 SWAP1 POP JUMP JUMPDEST PUSH1 0x0 PUSH1 0x40 DUP3 ADD SWAP1 POP PUSH2 0x2641 PUSH1 0x0 DUP4 ADD DUP6 PUSH2 0x2177 JUMP JUMPDEST PUSH2 0x264E PUSH1 0x20 DUP4 ADD DUP5 PUSH2 0x2177 JUMP JUMPDEST SWAP4 SWAP3 POP POP POP JUMP JUMPDEST PUSH32 0x4F6E6C7920617574686F722063616E20636C61696D207374616B650000000000 PUSH1 0x0 DUP3 ADD MSTORE POP JUMP JUMPDEST PUSH1 0x0 PUSH2 0x268B PUSH1 0x1B DUP4 PUSH2 0x20C1 JUMP JUMPDEST SWAP2 POP PUSH2 0x2696 DUP3 PUSH2 0x2655 JUMP JUMPDEST PUSH1 0x20 DUP3 ADD SWAP1 POP SWAP2 SWAP1 POP JUMP JUMPDEST PUSH1 0x0 PUSH1 0x20 DUP3 ADD SWAP1 POP DUP2 DUP2 SUB PUSH1 0x0 DUP4 ADD MSTORE PUSH2 0x26BA DUP2 PUSH2 0x267E JUMP JUMPDEST SWAP1 POP SWAP2 SWAP1 POP JUMP JUMPDEST PUSH32 0x506170657220766572696669636174696F6E206E6F7420636F6D706C65746500 PUSH1 0x0 DUP3 ADD MSTORE POP JUMP JUMPDEST PUSH1 0x0 PUSH2 0x26F7 PUSH1 0x1F DUP4 PUSH2 0x20C1 JUMP JUMPDEST SWAP2 POP PUSH2 0x2702 DUP3 PUSH2 0x26C1 JUMP JUMPDEST PUSH1 0x20 DUP3 ADD SWAP1 POP SWAP2 SWAP1 POP JUMP JUMPDEST PUSH1 0x0 PUSH1 0x20 DUP3 ADD SWAP1 POP DUP2 DUP2 SUB PUSH1 0x0 DUP4 ADD MSTORE PUSH2 0x2726 DUP2 PUSH2 0x26EA JUMP JUMPDEST SWAP1 POP SWAP2 SWAP1 POP JUMP JUMPDEST PUSH32 0x5061706572207761732072656A65637465640000000000000000000000000000 PUSH1 0x0 DUP3 ADD MSTORE POP JUMP JUMPDEST PUSH1 0x0 PUSH2 0x2763 PUSH1 0x12 DUP4 PUSH2 0x20C1 JUMP JUMPDEST SWAP2 POP PUSH2 0x276E DUP3 PUSH2 0x272D JUMP JUMPDEST PUSH1 0x20 DUP3 ADD SWAP1 POP SWAP2 SWAP1 POP JUMP JUMPDEST PUSH1 0x0 PUSH1 0x20 DUP3 ADD SWAP1 POP DUP2 DUP2 SUB PUSH1 0x0 DUP4 ADD MSTORE PUSH2 0x2792 DUP2 PUSH2 0x2756 JUMP JUMPDEST SWAP1 POP SWAP2 SWAP1 POP JUMP JUMPDEST PUSH32 0x5374616B6520616C72656164792072657475726E656400000000000000000000 PUSH1 0x0 DUP3 ADD MSTORE POP JUMP JUMPDEST PUSH1 0x0 PUSH2 0x27CF PUSH1 0x16 DUP4 PUSH2 0x20C1 JUMP JUMPDEST SWAP2 POP PUSH2 0x27DA DUP3 PUSH2 0x2799 JUMP JUMPDEST PUSH1 0x20 DUP3 ADD SWAP1 POP SWAP2 SWAP1 POP JUMP JUMPDEST PUSH1 0x0 PUSH1 0x20 DUP3 ADD SWAP1 POP DUP2 DUP2 SUB PUSH1 0x0 DUP4 ADD MSTORE PUSH2 0x27FE DUP2 PUSH2 0x27C2 JUMP JUMPDEST SWAP1 POP SWAP2 SWAP1 POP JUMP JUMPDEST PUSH1 0x0 PUSH1 0x60 DUP3 ADD SWAP1 POP PUSH2 0x281A PUSH1 0x0 DUP4 ADD DUP7 PUSH2 0x2177 JUMP JUMPDEST PUSH2 0x2827 PUSH1 0x20 DUP4 ADD DUP6 PUSH2 0x2168 JUMP JUMPDEST PUSH2 0x2834 PUSH1 0x40 DUP4 ADD DUP5 PUSH2 0x2177 JUMP JUMPDEST SWAP5 SWAP4 POP POP POP POP JUMP JUMPDEST PUSH32 0x4E487B7100000000000000000000000000000000000000000000000000000000 PUSH1 0x0 MSTORE PUSH1 0x22 PUSH1 0x4 MSTORE PUSH1 0x24 PUSH1 0x0 REVERT JUMPDEST PUSH1 0x0 PUSH1 0x2 DUP3 DIV SWAP1 POP PUSH1 0x1 DUP3 AND DUP1 PUSH2 0x2883 JUMPI PUSH1 0x7F DUP3 AND SWAP2 POP JUMPDEST PUSH1 0x20 DUP3 LT DUP2 SUB PUSH2 0x2896 JUMPI PUSH2 0x2895 PUSH2 0x283C JUMP JUMPDEST JUMPDEST POP SWAP2 SWAP1 POP JUMP JUMPDEST PUSH32 0x4D757374207374616B6520726571756972656420616D6F756E74000000000000 PUSH1 0x0 DUP3 ADD MSTORE POP JUMP JUMPDEST PUSH1 0x0 PUSH2 0x28D2 PUSH1 0x1A DUP4 PUSH2 0x20C1 JUMP JUMPDEST SWAP2 POP PUSH2 0x28DD DUP3 PUSH2 0x289C JUMP JUMPDEST PUSH1 0x20 DUP3 ADD SWAP1 POP SWAP2 SWAP1 POP JUMP JUMPDEST PUSH1 0x0 PUSH1 0x20 DUP3 ADD SWAP1 POP DUP2 DUP2 SUB PUSH1 0x0 DUP4 ADD MSTORE PUSH2 0x2901 DUP2 PUSH2 0x28C5 JUMP JUMPDEST SWAP1 POP SWAP2 SWAP1 POP JUMP JUMPDEST PUSH1 0x0 DUP3 SWAP1 POP SWAP3 SWAP2 POP POP JUMP JUMPDEST PUSH1 0x0 DUP2 SWAP1 POP DUP2 PUSH1 0x0 MSTORE PUSH1 0x20 PUSH1 0x0 KECCAK256 SWAP1 POP SWAP2 SWAP1 POP JUMP JUMPDEST PUSH1 0x0 PUSH1 0x20 PUSH1 0x1F DUP4 ADD DIV SWAP1 POP SWAP2 SWAP1 POP JUMP JUMPDEST PUSH1 0x0 DUP3 DUP3 SHL SWAP1 POP SWAP3 SWAP2 POP POP JUMP JUMPDEST PUSH1 0x0 PUSH1 0x8 DUP4 MUL PUSH2 0x2975 PUSH32 0xFFFFFFFFFFFFFFFFFFFFFFFFFFFFFFFFFFFFFFFFFFFFFFFFFFFFFFFFFFFFFFFF DUP3 PUSH2 0x2938 JUMP JUMPDEST PUSH2 0x297F DUP7 DUP4 PUSH2 0x2938 JUMP JUMPDEST SWAP6 POP DUP1 NOT DUP5 AND SWAP4 POP DUP1 DUP7 AND DUP5 OR SWAP3 POP POP POP SWAP4 SWAP3 POP POP POP JUMP JUMPDEST PUSH1 0x0 DUP2 SWAP1 POP SWAP2 SWAP1 POP JUMP JUMPDEST PUSH1 0x0 PUSH2 0x29BC PUSH2 0x29B7 PUSH2 0x29B2 DUP5 PUSH2 0x1ED2 JUMP JUMPDEST PUSH2 0x2997 JUMP JUMPDEST PUSH2 0x1ED2 JUMP JUMPDEST SWAP1 POP SWAP2 SWAP1 POP JUMP JUMPDEST PUSH1 0x0 DUP2 SWAP1 POP SWAP2 SWAP1 POP JUMP JUMPDEST PUSH2 0x29D6 DUP4 PUSH2 0x29A1 JUMP JUMPDEST PUSH2 0x29EA PUSH2 0x29E2 DUP3 PUSH2 0x29C3 JUMP JUMPDEST DUP5 DUP5 SLOAD PUSH2 0x2945 JUMP JUMPDEST DUP3 SSTORE POP POP POP POP JUMP JUMPDEST PUSH1 0x0 SWAP1 JUMP JUMPDEST PUSH2 0x29FF PUSH2 0x29F2 JUMP JUMPDEST PUSH2 0x2A0A DUP2 DUP5 DUP5 PUSH2 0x29CD JUMP JUMPDEST POP POP POP JUMP JUMPDEST JUMPDEST DUP2 DUP2 LT ISZERO PUSH2 0x2A2E JUMPI PUSH2 0x2A23 PUSH1 0x0 DUP3 PUSH2 0x29F7 JUMP JUMPDEST PUSH1 0x1 DUP2 ADD SWAP1 POP PUSH2 0x2A10 JUMP JUMPDEST POP POP JUMP JUMPDEST PUSH1 0x1F DUP3 GT ISZERO PUSH2 0x2A73 JUMPI PUSH2 0x2A44 DUP2 PUSH2 0x2913 JUMP JUMPDEST PUSH2 0x2A4D DUP5 PUSH2 0x2928 JUMP JUMPDEST DUP2 ADD PUSH1 0x20 DUP6 LT ISZERO PUSH2 0x2A5C JUMPI DUP2 SWAP1 POP JUMPDEST PUSH2 0x2A70 PUSH2 0x2A68 DUP6 PUSH2 0x2928 JUMP JUMPDEST DUP4 ADD DUP3 PUSH2 0x2A0F JUMP JUMPDEST POP POP JUMPDEST POP POP POP JUMP JUMPDEST PUSH1 0x0 DUP3 DUP3 SHR SWAP1 POP SWAP3 SWAP2 POP POP JUMP JUMPDEST PUSH1 0x0 PUSH2 0x2A96 PUSH1 0x0 NOT DUP5 PUSH1 0x8 MUL PUSH2 0x2A78 JUMP JUMPDEST NOT DUP1 DUP4 AND SWAP2 POP POP SWAP3 SWAP2 POP POP JUMP JUMPDEST PUSH1 0x0 PUSH2 0x2AAF DUP4 DUP4 PUSH2 0x2A85 JUMP JUMPDEST SWAP2 POP DUP3 PUSH1 0x2 MUL DUP3 OR SWAP1 POP SWAP3 SWAP2 POP POP JUMP JUMPDEST PUSH2 0x2AC9 DUP4 DUP4 PUSH2 0x2908 JUMP JUMPDEST PUSH8 0xFFFFFFFFFFFFFFFF DUP2 GT ISZERO PUSH2 0x2AE2 JUMPI PUSH2 0x2AE1 PUSH2 0x2562 JUMP JUMPDEST JUMPDEST PUSH2 0x2AEC DUP3 SLOAD PUSH2 0x286B JUMP JUMPDEST PUSH2 0x2AF7 DUP3 DUP3 DUP6 PUSH2 0x2A32 JUMP JUMPDEST PUSH1 0x0 PUSH1 0x1F DUP4 GT PUSH1 0x1 DUP2 EQ PUSH2 0x2B26 JUMPI PUSH1 0x0 DUP5 ISZERO PUSH2 0x2B14 JUMPI DUP3 DUP8 ADD CALLDATALOAD SWAP1 POP JUMPDEST PUSH2 0x2B1E DUP6 DUP3 PUSH2 0x2AA3 JUMP JUMPDEST DUP7 SSTORE POP PUSH2 0x2B86 JUMP JUMPDEST PUSH1 0x1F NOT DUP5 AND PUSH2 0x2B34 DUP7 PUSH2 0x2913 JUMP JUMPDEST PUSH1 0x0 JUMPDEST DUP3 DUP2 LT ISZERO PUSH2 0x2B5C JUMPI DUP5 DUP10 ADD CALLDATALOAD DUP3 SSTORE PUSH1 0x1 DUP3 ADD SWAP2 POP PUSH1 0x20 DUP6 ADD SWAP5 POP PUSH1 0x20 DUP2 ADD SWAP1 POP PUSH2 0x2B37 JUMP JUMPDEST DUP7 DUP4 LT ISZERO PUSH2 0x2B79 JUMPI DUP5 DUP10 ADD CALLDATALOAD PUSH2 0x2B75 PUSH1 0x1F DUP10 AND DUP3 PUSH2 0x2A85 JUMP JUMPDEST DUP4 SSTORE POP JUMPDEST PUSH1 0x1 PUSH1 0x2 DUP9 MUL ADD DUP9 SSTORE POP POP POP JUMPDEST POP POP POP POP POP POP POP JUMP JUMPDEST DUP3 DUP2 DUP4 CALLDATACOPY PUSH1 0x0 DUP4 DUP4 ADD MSTORE POP POP POP JUMP JUMPDEST PUSH1 0x0 PUSH2 0x2BAA DUP4 DUP6 PUSH2 0x20C1 JUMP JUMPDEST SWAP4 POP PUSH2 0x2BB7 DUP4 DUP6 DUP5 PUSH2 0x2B8F JUMP JUMPDEST PUSH2 0x2BC0 DUP4 PUSH2 0x20FC JUMP JUMPDEST DUP5 ADD SWAP1 POP SWAP4 SWAP3 POP POP POP JUMP JUMPDEST PUSH1 0x0 PUSH1 0x60 DUP3 ADD SWAP1 POP PUSH2 0x2BE0 PUSH1 0x0 DUP4 ADD DUP8 PUSH2 0x2177 JUMP JUMPDEST PUSH2 0x2BED PUSH1 0x20 DUP4 ADD DUP7 PUSH2 0x2168 JUMP JUMPDEST DUP2 DUP2 SUB PUSH1 0x40 DUP4 ADD MSTORE PUSH2 0x2C00 DUP2 DUP5 DUP7 PUSH2 0x2B9E JUMP JUMPDEST SWAP1 POP SWAP6 SWAP5 POP POP POP POP POP JUMP JUMPDEST PUSH32 0x4D696E20766F746573206D7573742062652067726561746572207468616E2030 PUSH1 0x0 DUP3 ADD MSTORE POP JUMP JUMPDEST PUSH1 0x0 PUSH2 0x2C41 PUSH1 0x20 DUP4 PUSH2 0x20C1 JUMP JUMPDEST SWAP2 POP PUSH2 0x2C4C DUP3 PUSH2 0x2C0B JUMP JUMPDEST PUSH1 0x20 DUP3 ADD SWAP1 POP SWAP2 SWAP1 POP JUMP JUMPDEST PUSH1 0x0 PUSH1 0x20 DUP3 ADD SWAP1 POP DUP2 DUP2 SUB PUSH1 0x0 DUP4 ADD MSTORE PUSH2 0x2C70 DUP2 PUSH2 0x2C34 JUMP JUMPDEST SWAP1 POP SWAP2 SWAP1 POP JUMP JUMPDEST PUSH32 0x4E6F742061206D656D6265720000000000000000000000000000000000000000 PUSH1 0x0 DUP3 ADD MSTORE POP JUMP JUMPDEST PUSH1 0x0 PUSH2 0x2CAD PUSH1 0xC DUP4 PUSH2 0x20C1 JUMP JUMPDEST SWAP2 POP PUSH2 0x2CB8 DUP3 PUSH2 0x2C77 JUMP JUMPDEST PUSH1 0x20 DUP3 ADD SWAP1 POP SWAP2 SWAP1 POP JUMP JUMPDEST PUSH1 0x0 PUSH1 0x20 DUP3 ADD SWAP1 POP DUP2 DUP2 SUB PUSH1 0x0 DUP4 ADD MSTORE PUSH2 0x2CDC DUP2 PUSH2 0x2CA0 JUMP JUMPDEST SWAP1 POP SWAP2 SWAP1 POP JUMP JUMPDEST PUSH32 0x506170657220616C726561647920646563696465640000000000000000000000 PUSH1 0x0 DUP3 ADD MSTORE POP JUMP JUMPDEST PUSH1 0x0 PUSH2 0x2D19 PUSH1 0x15 DUP4 PUSH2 0x20C1 JUMP JUMPDEST SWAP2 POP PUSH2 0x2D24 DUP3 PUSH2 0x2CE3 JUMP JUMPDEST PUSH1 0x20 DUP3 ADD SWAP1 POP SWAP2 SWAP1 POP JUMP JUMPDEST PUSH1 0x0 PUSH1 0x20 DUP3 ADD SWAP1 POP DUP2 DUP2 SUB PUSH1 0x0 DUP4 ADD MSTORE PUSH2 0x2D48 DUP2 PUSH2 0x2D0C JUMP JUMPDEST SWAP1 POP SWAP2 SWAP1 POP JUMP JUMPDEST PUSH32 0x416C726561647920766F74656400000000000000000000000000000000000000 PUSH1 0x0 DUP3 ADD MSTORE POP JUMP JUMPDEST PUSH1 0x0 PUSH2 0x2D85 PUSH1 0xD DUP4 PUSH2 0x20C1 JUMP JUMPDEST SWAP2 POP PUSH2 0x2D90 DUP3 PUSH2 0x2D4F JUMP JUMPDEST PUSH1 0x20 DUP3 ADD SWAP1 POP SWAP2 SWAP1 POP JUMP JUMPDEST PUSH1 0x0 PUSH1 0x20 DUP3 ADD SWAP1 POP DUP2 DUP2 SUB PUSH1 0x0 DUP4 ADD MSTORE PUSH2 0x2DB4 DUP2 PUSH2 0x2D78 JUMP JUMPDEST SWAP1 POP SWAP2 SWAP1 POP JUMP JUMPDEST PUSH32 0x43616E6E6F7420766F7465206F6E206F776E2070617065720000000000000000 PUSH1 0x0 DUP3 ADD MSTORE POP JUMP JUMPDEST PUSH1 0x0 PUSH2 0x2DF1 PUSH1 0x18 DUP4 PUSH2 0x20C1 JUMP JUMPDEST SWAP2 POP PUSH2 0x2DFC DUP3 PUSH2 0x2DBB JUMP JUMPDEST PUSH1 0x20 DUP3 ADD SWAP1 POP SWAP2 SWAP1 POP JUMP JUMPDEST PUSH1 0x0 PUSH1 0x20 DUP3 ADD SWAP1 POP DUP2 DUP2 SUB PUSH1 0x0 DUP4 ADD MSTORE PUSH2 0x2E20 DUP2 PUSH2 0x2DE4 JUMP JUMPDEST SWAP1 POP SWAP2 SWAP1 POP JUMP JUMPDEST PUSH1 0x0 PUSH2 0x2E32 DUP3 PUSH2 0x1F35 JUMP JUMPDEST SWAP2 POP PUSH1 0xFF DUP3 SUB PUSH2 0x2E45 JUMPI PUSH2 0x2E44 PUSH2 0x24EB JUMP JUMPDEST JUMPDEST PUSH1 0x1 DUP3 ADD SWAP1 POP SWAP2 SWAP1 POP JUMP JUMPDEST PUSH1 0x0 PUSH1 0x60 DUP3 ADD SWAP1 POP PUSH2 0x2E65 PUSH1 0x0 DUP4 ADD DUP7 PUSH2 0x2177 JUMP JUMPDEST PUSH2 0x2E72 PUSH1 0x20 DUP4 ADD DUP6 PUSH2 0x2168 JUMP JUMPDEST PUSH2 0x2E7F PUSH1 0x40 DUP4 ADD DUP5 PUSH2 0x1EA8 JUMP JUMPDEST SWAP5 SWAP4 POP POP POP POP JUMP JUMPDEST PUSH1 0x0 PUSH2 0x2E92 DUP3 PUSH2 0x1F35 JUMP JUMPDEST SWAP2 POP PUSH2 0x2E9D DUP4 PUSH2 0x1F35 JUMP JUMPDEST SWAP3 POP DUP3 DUP3 ADD SWAP1 POP PUSH1 0xFF DUP2 GT ISZERO PUSH2 0x2EB6 JUMPI PUSH2 0x2EB5 PUSH2 0x24EB JUMP JUMPDEST JUMPDEST SWAP3 SWAP2 POP POP JUMP JUMPDEST PUSH1 0x0 PUSH2 0x2EC7 DUP3 PUSH2 0x1ED2 JUMP JUMPDEST SWAP2 POP PUSH2 0x2ED2 DUP4 PUSH2 0x1ED2 JUMP JUMPDEST SWAP3 POP DUP3 DUP3 MUL PUSH2 0x2EE0 DUP2 PUSH2 0x1ED2 JUMP JUMPDEST SWAP2 POP DUP3 DUP3 DIV DUP5 EQ DUP4 ISZERO OR PUSH2 0x2EF7 JUMPI PUSH2 0x2EF6 PUSH2 0x24EB JUMP JUMPDEST JUMPDEST POP SWAP3 SWAP2 POP POP JUMP JUMPDEST PUSH32 0x4E487B7100000000000000000000000000000000000000000000000000000000 PUSH1 0x0 MSTORE PUSH1 0x12 PUSH1 0x4 MSTORE PUSH1 0x24 PUSH1 0x0 REVERT JUMPDEST PUSH1 0x0 PUSH2 0x2F38 DUP3 PUSH2 0x1ED2 JUMP JUMPDEST SWAP2 POP PUSH2 0x2F43 DUP4 PUSH2 0x1ED2 JUMP JUMPDEST SWAP3 POP DUP3 PUSH2 0x2F53 JUMPI PUSH2 0x2F52 PUSH2 0x2EFE JUMP JUMPDEST JUMPDEST DUP3 DUP3 DIV SWAP1 POP SWAP3 SWAP2 POP POP JUMP JUMPDEST PUSH1 0x0 PUSH1 0x40 DUP3 ADD SWAP1 POP PUSH2 0x2F73 PUSH1 0x0 DUP4 ADD DUP6 PUSH2 0x2177 JUMP JUMPDEST PUSH2 0x2F80 PUSH1 0x20 DUP4 ADD DUP5 PUSH2 0x1EA8 JUMP JUMPDEST SWAP4 SWAP3 POP POP POP JUMP JUMPDEST PUSH32 0x5061706572206E6F742064656369646564000000000000000000000000000000 PUSH1 0x0 DUP3 ADD MSTORE POP JUMP JUMPDEST PUSH1 0x0 PUSH2 0x2FBD PUSH1 0x11 DUP4 PUSH2 0x20C1 JUMP JUMPDEST SWAP2 POP PUSH2 0x2FC8 DUP3 PUSH2 0x2F87 JUMP JUMPDEST PUSH1 0x20 DUP3 ADD SWAP1 POP SWAP2 SWAP1 POP JUMP JUMPDEST PUSH1 0x0 PUSH1 0x20 DUP3 ADD SWAP1 POP DUP2 DUP2 SUB PUSH1 0x0 DUP4 ADD MSTORE PUSH2 0x2FEC DUP2 PUSH2 0x2FB0 JUMP JUMPDEST SWAP1 POP SWAP2 SWAP1 POP JUMP JUMPDEST PUSH32 0x496E73756666696369656E74207061796D656E74000000000000000000000000 PUSH1 0x0 DUP3 ADD MSTORE POP JUMP JUMPDEST PUSH1 0x0 PUSH2 0x3029 PUSH1 0x14 DUP4 PUSH2 0x20C1 JUMP JUMPDEST SWAP2 POP PUSH2 0x3034 DUP3 PUSH2 0x2FF3 JUMP JUMPDEST PUSH1 0x20 DUP3 ADD SWAP1 POP SWAP2 SWAP1 POP JUMP JUMPDEST PUSH1 0x0 PUSH1 0x20 DUP3 ADD SWAP1 POP DUP2 DUP2 SUB PUSH1 0x0 DUP4 ADD MSTORE PUSH2 0x3058 DUP2 PUSH2 0x301C JUMP JUMPDEST SWAP1 POP SWAP2 SWAP1 POP JUMP JUMPDEST PUSH1 0x0 PUSH1 0x40 DUP3 ADD SWAP1 POP PUSH2 0x3074 PUSH1 0x0 DUP4 ADD DUP6 PUSH2 0x2177 JUMP JUMPDEST PUSH2 0x3081 PUSH1 0x20 DUP4 ADD DUP5 PUSH2 0x2168 JUMP JUMPDEST SWAP4 SWAP3 POP POP POP JUMP JUMPDEST PUSH32 0x496E646578206F7574206F6620626F756E647300000000000000000000000000 PUSH1 0x0 DUP3 ADD MSTORE POP JUMP JUMPDEST PUSH1 0x0 PUSH2 0x30BE PUSH1 0x13 DUP4 PUSH2 0x20C1 JUMP JUMPDEST SWAP2 POP PUSH2 0x30C9 DUP3 PUSH2 0x3088 JUMP JUMPDEST PUSH1 0x20 DUP3 ADD SWAP1 POP SWAP2 SWAP1 POP JUMP JUMPDEST PUSH1 0x0 PUSH1 0x20 DUP3 ADD SWAP1 POP DUP2 DUP2 SUB PUSH1 0x0 DUP4 ADD MSTORE PUSH2 0x30ED DUP2 PUSH2 0x30B1 JUMP JUMPDEST SWAP1 POP SWAP2 SWAP1 POP JUMP JUMPDEST PUSH32 0x416C72656164792061206D656D62657200000000000000000000000000000000 PUSH1 0x0 DUP3 ADD MSTORE POP JUMP JUMPDEST PUSH1 0x0 PUSH2 0x312A PUSH1 0x10 DUP4 PUSH2 0x20C1 JUMP JUMPDEST SWAP2 POP PUSH2 0x3135 DUP3 PUSH2 0x30F4 JUMP JUMPDEST PUSH1 0x20 DUP3 ADD SWAP1 POP SWAP2 SWAP1 POP JUMP JUMPDEST PUSH1 0x0 PUSH1 0x20 DUP3 ADD SWAP1 POP DUP2 DUP2 SUB PUSH1 0x0 DUP4 ADD MSTORE PUSH2 0x3159 DUP2 PUSH2 0x311D JUMP JUMPDEST SWAP1 POP SWAP2 SWAP1 POP JUMP INVALID LOG2 PUSH5 0x6970667358 0x22 SLT KECCAK256 0xEA TIMESTAMP SGT DUP6 0xE5 SWAP12 INVALID RETURNDATASIZE 0xD5 0x29 DUP15 0xEF 0x24 STOP SWAP3 0x2E SLOAD 0xC0 0xD1 SMOD 0xEF 0x4D 0xBD EXTCODECOPY 0x4A 0xF9 0xC9 0xC5 PUSH12 0xF97BAD64736F6C6343000813 STOP CALLER "},"methodIdentifiers":{"addMember(address)":"ca6d56dc","admin()":"f851a440","claimStake(uint256)":"44c7d6ef","getMemberByIndex(uint256)":"bce73b45","getPaperComment(uint256,address)":"45e75239","getPaperDetails(uint256)":"8bf7526e","getPaperStatus(uint256)":"25c2b237","getPaperVoters(uint256)":"29288cef","members(address)":"08ae4b0c","minRequiredVotes()":"ed561780","paperCount()":"a56c2cb9","paperStakes(uint256)":"e2e2595a","papers(uint256)":"5e775a27","purchaseAccess(uint256)":"b91d0a2f","setMinRequiredVotes(uint256)":"93df428c","setStakingAmount(uint256)":"3f230872","stakeReturned(uint256)":"de126e2a","stakingAmount()":"739a3e02","submitPaper(string,string,uint256,string,string)":"83d2076a","totalMembers()":"76e92559","voteOnPaper(uint256,bool,string)":"b658adfc"}}}}}